{
  "_format": "hh-sol-artifact-1",
  "contractName": "DexRouter",
  "sourceName": "contracts/8/DexRouter.sol",
  "abi": [
    {
      "anonymous": false,
      "inputs": [
        {
          "indexed": false,
          "internalType": "address",
          "name": "approveProxy",
          "type": "address"
        }
      ],
      "name": "ApproveProxyChanged",
      "type": "event"
    },
    {
      "anonymous": false,
      "inputs": [
        {
          "indexed": false,
          "internalType": "address",
          "name": "fromToken",
          "type": "address"
        },
        {
          "indexed": false,
          "internalType": "address",
          "name": "toToken",
          "type": "address"
        },
        {
          "indexed": false,
          "internalType": "address",
          "name": "sender",
          "type": "address"
        },
        {
          "indexed": false,
          "internalType": "uint256",
          "name": "fromAmount",
          "type": "uint256"
        },
        {
          "indexed": false,
          "internalType": "uint256",
          "name": "returnAmount",
          "type": "uint256"
        }
      ],
      "name": "OrderRecord",
      "type": "event"
    },
    {
      "anonymous": false,
      "inputs": [
        {
          "indexed": true,
          "internalType": "address",
          "name": "previousOwner",
          "type": "address"
        },
        {
          "indexed": true,
          "internalType": "address",
          "name": "newOwner",
          "type": "address"
        }
      ],
      "name": "OwnershipTransferred",
      "type": "event"
    },
    {
      "anonymous": false,
      "inputs": [
        {
          "indexed": false,
          "internalType": "uint256",
          "name": "pathIndex",
          "type": "uint256"
        },
        {
          "indexed": false,
          "internalType": "uint256",
          "name": "subIndex",
          "type": "uint256"
        },
        {
          "indexed": false,
          "internalType": "address",
          "name": "payer",
          "type": "address"
        },
        {
          "indexed": false,
          "internalType": "address",
          "name": "fromToken",
          "type": "address"
        },
        {
          "indexed": false,
          "internalType": "address",
          "name": "toToken",
          "type": "address"
        },
        {
          "indexed": false,
          "internalType": "uint256",
          "name": "fromAmount",
          "type": "uint256"
        },
        {
          "indexed": false,
          "internalType": "uint256",
          "name": "toAmount",
          "type": "uint256"
        },
        {
          "indexed": false,
          "internalType": "uint256",
          "name": "errorCode",
          "type": "uint256"
        }
      ],
      "name": "PMMSwap",
      "type": "event"
    },
    {
      "anonymous": false,
      "inputs": [
        {
          "indexed": false,
          "internalType": "address",
          "name": "wNativeRelayer",
          "type": "address"
        }
      ],
      "name": "WNativeRelayerChanged",
      "type": "event"
    },
    {
      "anonymous": false,
      "inputs": [
        {
          "indexed": false,
          "internalType": "address",
          "name": "newXBridge",
          "type": "address"
        }
      ],
      "name": "XBridgeChanged",
      "type": "event"
    },
    {
      "inputs": [],
      "name": "_ADDRESS_MASK",
      "outputs": [
        {
          "internalType": "uint256",
          "name": "",
          "type": "uint256"
        }
      ],
      "stateMutability": "view",
      "type": "function"
    },
    {
      "inputs": [],
      "name": "_APPROVE_PROXY_32",
      "outputs": [
        {
          "internalType": "uint256",
          "name": "",
          "type": "uint256"
        }
      ],
      "stateMutability": "view",
      "type": "function"
    },
    {
      "inputs": [],
      "name": "_PMM_FLAG4_MASK",
      "outputs": [
        {
          "internalType": "bytes32",
          "name": "",
          "type": "bytes32"
        }
      ],
      "stateMutability": "view",
      "type": "function"
    },
    {
      "inputs": [],
      "name": "_PMM_FLAG8_MASK",
      "outputs": [
        {
          "internalType": "bytes32",
          "name": "",
          "type": "bytes32"
        }
      ],
      "stateMutability": "view",
      "type": "function"
    },
    {
      "inputs": [],
      "name": "_PMM_INDEX_I_MASK",
      "outputs": [
        {
          "internalType": "bytes32",
          "name": "",
          "type": "bytes32"
        }
      ],
      "stateMutability": "view",
      "type": "function"
    },
    {
      "inputs": [],
      "name": "_PMM_INDEX_J_MASK",
      "outputs": [
        {
          "internalType": "bytes32",
          "name": "",
          "type": "bytes32"
        }
      ],
      "stateMutability": "view",
      "type": "function"
    },
    {
      "inputs": [],
      "name": "_REVERSE_MASK",
      "outputs": [
        {
          "internalType": "uint256",
          "name": "",
          "type": "uint256"
        }
      ],
      "stateMutability": "view",
      "type": "function"
    },
    {
      "inputs": [],
      "name": "_WEIGHT_MASK",
      "outputs": [
        {
          "internalType": "uint256",
          "name": "",
          "type": "uint256"
        }
      ],
      "stateMutability": "view",
      "type": "function"
    },
    {
      "inputs": [],
      "name": "_WETH",
      "outputs": [
        {
          "internalType": "uint256",
          "name": "",
          "type": "uint256"
        }
      ],
      "stateMutability": "view",
      "type": "function"
    },
    {
      "inputs": [],
      "name": "_WNATIVE_RELAY_32",
      "outputs": [
        {
          "internalType": "uint256",
          "name": "",
          "type": "uint256"
        }
      ],
      "stateMutability": "view",
      "type": "function"
    },
    {
      "inputs": [],
      "name": "approveProxy",
      "outputs": [
        {
          "internalType": "address",
          "name": "",
          "type": "address"
        }
      ],
      "stateMutability": "view",
      "type": "function"
    },
    {
      "inputs": [],
      "name": "initialize",
      "outputs": [],
      "stateMutability": "nonpayable",
      "type": "function"
    },
    {
      "inputs": [],
      "name": "owner",
      "outputs": [
        {
          "internalType": "address",
          "name": "",
          "type": "address"
        }
      ],
      "stateMutability": "view",
      "type": "function"
    },
    {
      "inputs": [],
      "name": "renounceOwnership",
      "outputs": [],
      "stateMutability": "nonpayable",
      "type": "function"
    },
    {
      "inputs": [
        {
          "internalType": "address",
          "name": "newApproveProxy",
          "type": "address"
        }
      ],
      "name": "setApproveProxy",
      "outputs": [],
      "stateMutability": "nonpayable",
      "type": "function"
    },
    {
      "inputs": [
        {
          "internalType": "address",
          "name": "relayer",
          "type": "address"
        }
      ],
      "name": "setWNativeRelayer",
      "outputs": [],
      "stateMutability": "nonpayable",
      "type": "function"
    },
    {
      "inputs": [
        {
          "internalType": "address",
          "name": "newXBridge",
          "type": "address"
        }
      ],
      "name": "setXBridge",
      "outputs": [],
      "stateMutability": "nonpayable",
      "type": "function"
    },
    {
      "inputs": [
        {
          "components": [
            {
              "internalType": "uint256",
              "name": "fromToken",
              "type": "uint256"
            },
            {
              "internalType": "address",
              "name": "toToken",
              "type": "address"
            },
            {
              "internalType": "uint256",
              "name": "fromTokenAmount",
              "type": "uint256"
            },
            {
              "internalType": "uint256",
              "name": "minReturnAmount",
              "type": "uint256"
            },
            {
              "internalType": "uint256",
              "name": "deadLine",
              "type": "uint256"
            }
          ],
          "internalType": "struct DexRouter.BaseRequest",
          "name": "baseRequest",
          "type": "tuple"
        },
        {
          "internalType": "uint256[]",
          "name": "batchesAmount",
          "type": "uint256[]"
        },
        {
          "components": [
            {
              "internalType": "address[]",
              "name": "mixAdapters",
              "type": "address[]"
            },
            {
              "internalType": "address[]",
              "name": "assetTo",
              "type": "address[]"
            },
            {
              "internalType": "uint256[]",
              "name": "rawData",
              "type": "uint256[]"
            },
            {
              "internalType": "bytes[]",
              "name": "extraData",
              "type": "bytes[]"
            },
            {
              "internalType": "uint256",
              "name": "fromToken",
              "type": "uint256"
            }
          ],
          "internalType": "struct DexRouter.RouterPath[][]",
          "name": "batches",
          "type": "tuple[][]"
        },
        {
          "components": [
            {
              "internalType": "uint256",
              "name": "pathIndex",
              "type": "uint256"
            },
            {
              "internalType": "address",
              "name": "payer",
              "type": "address"
            },
            {
              "internalType": "address",
              "name": "fromToken",
              "type": "address"
            },
            {
              "internalType": "address",
              "name": "toToken",
              "type": "address"
            },
            {
              "internalType": "uint256",
              "name": "fromTokenAmountMax",
              "type": "uint256"
            },
            {
              "internalType": "uint256",
              "name": "toTokenAmountMax",
              "type": "uint256"
            },
            {
              "internalType": "uint256",
              "name": "salt",
              "type": "uint256"
            },
            {
              "internalType": "uint256",
              "name": "deadLine",
              "type": "uint256"
            },
            {
              "internalType": "bool",
              "name": "isPushOrder",
              "type": "bool"
            },
            {
              "internalType": "bytes",
              "name": "extension",
              "type": "bytes"
            }
          ],
          "internalType": "struct IMarketMaker.PMMSwapRequest[]",
          "name": "extraData",
          "type": "tuple[]"
        }
      ],
      "name": "smartSwap",
      "outputs": [
        {
          "internalType": "uint256",
          "name": "returnAmount",
          "type": "uint256"
        }
      ],
      "stateMutability": "payable",
      "type": "function"
    },
    {
      "inputs": [
        {
          "components": [
            {
              "internalType": "uint256",
              "name": "fromToken",
              "type": "uint256"
            },
            {
              "internalType": "address",
              "name": "toToken",
              "type": "address"
            },
            {
              "internalType": "uint256",
              "name": "fromTokenAmount",
              "type": "uint256"
            },
            {
              "internalType": "uint256",
              "name": "minReturnAmount",
              "type": "uint256"
            },
            {
              "internalType": "uint256",
              "name": "deadLine",
              "type": "uint256"
            }
          ],
          "internalType": "struct DexRouter.BaseRequest",
          "name": "baseRequest",
          "type": "tuple"
        },
        {
          "internalType": "uint256[]",
          "name": "batchesAmount",
          "type": "uint256[]"
        },
        {
          "components": [
            {
              "internalType": "address[]",
              "name": "mixAdapters",
              "type": "address[]"
            },
            {
              "internalType": "address[]",
              "name": "assetTo",
              "type": "address[]"
            },
            {
              "internalType": "uint256[]",
              "name": "rawData",
              "type": "uint256[]"
            },
            {
              "internalType": "bytes[]",
              "name": "extraData",
              "type": "bytes[]"
            },
            {
              "internalType": "uint256",
              "name": "fromToken",
              "type": "uint256"
            }
          ],
          "internalType": "struct DexRouter.RouterPath[][]",
          "name": "batches",
          "type": "tuple[][]"
        },
        {
          "components": [
            {
              "internalType": "uint256",
              "name": "pathIndex",
              "type": "uint256"
            },
            {
              "internalType": "address",
              "name": "payer",
              "type": "address"
            },
            {
              "internalType": "address",
              "name": "fromToken",
              "type": "address"
            },
            {
              "internalType": "address",
              "name": "toToken",
              "type": "address"
            },
            {
              "internalType": "uint256",
              "name": "fromTokenAmountMax",
              "type": "uint256"
            },
            {
              "internalType": "uint256",
              "name": "toTokenAmountMax",
              "type": "uint256"
            },
            {
              "internalType": "uint256",
              "name": "salt",
              "type": "uint256"
            },
            {
              "internalType": "uint256",
              "name": "deadLine",
              "type": "uint256"
            },
            {
              "internalType": "bool",
              "name": "isPushOrder",
              "type": "bool"
            },
            {
              "internalType": "bytes",
              "name": "extension",
              "type": "bytes"
            }
          ],
          "internalType": "struct IMarketMaker.PMMSwapRequest[]",
          "name": "extraData",
          "type": "tuple[]"
        }
      ],
      "name": "smartSwapByXBridge",
      "outputs": [
        {
          "internalType": "uint256",
          "name": "returnAmount",
          "type": "uint256"
        }
      ],
      "stateMutability": "payable",
      "type": "function"
    },
    {
      "inputs": [
        {
          "components": [
            {
              "internalType": "uint256",
              "name": "fromToken",
              "type": "uint256"
            },
            {
              "internalType": "address",
              "name": "toToken",
              "type": "address"
            },
            {
              "internalType": "uint256",
              "name": "fromTokenAmount",
              "type": "uint256"
            },
            {
              "internalType": "uint256",
              "name": "minReturnAmount",
              "type": "uint256"
            },
            {
              "internalType": "uint256",
              "name": "deadLine",
              "type": "uint256"
            }
          ],
          "internalType": "struct DexRouter.BaseRequest",
          "name": "baseRequest",
          "type": "tuple"
        },
        {
          "internalType": "uint256[]",
          "name": "batchesAmount",
          "type": "uint256[]"
        },
        {
          "components": [
            {
              "internalType": "address[]",
              "name": "mixAdapters",
              "type": "address[]"
            },
            {
              "internalType": "address[]",
              "name": "assetTo",
              "type": "address[]"
            },
            {
              "internalType": "uint256[]",
              "name": "rawData",
              "type": "uint256[]"
            },
            {
              "internalType": "bytes[]",
              "name": "extraData",
              "type": "bytes[]"
            },
            {
              "internalType": "uint256",
              "name": "fromToken",
              "type": "uint256"
            }
          ],
          "internalType": "struct DexRouter.RouterPath[][]",
          "name": "batches",
          "type": "tuple[][]"
        },
        {
          "components": [
            {
              "internalType": "uint256",
              "name": "pathIndex",
              "type": "uint256"
            },
            {
              "internalType": "address",
              "name": "payer",
              "type": "address"
            },
            {
              "internalType": "address",
              "name": "fromToken",
              "type": "address"
            },
            {
              "internalType": "address",
              "name": "toToken",
              "type": "address"
            },
            {
              "internalType": "uint256",
              "name": "fromTokenAmountMax",
              "type": "uint256"
            },
            {
              "internalType": "uint256",
              "name": "toTokenAmountMax",
              "type": "uint256"
            },
            {
              "internalType": "uint256",
              "name": "salt",
              "type": "uint256"
            },
            {
              "internalType": "uint256",
              "name": "deadLine",
              "type": "uint256"
            },
            {
              "internalType": "bool",
              "name": "isPushOrder",
              "type": "bool"
            },
            {
              "internalType": "bytes",
              "name": "extension",
              "type": "bytes"
            }
          ],
          "internalType": "struct IMarketMaker.PMMSwapRequest[]",
          "name": "extraData",
          "type": "tuple[]"
        },
        {
          "internalType": "bytes",
          "name": "permit",
          "type": "bytes"
        }
      ],
      "name": "smartSwapWithPermit",
      "outputs": [
        {
          "internalType": "uint256",
          "name": "returnAmount",
          "type": "uint256"
        }
      ],
      "stateMutability": "payable",
      "type": "function"
    },
    {
      "inputs": [
        {
          "internalType": "address",
          "name": "newOwner",
          "type": "address"
        }
      ],
      "name": "transferOwnership",
      "outputs": [],
      "stateMutability": "nonpayable",
      "type": "function"
    },
    {
      "inputs": [
        {
          "internalType": "contract IERC20",
          "name": "srcToken",
          "type": "address"
        },
        {
          "internalType": "uint256",
          "name": "amount",
          "type": "uint256"
        },
        {
          "internalType": "uint256",
          "name": "minReturn",
          "type": "uint256"
        },
        {
          "internalType": "bytes32[]",
          "name": "pools",
          "type": "bytes32[]"
        }
      ],
      "name": "unxswap",
      "outputs": [
        {
          "internalType": "uint256",
          "name": "",
          "type": "uint256"
        }
      ],
      "stateMutability": "payable",
      "type": "function"
    },
    {
      "inputs": [
        {
          "internalType": "contract IERC20",
          "name": "srcToken",
          "type": "address"
        },
        {
          "internalType": "uint256",
          "name": "amount",
          "type": "uint256"
        },
        {
          "internalType": "uint256",
          "name": "minReturn",
          "type": "uint256"
        },
        {
          "internalType": "bytes32[]",
          "name": "pools",
          "type": "bytes32[]"
        }
      ],
      "name": "unxswapByXBridge",
      "outputs": [
        {
          "internalType": "uint256",
          "name": "returnAmount",
          "type": "uint256"
        }
      ],
      "stateMutability": "payable",
      "type": "function"
    },
    {
      "inputs": [
        {
          "internalType": "contract IERC20",
          "name": "srcToken",
          "type": "address"
        },
        {
          "internalType": "uint256",
          "name": "amountOut",
          "type": "uint256"
        },
        {
          "internalType": "uint256",
          "name": "amountInMax",
          "type": "uint256"
        },
        {
          "internalType": "bytes32[]",
          "name": "pools",
          "type": "bytes32[]"
        }
      ],
      "name": "unxswapForExactTokens",
      "outputs": [
        {
          "internalType": "uint256",
          "name": "returnAmount",
          "type": "uint256"
        }
      ],
      "stateMutability": "payable",
      "type": "function"
    },
    {
      "inputs": [
        {
          "internalType": "contract IERC20",
          "name": "srcToken",
          "type": "address"
        },
        {
          "internalType": "uint256",
          "name": "amountOut",
          "type": "uint256"
        },
        {
          "internalType": "uint256",
          "name": "amountInMax",
          "type": "uint256"
        },
        {
          "internalType": "bytes32[]",
          "name": "pools",
          "type": "bytes32[]"
        },
        {
          "internalType": "bytes",
          "name": "permit",
          "type": "bytes"
        }
      ],
      "name": "unxswapForExactTokensWithPermit",
      "outputs": [
        {
          "internalType": "uint256",
          "name": "returnAmount",
          "type": "uint256"
        }
      ],
      "stateMutability": "nonpayable",
      "type": "function"
    },
    {
      "inputs": [
        {
          "internalType": "contract IERC20",
          "name": "srcToken",
          "type": "address"
        },
        {
          "internalType": "uint256",
          "name": "amount",
          "type": "uint256"
        },
        {
          "internalType": "uint256",
          "name": "minReturn",
          "type": "uint256"
        },
        {
          "internalType": "bytes32[]",
          "name": "pools",
          "type": "bytes32[]"
        },
        {
          "internalType": "bytes",
          "name": "permit",
          "type": "bytes"
        }
      ],
      "name": "unxswapWithPermit",
      "outputs": [
        {
          "internalType": "uint256",
          "name": "returnAmount",
          "type": "uint256"
        }
      ],
      "stateMutability": "nonpayable",
      "type": "function"
    },
    {
      "inputs": [],
      "name": "wNativeRelayer",
      "outputs": [
        {
          "internalType": "address",
          "name": "",
          "type": "address"
        }
      ],
      "stateMutability": "view",
      "type": "function"
    },
    {
      "inputs": [],
      "name": "xBridge",
      "outputs": [
        {
          "internalType": "address",
          "name": "",
          "type": "address"
        }
      ],
      "stateMutability": "view",
      "type": "function"
    },
    {
      "stateMutability": "payable",
      "type": "receive"
    }
  ],
  "bytecode": "0x608060405234801561001057600080fd5b50614611806100206000396000f3fe6080604052600436106101bb5760003560e01c8063aad0ae5b116100ec578063e0af36161161008a578063f2ea984711610064578063f2ea9847146104c6578063f2fde38b146104de578063f3dced3c146104fe578063f5224f5a1461023e57600080fd5b8063e0af361614610471578063ea8b6aff14610493578063edb47f42146104b357600080fd5b8063cfc40f21116100c6578063cfc40f2114610418578063d13a35e61461042b578063d65768681461044b578063e051c6e81461045e57600080fd5b8063aad0ae5b146103ca578063c56179b3146103ea578063ce8c43161461040557600080fd5b80637e02498b116101595780638da5cb5b116101335780638da5cb5b146103615780639773f2de1461037f5780639b9033121461039f578063a6497e5c146103b757600080fd5b80637e02498b1461030b5780638129fc1c146103335780638d9c905f1461034857600080fd5b806342ef677b1161019557806342ef677b1461027e57806370265bbe1461029e578063715018a6146102be57806379641f74146102d357600080fd5b8063158d458d146102135780632f91aa3b1461023e5780633cf0acc81461025657600080fd5b3661020e573332141561020c5760405162461bcd60e51b81526020600482015260146024820152731155120819195c1bdcda5d081c995a9958dd195960621b60448201526064015b60405180910390fd5b005b600080fd5b34801561021f57600080fd5b5061022b600160fe1b81565b6040519081526020015b60405180910390f35b34801561024a57600080fd5b5061022b600160ff1b81565b34801561026257600080fd5b5061022b730b5f474ad0e3f7ef629bd10dbf9e4a8fd60d9a4881565b34801561028a57600080fd5b5061022b610299366004613a0d565b61051e565b3480156102aa57600080fd5b5061020c6102b9366004613946565b610544565b3480156102ca57600080fd5b5061020c6105c3565b3480156102df57600080fd5b506099546102f3906001600160a01b031681565b6040516001600160a01b039091168152602001610235565b34801561031757600080fd5b5061022b73d99cae3fac551f6b6ba7b9f19bdd316951eeee9881565b34801561033f57600080fd5b5061020c6105f9565b34801561035457600080fd5b5061022b61ffff60a01b81565b34801561036d57600080fd5b506033546001600160a01b03166102f3565b34801561038b57600080fd5b5061020c61039a366004613946565b6106c2565b3480156103ab57600080fd5b5061022b60ff60e81b81565b61022b6103c53660046139a4565b61073a565b3480156103d657600080fd5b5061020c6103e5366004613946565b610756565b3480156103f657600080fd5b5061022b6001600160a01b0381565b61022b610413366004613aa2565b6107ce565b61022b610426366004613b3b565b610820565b34801561043757600080fd5b506098546102f3906001600160a01b031681565b61022b6104593660046139a4565b61087e565b61022b61046c366004613aa2565b610962565b34801561047d57600080fd5b5061022b60008051602061449883398151915281565b34801561049f57600080fd5b5061022b6104ae366004613a0d565b610a7d565b61022b6104c13660046139a4565b610a97565b3480156104d257600080fd5b5061022b60ff60f01b81565b3480156104ea57600080fd5b5061020c6104f9366004613946565b610fe2565b34801561050a57600080fd5b506097546102f3906001600160a01b031681565b600061052b88848461107a565b6105388888888888610a97565b98975050505050505050565b6033546001600160a01b0316331461056e5760405162461bcd60e51b815260040161020390613f62565b609980546001600160a01b0319166001600160a01b0383169081179091556040519081527f22625cfa51354a951bf8882171e824e547b28d778e3560c17c2cf86adc2515ed906020015b60405180910390a150565b6033546001600160a01b031633146105ed5760405162461bcd60e51b815260040161020390613f62565b6105f760006111de565b565b600054610100900460ff166106145760005460ff1615610618565b303b155b61067b5760405162461bcd60e51b815260206004820152602e60248201527f496e697469616c697a61626c653a20636f6e747261637420697320616c72656160448201526d191e481a5b9a5d1a585b1a5e995960921b6064820152608401610203565b600054610100900460ff1615801561069d576000805461ffff19166101011790555b6106a5611230565b6106ad61125f565b80156106bf576000805461ff00191690555b50565b6033546001600160a01b031633146106ec5760405162461bcd60e51b815260040161020390613f62565b609880546001600160a01b0319166001600160a01b0383169081179091556040519081527f8cade8eab4d8616714469b2d0621047d03d909a4a4685da326e5fa4d54c5fa88906020016105b8565b600061074a86868686863361128e565b90505b95945050505050565b6033546001600160a01b031633146107805760405162461bcd60e51b815260040161020390613f62565b609780546001600160a01b0319166001600160a01b0383169081179091556040519081527fc7837d6c310ea8044f727d5d37f08177374e68c2f2cdf5adf1fbbacf33865531906020016105b8565b60008760800135600260655414156107f85760405162461bcd60e51b815260040161020390613fe2565b600260655561080e8989898989898933806117ad565b60016065559998505050505050505050565b600089608001356002606554141561084a5760405162461bcd60e51b815260040161020390613fe2565b600260655561085b8b35858561107a565b61086a8b8b8b8b8b8b8b6107ce565b60016065559b9a5050505050505050505050565b6099546000906001600160a01b031633146108ca5760405162461bcd60e51b815260206004820152600c60248201526b6f6e6c79205842726964676560a01b6044820152606401610203565b6099546040805163123119cd60e01b815290516000926001600160a01b03169163123119cd916004808301926020929190829003018186803b15801561090f57600080fd5b505afa158015610923573d6000803e3d6000fd5b505050506040513d601f19601f82011682018060405250810190610947919061396a565b905061095787878787878661128e565b979650505050505050565b600087608001356002606554141561098c5760405162461bcd60e51b815260040161020390613fe2565b60026065556099546001600160a01b031633146109da5760405162461bcd60e51b815260206004820152600c60248201526b6f6e6c79205842726964676560a01b6044820152606401610203565b6099546040805163123119cd60e01b815290516000926001600160a01b03169163123119cd916004808301926020929190829003018186803b158015610a1f57600080fd5b505afa158015610a33573d6000803e3d6000fd5b505050506040513d601f19601f82011682018060405250810190610a57919061396a565b9050610a6a8a8a8a8a8a8a8a88336117ad565b60016065559a9950505050505050505050565b6000610a8a88848461107a565b610538888888888861073a565b600080610aa5868585611e13565b9050600081600081518110610abc57610abc614448565b6020026020010151905085811115610b245760405162461bcd60e51b815260206004820152602560248201527f556e7873776170526f757465723a204558434553534956455f494e5055545f416044820152641353d5539560da1b6064820152608401610203565b610bb2565b3d6000803e3d6000fd5b62461bcd60e51b600052600160e51b60205280604052816000fd5b63022c0d9f60e01b8152838015610b715782600483015260006024830152610b7f565b600060048301528260248301525b50846044820152608060648201526000608482015260008060a4836000875af1610bab57610bab610b29565b5050505050565b60405160c081016040526004606435018035602082019150806020028201905081358b60008114610c5e573415610c0357610c0360557111696e76616c6964206d73672e76616c756560581b610b33565b63052f523360e11b85528c60048601523360248601526001600160a01b0382166044860152856064860152600080608487600073d99cae3fac551f6b6ba7b9f19bdd316951eeee985af1610c5957610c59610b29565b610cf7565b348b14610c8557610c8560557111696e76616c6964206d73672e76616c756560581b610b33565b630d0e30db60e41b8552600080600487896000805160206144988339815191525af1610cb357610cb3610b29565b63a9059cbb60e01b85526001600160a01b038216600486015285602486015260008060448760006000805160206144988339815191525af1610cf757610cf7610b29565b508a965060208601602084015b83811015610d44578035602083019250610d3a6001600160a01b038216600160ff1b86166001600160a01b03871686518b610b4e565b9250602001610d04565b5050600160fe1b81168015610e1457610d6f30600160ff1b84166001600160a01b0385168b89610b4e565b63a9059cbb60e01b8552730b5f474ad0e3f7ef629bd10dbf9e4a8fd60d9a48600486015287602486015260008060448760006000805160206144988339815191525af1610dbe57610dbe610b29565b632e1a7d4d60e01b85528760048601526000806024876000730b5f474ad0e3f7ef629bd10dbf9e4a8fd60d9a485af1610df957610df9610b29565b6000806000808b335af1610e0f57610e0f610b29565b610e30565b610e3033600160ff1b84166001600160a01b0385168b89610b4e565b50505050506001600160a01b038816610e7b57478015610e7957604051339082156108fc029083906000818181858888f19350505050158015610e77573d6000803e3d6000fd5b505b505b60008585610e8a600182614277565b818110610e9957610e99614448565b60200291909101359150506001600160a01b038116600160ff1b821680610f3257816001600160a01b031663d21220a76040518163ffffffff1660e01b8152600401602060405180830381600087803b158015610ef557600080fd5b505af1158015610f09573d6000803e3d6000fd5b505050506040513d601f19601f82011682018060405250810190610f2d919061396a565b610fa5565b816001600160a01b0316630dfe16816040518163ffffffff1660e01b8152600401602060405180830381600087803b158015610f6d57600080fd5b505af1158015610f81573d6000803e3d6000fd5b505050506040513d601f19601f82011682018060405250810190610fa5919061396a565b91506000805160206145bc8339815191528b8333878a604051610fcc959493929190613e36565b60405180910390a1505050505095945050505050565b6033546001600160a01b0316331461100c5760405162461bcd60e51b815260040161020390613f62565b6001600160a01b0381166110715760405162461bcd60e51b815260206004820152602660248201527f4f776e61626c653a206e6577206f776e657220697320746865207a65726f206160448201526564647265737360d01b6064820152608401610203565b6106bf816111de565b80156111d9576000606060e083141561111b576040516001600160a01b038616906110b49063d505accf60e01b9087908790602001613d21565b60408051601f19818403018152908290526110ce91613d45565b6000604051808303816000865af19150503d806000811461110b576040519150601f19603f3d011682016040523d82523d6000602084013e611110565b606091505b50909250905061118a565b61010083141561114c576040516001600160a01b038616906110b4906323f2ebc360e21b9087908790602001613d21565b60405162461bcd60e51b81526020600482015260136024820152720aee4dedcce40e0cae4dad2e840d8cadccee8d606b1b6044820152606401610203565b81610bab576111c0816040518060400160405280600f81526020016e02832b936b4ba103330b4b632b21d1608d1b815250612054565b60405162461bcd60e51b81526004016102039190613e96565b505050565b603380546001600160a01b038381166001600160a01b0319831681179093556040519116919082907f8be0079c531659141344cd1fd0a4f28419497f9722a3daafe3b4186f6b6457e090600090a35050565b600054610100900460ff166112575760405162461bcd60e51b815260040161020390613f97565b6105f76121b8565b600054610100900460ff166112865760405162461bcd60e51b815260040161020390613f97565b6105f76121e8565b600080611370565b630240bc6b60e21b81526000604082600484875afa6112b7576112b7610b29565b60603d146112e7576112e760597c1472657365727665732063616c6c206661696c65640000000000000000610b33565b8151602083015186156112f657905b63022c0d9f60e01b8452878502633b9aca00929092028201910204905084801561132c578160048401526000602484015261133a565b600060048401528160248401525b50866044830152608060648301526000608483015260008060a4846000885af161136657611366610b29565b9695505050505050565b60405160c081016040526004606435018035602082019150806020028201905081358b6000811461141c5734156113c1576113c160557111696e76616c6964206d73672e76616c756560581b610b33565b63052f523360e11b85528c60048601528760248601526001600160a01b03821660448601528b6064860152600080608487600073d99cae3fac551f6b6ba7b9f19bdd316951eeee985af161141757611417610b29565b6114b5565b348c146114435761144360557111696e76616c6964206d73672e76616c756560581b610b33565b630d0e30db60e41b85526000806004878f6000805160206144988339815191525af161147157611471610b29565b63a9059cbb60e01b85526001600160a01b03821660048601528b602486015260008060448760006000805160206144988339815191525af16114b5576114b5610b29565b508a9450602083015b828110156115065780356114fa6001600160a01b03821663ffffffff60a01b851660a01c600160ff1b86166001600160a01b0387168b8b611296565b965091506020016114be565b50600160fe1b811680156115e45761153d3063ffffffff60a01b841660a01c600160ff1b85166001600160a01b0386168a8a611296565b955063a9059cbb60e01b8552730b5f474ad0e3f7ef629bd10dbf9e4a8fd60d9a48600486015285602486015260008060448760006000805160206144988339815191525af161158e5761158e610b29565b632e1a7d4d60e01b85528560048601526000806024876000730b5f474ad0e3f7ef629bd10dbf9e4a8fd60d9a485af16115c9576115c9610b29565b60008060008089335af16115df576115df610b29565b611610565b61160d3363ffffffff60a01b841660a01c600160ff1b85166001600160a01b0386168a8a611296565b95505b50505050508581101561164557611645605a7c164d696e2072657475726e206e6f742072656163686564000000000000610b33565b60008585611654600182614277565b81811061166357611663614448565b60200291909101359150506001600160a01b038116600160ff1b8216806116fc57816001600160a01b031663d21220a76040518163ffffffff1660e01b8152600401602060405180830381600087803b1580156116bf57600080fd5b505af11580156116d3573d6000803e3d6000fd5b505050506040513d601f19601f820116820180604052508101906116f7919061396a565b61176f565b816001600160a01b0316630dfe16816040518163ffffffff1660e01b8152600401602060405180830381600087803b15801561173757600080fd5b505af115801561174b573d6000803e3d6000fd5b505050506040513d601f19601f8201168201806040525081019061176f919061396a565b91506000805160206145bc8339815191528b83338d88604051611796959493929190613e36565b60405180910390a150919998505050505050505050565b600080806117c0368d90038d018d613c14565b905060008160400151116118215760405162461bcd60e51b815260206004820152602260248201527f526f7574653a2066726f6d546f6b656e416d6f756e74206d757374206265203e604482015261020360f41b6064820152608401610203565b805160208201516001600160a01b039182169161183f911686612216565b92506118846040518060400160405280601c81526020017f6c6f63616c42617365526571756573742e746f546f6b656e3a2025730000000081525083602001516122b7565b6118bd604051806040016040528060098152602001685f574554483a20257360b81b8152506000805160206144988339815191526122b7565b6118e3604051806060016040528060248152602001614598602491398360400151612300565b81516118ee90612345565b1561195e576000805160206144988339815191526001600160a01b031663d0e30db083604001516040518263ffffffff1660e01b81526004016000604051808303818588803b15801561194057600080fd5b505af1158015611954573d6000803e3d6000fd5b50505050506119fa565b81516001600160a01b031660008051602061449883398151915214156119fa576097548251604080850151905163052f523360e11b81526001600160a01b03928316600482015289831660248201523060448201526064810191909152911690630a5ea46690608401600060405180830381600087803b1580156119e157600080fd5b505af11580156119f5573d6000803e3d6000fd5b505050505b6000805b8c811015611a3e578d8d82818110611a1857611a18614448565b9050602002013582611a2a919061421e565b915080611a3681614417565b9150506119fe565b508260400151811115611ab15760405162461bcd60e51b815260206004820152603560248201527f526f7574653a206e756d626572206f6620626174636865732073686f756c64206044820152741899480f0f48199c9bdb551bdad95b905b5bdd5b9d605a1b6064820152608401610203565b508151600160ff1b1615611be757815160009060f01c60ff169050611b0d878385604001518c8c8660ff16818110611aeb57611aeb614448565b9050602002810190611afd9190614153565b611b0690614307565b6000612367565b611be557611b1f836020015187612640565b60208301518490611b39906001600160a01b031688612216565b611b439190614277565b93508260600151841015611ba45760405162461bcd60e51b815260206004820152602260248201527f526f7574653a2052657475726e20616d6f756e74206973206e6f7420656e6f756044820152610ced60f31b6064820152608401610203565b6000805160206145bc83398151915282846020015188866040015188604051611bd1959493929190613e36565b60405180910390a183945050505050611e06565b505b60005b89811015611c5457611c42878e8e84818110611c0857611c08614448565b905060200201358d8d85818110611c2157611c21614448565b9050602002810190611c33919061410a565b611c3d8d8f61428e565b6128a0565b80611c4c81614417565b915050611bea565b50611c5f8186612640565b611ca26040518060400160405280601a81526020017f6c6f63616c42617365526571756573742e746f546f6b656e3a2000000000000081525083602001516122b7565b60208201516040516370a0823160e01b81523060048201526000916001600160a01b0316906370a082319060240160206040518083038186803b158015611ce857600080fd5b505afa158015611cfc573d6000803e3d6000fd5b505050506040513d601f19601f82011682018060405250810190611d209190613cdc565b9050611d496040518060400160405280600581526020016403130b61d160dd1b81525082612300565b611d57836020015187612640565b60208301518490611d71906001600160a01b031688612216565b611d7b9190614277565b93508260600151841015611dca5760405162461bcd60e51b8152602060048201526016602482015275135a5b881c995d1d5c9b881b9bdd081c995858da195960521b6044820152606401610203565b6000805160206145bc83398151915282846020015188866040015188604051611df7959493929190613e36565b60405180910390a15091925050505b9998505050505050505050565b6060611e2082600161421e565b6001600160401b03811115611e3757611e3761445e565b604051908082528060200260200182016040528015611e60578160200160208202803683370190505b509050838160018351611e739190614277565b81518110611e8357611e83614448565b6020908102919091010152815b801561204c5760008484611ea5600185614277565b818110611eb457611eb4614448565b90506020020135905060008060006001600160a01b0384169250600160ff1b8416915063ffffffff60a01b841660a01c9050600080846001600160a01b0316630902f1ac6040518163ffffffff1660e01b815260040160606040518083038186803b158015611f2257600080fd5b505afa158015611f36573d6000803e3d6000fd5b505050506040513d601f19601f82011682018060405250810190611f5a9190613c8c565b509150915083611f6b578181611f6e565b80825b80925081935050506000633b9aca00898981518110611f8f57611f8f614448565b6020026020010151846001600160701b0316611fab9190614258565b611fb59190614258565b90506000848a8a81518110611fcc57611fcc614448565b6020026020010151846001600160701b0316611fe89190614277565b611ff29190614258565b9050611ffe8183614236565b61200990600161421e565b8a61201560018c614277565b8151811061202557612025614448565b6020026020010181815250505050505050505050808061204490614400565b915050611e90565b509392505050565b606060048351106121855760208301516001600160e01b0319811662461bcd60e51b14801561208557506044845110155b15612125576024848101518086018201805191929091906120a790849061421e565b6120b1919061421e565b865110156120f95760405162461bcd60e51b815260206004820152601560248201527424b73b30b634b2103932bb32b93a103932b0b9b7b760591b6044820152606401610203565b848160405160200161210c929190613e01565b60405160208183030381529060405293505050506121b2565b6001600160e01b03198116634e487b7160e01b148015612146575083516024145b156121835760248401518361215a82612b06565b60405160200161216b929190613d61565b604051602081830303815290604052925050506121b2565b505b8161218f84612b2e565b6040516020016121a0929190613db0565b60405160208183030381529060405290505b92915050565b600054610100900460ff166121df5760405162461bcd60e51b815260040161020390613f97565b6105f7336111de565b600054610100900460ff1661220f5760405162461bcd60e51b815260040161020390613f97565b6001606555565b600061222183612345565b1561223757506001600160a01b038116316121b2565b6040516370a0823160e01b81526001600160a01b0383811660048301528416906370a082319060240160206040518083038186803b15801561227857600080fd5b505afa15801561228c573d6000803e3d6000fd5b505050506040513d601f19601f820116820180604052508101906122b09190613cdc565b90506121b2565b6122fc82826040516024016122cd929190613ea9565b60408051601f198184030181529190526020810180516001600160e01b031663319af33360e01b179052612d0d565b5050565b6122fc8282604051602401612316929190613f0d565b60408051601f198184030181529190526020810180516001600160e01b03166309710a9d60e41b179052612d0d565b6001600160a01b031673eeeeeeeeeeeeeeeeeeeeeeeeeeeeeeeeeeeeeeee1490565b600080600080856101200151905061237e88612345565b156123955760008051602061449883398151915297505b6020810151925060408101519150876001600160a01b031686604001516001600160a01b03161461241f5760085b93507fa14aec6b45ee5dff9013aa68311d2e4496103dad6d1115f11226f929e9de574e86600001518388602001518b8a606001518c60008b60405161240f9897969594939291906140c7565b60405180910390a150505061074d565b86866080015110156124325760046123c3565b61243f89848a8a89612d2e565b6000866040516020016124529190614019565b60408051601f198184030181529082905260608901516370a0823160e01b83523060048401529092506000916001600160a01b03909116906370a082319060240160206040518083038186803b1580156124ab57600080fd5b505afa1580156124bf573d6000803e3d6000fd5b505050506040513d601f19601f820116820180604052508101906124e39190613cdc565b6040516330e6ae3160e01b81529091506001600160a01b038616906330e6ae31906125179030906000908790600401613e6a565b602060405180830381600087803b15801561253157600080fd5b505af1158015612545573d6000803e3d6000fd5b505050506040513d601f19601f820116820180604052508101906125699190613cdc565b60608901516040516370a0823160e01b815230600482015291975082916001600160a01b03909116906370a082319060240160206040518083038186803b1580156125b357600080fd5b505afa1580156125c7573d6000803e3d6000fd5b505050506040513d601f19601f820116820180604052508101906125eb9190613cdc565b6125f59190614277565b90507fa14aec6b45ee5dff9013aa68311d2e4496103dad6d1115f11226f929e9de574e8860000151858a602001518d8c606001518e878d604051610fcc9897969594939291906140c7565b612652826001600160a01b0316612345565b15612813576040516370a0823160e01b8152306004820152600090600080516020614498833981519152906370a082319060240160206040518083038186803b15801561269e57600080fd5b505afa1580156126b2573d6000803e3d6000fd5b505050506040513d601f19601f820116820180604052508101906126d69190613cdc565b905080156127d05760985460405163a9059cbb60e01b81526001600160a01b039091166004820152602481018290526000805160206144988339815191529063a9059cbb90604401602060405180830381600087803b15801561273857600080fd5b505af115801561274c573d6000803e3d6000fd5b505050506040513d601f19601f820116820180604052508101906127709190613987565b50609854604051632e1a7d4d60e01b8152600481018390526001600160a01b0390911690632e1a7d4d90602401600060405180830381600087803b1580156127b757600080fd5b505af11580156127cb573d6000803e3d6000fd5b505050505b47801561280d576040516001600160a01b0384169082156108fc029083906000818181858888f19350505050158015610bab573d6000803e3d6000fd5b50505050565b6040516370a0823160e01b81523060048201526000906001600160a01b038416906370a082319060240160206040518083038186803b15801561285557600080fd5b505afa158015612869573d6000803e3d6000fd5b505050506040513d601f19601f8201168201806040525081019061288d9190613cdc565b905080156111d9576111d9838383612de2565b6000806128d8858560008181106128b9576128b9614448565b90506020028101906128cb919061416a565b60800135600160ff1b1690565b1561298357612915858560008181106128f3576128f3614448565b9050602002810190612905919061416a565b608001356001600160a01b031690565b915061294c8585600081811061292d5761292d614448565b905060200281019061293f919061416a565b6080013560f01c60ff1690565b9050612978878388868560ff168151811061296957612969614448565b60200260200101516000612367565b612983575050610bab565b60005b84811015612afc5780156129c1576129a98686838181106128f3576128f3614448565b92506129be6001600160a01b03841630612216565b96505b6129f58686838181106129d6576129d6614448565b90506020028101906129e8919061416a565b60800135600160fe1b1690565b15612a7c57612a0f8686838181106128f3576128f3614448565b9250612a45868683818110612a2657612a26614448565b9050602002810190612a38919061416a565b6080013560e81c60ff1690565b9150612a73888489878660ff1681518110612a6257612a62614448565b602002602001015160008611612367565b612a7c57612aea565b612aaf604051806040016040528060118152602001701a9d5b5c0818da1958dac81a480e880959607a1b81525082612300565b612aea8888888885818110612ac657612ac6614448565b9050602002810190612ad8919061416a565b612ae190614313565b60008511612e34565b80612af481614417565b915050612986565b5050505050505050565b60606121b282604051602001612b1e91815260200190565b6040516020818303038152906040525b80516060906f181899199a1a9b1b9c1cb0b131b232b360811b90600090612b56906002614258565b612b6190600261421e565b6001600160401b03811115612b7857612b7861445e565b6040519080825280601f01601f191660200182016040528015612ba2576020820181803683370190505b509050600360fc1b81600081518110612bbd57612bbd614448565b60200101906001600160f81b031916908160001a905350600f60fb1b81600181518110612bec57612bec614448565b60200101906001600160f81b031916908160001a90535060005b845181101561204c57826004868381518110612c2457612c24614448565b01602001516001600160f81b031916901c60f81c60108110612c4857612c48614448565b1a60f81b82612c58836002614258565b612c6390600261421e565b81518110612c7357612c73614448565b60200101906001600160f81b031916908160001a90535082858281518110612c9d57612c9d614448565b60209101015160f81c600f1660108110612cb957612cb9614448565b1a60f81b82612cc9836002614258565b612cd490600361421e565b81518110612ce457612ce4614448565b60200101906001600160f81b031916908160001a90535080612d0581614417565b915050612c06565b80516a636f6e736f6c652e6c6f67602083016000808483855afa5050505050565b8080612d5057506001600160a01b038316600080516020614498833981519152145b15612d6557612d60838584612de2565b610bab565b60975460405163052f523360e11b81526001600160a01b038581166004830152878116602483015286811660448301526064820185905290911690630a5ea46690608401600060405180830381600087803b158015612dc357600080fd5b505af1158015612dd7573d6000803e3d6000fd5b505050505050505050565b604080516001600160a01b038416602482015260448082018490528251808303909101815260649091019091526020810180516001600160e01b031663a9059cbb60e01b1790526111d9908490613381565b6000612e4a83608001516001600160a01b031690565b905060005b835151811015612eed57600084604001518281518110612e7157612e71614448565b602002602001015160001b905060008060006001600160a01b0384169250600160ff1b8416915061ffff60a01b841660a01c9050612ed66040518060400160405280600f81526020016e706f6f6c416464726573733a20257360881b815250846122b7565b505050508080612ee590614417565b915050612e4f565b5060005b83515181101561337957600084604001518281518110612f1357612f13614448565b602090810291909101015190506001600160a01b038116600160ff1b821661ffff60a084901c16612710811115612f825760405162461bcd60e51b8152602060048201526013602482015272776569676874206f7574206f662072616e676560681b6044820152606401610203565b6000612710612f91838c614258565b612f9b9190614236565b9050612fdd60405180606001604052806036815260200161453860369139878b600001518981518110612fd057612fd0614448565b6020026020010151613508565b6130006040518060600160405280602a815260200161456e602a9139878d613508565b61303360405180606001604052806032815260200161450660329139878b602001518981518110612fd057612fd0614448565b6130576040518060800160405280604e81526020016144b8604e913988838b61354f565b6040516370a0823160e01b81526001600160a01b038c81166004830152600091908916906370a082319060240160206040518083038186803b15801561309c57600080fd5b505afa1580156130b0573d6000803e3d6000fd5b505050506040513d601f19601f820116820180604052508101906130d49190613cdc565b90506131076040518060400160405280600f81526020016e1d5cd95c88185b5bdd5b9d0e880959608a1b81525082612300565b6131318c8b60200151898151811061312157613121614448565b60200260200101518a858d612d2e565b895180518890811061314557613145614448565b60200260200101516001600160a01b0316731cb017ec34ccd9b808e4f125163807885ab703386001600160a01b03161415613220576000856001600160a01b0316630dfe16816040518163ffffffff1660e01b815260040160206040518083038186803b1580156131b557600080fd5b505afa1580156131c9573d6000803e3d6000fd5b505050506040513d601f19601f820116820180604052508101906131ed919061396a565b905061321e6040518060400160405280600d81526020016c62617365546f6b656e3a20257360981b815250826122b7565b505b83156132c557895180518890811061323a5761323a614448565b60200260200101516001600160a01b0316636f7929f230878d606001518b8151811061326857613268614448565b60200260200101516040518463ffffffff1660e01b815260040161328e93929190613e6a565b600060405180830381600087803b1580156132a857600080fd5b505af11580156132bc573d6000803e3d6000fd5b50505050613360565b89518051889081106132d9576132d9614448565b60200260200101516001600160a01b03166330e6ae3130878d606001518b8151811061330757613307614448565b60200260200101516040518463ffffffff1660e01b815260040161332d93929190613e6a565b600060405180830381600087803b15801561334757600080fd5b505af115801561335b573d6000803e3d6000fd5b505050505b505050505050808061337190614417565b915050612ef1565b505050505050565b613393826001600160a01b0316613598565b6133df5760405162461bcd60e51b815260206004820152601f60248201527f5361666545524332303a2063616c6c20746f206e6f6e2d636f6e7472616374006044820152606401610203565b600080836001600160a01b0316836040516133fa9190613d45565b6000604051808303816000865af19150503d8060008114613437576040519150601f19603f3d011682016040523d82523d6000602084013e61343c565b606091505b50915091508161348e5760405162461bcd60e51b815260206004820181905260248201527f5361666545524332303a206c6f772d6c6576656c2063616c6c206661696c65646044820152606401610203565b80511561280d57808060200190518101906134a99190613987565b61280d5760405162461bcd60e51b815260206004820152602a60248201527f5361666545524332303a204552433230206f7065726174696f6e20646964206e6044820152691bdd081cdd58d8d9595960b21b6064820152608401610203565b6111d983838360405160240161352093929190613f2f565b60408051601f198184030181529190526020810180516001600160e01b031663e3849f7960e01b179052612d0d565b61280d848484846040516024016135699493929190613ed3565b60408051601f198184030181529190526020810180516001600160e01b03166316b0704f60e21b179052612d0d565b6000813f7fc5d2460186f7233c927e7db2dcc703c0e500b653ca82273b7bfad8045d85a4708181148015906135cc57508115155b949350505050565b80356135df81614474565b919050565b600082601f8301126135f557600080fd5b8135602061360a613605836141fb565b6141cb565b80838252828201915082860187848660051b890101111561362a57600080fd5b60005b8581101561365257813561364081614474565b8452928401929084019060010161362d565b5090979650505050505050565b60008083601f84011261367157600080fd5b5081356001600160401b0381111561368857600080fd5b6020830191508360208260051b85010111156136a357600080fd5b9250929050565b600082601f8301126136bb57600080fd5b813560206136cb613605836141fb565b80838252828201915082860187848660051b89010111156136eb57600080fd5b6000805b8681101561372d5782356001600160401b0381111561370c578283fd5b61371a8b88838d01016137e7565b86525093850193918501916001016136ef565b509198975050505050505050565b600082601f83011261374c57600080fd5b8135602061375c613605836141fb565b80838252828201915082860187848660051b890101111561377c57600080fd5b60005b858110156136525781358452928401929084019060010161377f565b80356135df81614489565b60008083601f8401126137b857600080fd5b5081356001600160401b038111156137cf57600080fd5b6020830191508360208285010111156136a357600080fd5b600082601f8301126137f857600080fd5b81356001600160401b038111156138115761381161445e565b613824601f8201601f19166020016141cb565b81815284602083860101111561383957600080fd5b816020850160208301376000918101602001919091529392505050565b600060a0828403121561386857600080fd5b50919050565b6000610140828403121561388157600080fd5b613889614180565b90508135815261389b602083016135d4565b60208201526138ac604083016135d4565b60408201526138bd606083016135d4565b60608201526080820135608082015260a082013560a082015260c082013560c082015260e082013560e08201526101006138f881840161379b565b90820152610120828101356001600160401b0381111561391757600080fd5b613923858286016137e7565b82840152505092915050565b80516001600160701b03811681146135df57600080fd5b60006020828403121561395857600080fd5b813561396381614474565b9392505050565b60006020828403121561397c57600080fd5b815161396381614474565b60006020828403121561399957600080fd5b815161396381614489565b6000806000806000608086880312156139bc57600080fd5b85356139c781614474565b9450602086013593506040860135925060608601356001600160401b038111156139f057600080fd5b6139fc8882890161365f565b969995985093965092949392505050565b600080600080600080600060a0888a031215613a2857600080fd5b8735613a3381614474565b9650602088013595506040880135945060608801356001600160401b0380821115613a5d57600080fd5b613a698b838c0161365f565b909650945060808a0135915080821115613a8257600080fd5b50613a8f8a828b016137a6565b989b979a50959850939692959293505050565b6000806000806000806000610100888a031215613abe57600080fd5b613ac88989613856565b965060a08801356001600160401b0380821115613ae457600080fd5b613af08b838c0161365f565b909850965060c08a0135915080821115613b0957600080fd5b613b158b838c0161365f565b909650945060e08a0135915080821115613b2e57600080fd5b50613a8f8a828b0161365f565b60008060008060008060008060006101208a8c031215613b5a57600080fd5b613b648b8b613856565b985060a08a01356001600160401b0380821115613b8057600080fd5b613b8c8d838e0161365f565b909a50985060c08c0135915080821115613ba557600080fd5b613bb18d838e0161365f565b909850965060e08c0135915080821115613bca57600080fd5b613bd68d838e0161365f565b90965094506101008c0135915080821115613bf057600080fd5b50613bfd8c828d016137a6565b915080935050809150509295985092959850929598565b600060a08284031215613c2657600080fd5b60405160a081018181106001600160401b0382111715613c4857613c4861445e565b604052823581526020830135613c5d81614474565b806020830152506040830135604082015260608301356060820152608083013560808201528091505092915050565b600080600060608486031215613ca157600080fd5b613caa8461392f565b9250613cb86020850161392f565b9150604084015163ffffffff81168114613cd157600080fd5b809150509250925092565b600060208284031215613cee57600080fd5b5051919050565b60008151808452613d0d8160208601602086016143d4565b601f01601f19169290920160200192915050565b6001600160e01b031984168152818360048301376000910160040190815292915050565b60008251613d578184602087016143d4565b9190910192915050565b60008351613d738184602088016143d4565b650a0c2dcd2c6560d31b9083019081528351613d968160068401602088016143d4565b602960f81b60069290910191820152600701949350505050565b60008351613dc28184602088016143d4565b670aadcd6dcdeeedc560c31b9083019081528351613de78160088401602088016143d4565b602960f81b60089290910191820152600901949350505050565b60008351613e138184602088016143d4565b6508ae4e4dee4560d31b9083019081528351613d968160068401602088016143d4565b6001600160a01b03958616815293851660208501529190931660408301526060820192909252608081019190915260a00190565b6001600160a01b0384811682528316602082015260606040820181905260009061074d90830184613cf5565b6020815260006139636020830184613cf5565b604081526000613ebc6040830185613cf5565b905060018060a01b03831660208301529392505050565b608081526000613ee66080830187613cf5565b6001600160a01b039590951660208301525060408101929092521515606090910152919050565b604081526000613f206040830185613cf5565b90508260208301529392505050565b606081526000613f426060830186613cf5565b6020830194909452506001600160a01b0391909116604090910152919050565b6020808252818101527f4f776e61626c653a2063616c6c6572206973206e6f7420746865206f776e6572604082015260600190565b6020808252602b908201527f496e697469616c697a61626c653a20636f6e7472616374206973206e6f74206960408201526a6e697469616c697a696e6760a81b606082015260800190565b6020808252601f908201527f5265656e7472616e637947756172643a207265656e7472616e742063616c6c00604082015260600190565b60208152815160208201526000602083015161404060408401826001600160a01b03169052565b5060408301516001600160a01b03811660608401525060608301516001600160a01b038116608084015250608083015160a083015260a083015160c083015260c083015160e083015260e08301516101008181850152808501519150506101206140ad8185018315159052565b8401516101408481015290506135cc610160840182613cf5565b97885260208801969096526001600160a01b03948516604088015292841660608701529216608085015260a084019190915260c083015260e08201526101000190565b6000808335601e1984360301811261412157600080fd5b8301803591506001600160401b0382111561413b57600080fd5b6020019150600581901b36038213156136a357600080fd5b6000823561013e19833603018112613d5757600080fd5b60008235609e19833603018112613d5757600080fd5b60405161014081016001600160401b03811182821017156141a3576141a361445e565b60405290565b60405160a081016001600160401b03811182821017156141a3576141a361445e565b604051601f8201601f191681016001600160401b03811182821017156141f3576141f361445e565b604052919050565b60006001600160401b038211156142145761421461445e565b5060051b60200190565b6000821982111561423157614231614432565b500190565b60008261425357634e487b7160e01b600052601260045260246000fd5b500490565b600081600019048311821515161561427257614272614432565b500290565b60008282101561428957614289614432565b500390565b600061429c613605846141fb565b808482526020808301925084368760051b870111156142ba57600080fd5b6000805b888110156142fa5782356001600160401b038111156142db578283fd5b6142e736828b0161386e565b87525094830194918301916001016142be565b5092979650505050505050565b60006121b2368361386e565b600060a0823603121561432557600080fd5b61432d6141a9565b82356001600160401b038082111561434457600080fd5b614350368387016135e4565b8352602085013591508082111561436657600080fd5b614372368387016135e4565b6020840152604085013591508082111561438b57600080fd5b6143973683870161373b565b604084015260608501359150808211156143b057600080fd5b506143bd368286016136aa565b606083015250608092830135928101929092525090565b60005b838110156143ef5781810151838201526020016143d7565b8381111561280d5750506000910152565b60008161440f5761440f614432565b506000190190565b600060001982141561442b5761442b614432565b5060010190565b634e487b7160e01b600052601160045260246000fd5b634e487b7160e01b600052603260045260246000fd5b634e487b7160e01b600052604160045260246000fd5b6001600160a01b03811681146106bf57600080fd5b80151581146106bf57600080fdfe000000000000000000000000bb4cdb9cbd36b01bd1cbaebf2de08d9173bc095c205f7472616e73666572496e7465726e616c20636865636b203a2066726f6d546f6b656e3a2025732c205f66726f6d546f6b656e416d6f756e743a2025642c2069734e6f7446697273743a202573693a2025642c205f7472616e73666572496e7465726e616c20636865636b203a20706174682e6173736574546f5b695d3a20693a2025642c205f7472616e73666572496e7465726e616c20636865636b203a20706174682e6d697841646170746572735b695d3a20693a2025642c205f7472616e73666572496e7465726e616c20636865636b203a2070617965723a2025736c6f63616c42617365526571756573742e66726f6d546f6b656e416d6f756e743a2025641bb43f2da90e35f7b0cf38521ca95a49e68eb42fac49924930a5bd73cdf7576ca26469706673582212205c1b3a517a44c1bde54471687446f34c83cb653ad6d70a5b94482db04fa6f78764736f6c63430008060033",
  "linkReferences": {},
  "deployedLinkReferences": {}
}