{
  "_format": "hh-sol-artifact-1",
  "contractName": "XBridge",
  "sourceName": "contracts/XBridge.sol",
  "abi": [
    {
      "anonymous": false,
      "inputs": [
        {
          "indexed": false,
          "internalType": "address",
          "name": "_newAdmin",
          "type": "address"
        }
      ],
      "name": "AdminChanged",
      "type": "event"
    },
    {
      "anonymous": false,
      "inputs": [
        {
          "indexed": false,
          "internalType": "address",
          "name": "_approveProxy",
          "type": "address"
        }
      ],
      "name": "ApproveProxyChanged",
      "type": "event"
    },
    {
      "anonymous": false,
      "inputs": [
        {
          "indexed": false,
          "internalType": "address",
          "name": "to",
          "type": "address"
        },
        {
          "indexed": false,
          "internalType": "address",
          "name": "fromToken",
          "type": "address"
        },
        {
          "indexed": false,
          "internalType": "address",
          "name": "toToken",
          "type": "address"
        },
        {
          "indexed": false,
          "internalType": "uint256",
          "name": "fromTokenAmount",
          "type": "uint256"
        },
        {
          "indexed": false,
          "internalType": "uint256",
          "name": "toTokenAmount",
          "type": "uint256"
        },
        {
          "indexed": false,
          "internalType": "uint256",
          "name": "gasFeeAmount",
          "type": "uint256"
        },
        {
          "indexed": false,
          "internalType": "bytes",
          "name": "errInfo",
          "type": "bytes"
        },
        {
          "indexed": false,
          "internalType": "bytes32[]",
          "name": "ext",
          "type": "bytes32[]"
        }
      ],
      "name": "Claimed",
      "type": "event"
    },
    {
      "anonymous": false,
      "inputs": [
        {
          "indexed": false,
          "internalType": "address",
          "name": "_dexRouter",
          "type": "address"
        }
      ],
      "name": "DexRouterChanged",
      "type": "event"
    },
    {
      "anonymous": false,
      "inputs": [
        {
          "indexed": false,
          "internalType": "address",
          "name": "_feeTo",
          "type": "address"
        }
      ],
      "name": "FeeToChanged",
      "type": "event"
    },
    {
      "anonymous": false,
      "inputs": [
        {
          "indexed": false,
          "internalType": "address",
          "name": "to",
          "type": "address"
        },
        {
          "indexed": false,
          "internalType": "uint256",
          "name": "amount",
          "type": "uint256"
        },
        {
          "indexed": false,
          "internalType": "bytes32[]",
          "name": "ext",
          "type": "bytes32[]"
        }
      ],
      "name": "GasTokenReceived",
      "type": "event"
    },
    {
      "anonymous": false,
      "inputs": [
        {
          "indexed": false,
          "internalType": "uint8",
          "name": "version",
          "type": "uint8"
        }
      ],
      "name": "Initialized",
      "type": "event"
    },
    {
      "anonymous": false,
      "inputs": [
        {
          "indexed": true,
          "internalType": "uint256",
          "name": "_adaptorId",
          "type": "uint256"
        },
        {
          "indexed": false,
          "internalType": "address",
          "name": "_from",
          "type": "address"
        },
        {
          "indexed": false,
          "internalType": "address",
          "name": "_to",
          "type": "address"
        },
        {
          "indexed": false,
          "internalType": "address",
          "name": "_token",
          "type": "address"
        },
        {
          "indexed": false,
          "internalType": "uint256",
          "name": "_amount",
          "type": "uint256"
        },
        {
          "indexed": false,
          "internalType": "uint256",
          "name": "_receiveFee",
          "type": "uint256"
        },
        {
          "indexed": false,
          "internalType": "bytes32[]",
          "name": "ext",
          "type": "bytes32[]"
        }
      ],
      "name": "LogBridgeTo",
      "type": "event"
    },
    {
      "anonymous": false,
      "inputs": [
        {
          "indexed": true,
          "internalType": "uint256",
          "name": "_adaptorId",
          "type": "uint256"
        },
        {
          "indexed": false,
          "internalType": "address",
          "name": "_from",
          "type": "address"
        },
        {
          "indexed": false,
          "internalType": "address",
          "name": "_to",
          "type": "address"
        },
        {
          "indexed": false,
          "internalType": "address",
          "name": "_fromToken",
          "type": "address"
        },
        {
          "indexed": false,
          "internalType": "uint256",
          "name": "_fromAmount",
          "type": "uint256"
        },
        {
          "indexed": false,
          "internalType": "address",
          "name": "_toToken",
          "type": "address"
        },
        {
          "indexed": false,
          "internalType": "uint256",
          "name": "_toAmount",
          "type": "uint256"
        },
        {
          "indexed": false,
          "internalType": "uint256",
          "name": "_receiveFee",
          "type": "uint256"
        },
        {
          "indexed": false,
          "internalType": "bytes32[]",
          "name": "ext",
          "type": "bytes32[]"
        }
      ],
      "name": "LogSwapAndBridgeTo",
      "type": "event"
    },
    {
      "anonymous": false,
      "inputs": [
        {
          "indexed": true,
          "internalType": "address",
          "name": "previousOwner",
          "type": "address"
        },
        {
          "indexed": true,
          "internalType": "address",
          "name": "newOwner",
          "type": "address"
        }
      ],
      "name": "OwnershipTransferred",
      "type": "event"
    },
    {
      "anonymous": false,
      "inputs": [
        {
          "indexed": false,
          "internalType": "address",
          "name": "account",
          "type": "address"
        }
      ],
      "name": "Paused",
      "type": "event"
    },
    {
      "anonymous": false,
      "inputs": [
        {
          "indexed": false,
          "internalType": "address",
          "name": "account",
          "type": "address"
        }
      ],
      "name": "Unpaused",
      "type": "event"
    },
    {
      "inputs": [
        {
          "internalType": "uint256",
          "name": "",
          "type": "uint256"
        }
      ],
      "name": "adaptorInfo",
      "outputs": [
        {
          "internalType": "address",
          "name": "",
          "type": "address"
        }
      ],
      "stateMutability": "view",
      "type": "function"
    },
    {
      "inputs": [],
      "name": "admin",
      "outputs": [
        {
          "internalType": "address",
          "name": "",
          "type": "address"
        }
      ],
      "stateMutability": "view",
      "type": "function"
    },
    {
      "inputs": [],
      "name": "approveProxy",
      "outputs": [
        {
          "internalType": "address",
          "name": "",
          "type": "address"
        }
      ],
      "stateMutability": "view",
      "type": "function"
    },
    {
      "inputs": [
        {
          "components": [
            {
              "internalType": "uint256",
              "name": "adaptorId",
              "type": "uint256"
            },
            {
              "internalType": "address",
              "name": "to",
              "type": "address"
            },
            {
              "internalType": "address",
              "name": "token",
              "type": "address"
            },
            {
              "internalType": "uint256",
              "name": "toChainId",
              "type": "uint256"
            },
            {
              "internalType": "uint256",
              "name": "amount",
              "type": "uint256"
            },
            {
              "internalType": "bytes",
              "name": "data",
              "type": "bytes"
            }
          ],
          "internalType": "struct XBridge.BridgeRequest",
          "name": "_request",
          "type": "tuple"
        }
      ],
      "name": "bridgeTo",
      "outputs": [],
      "stateMutability": "payable",
      "type": "function"
    },
    {
      "inputs": [
        {
          "components": [
            {
              "internalType": "address",
              "name": "fromToken",
              "type": "address"
            },
            {
              "internalType": "address",
              "name": "toToken",
              "type": "address"
            },
            {
              "internalType": "address",
              "name": "to",
              "type": "address"
            },
            {
              "internalType": "uint256",
              "name": "amount",
              "type": "uint256"
            },
            {
              "internalType": "uint256",
              "name": "gasFeeAmount",
              "type": "uint256"
            },
            {
              "internalType": "uint256",
              "name": "srcChainId",
              "type": "uint256"
            },
            {
              "internalType": "bytes32",
              "name": "srcTxHash",
              "type": "bytes32"
            },
            {
              "internalType": "bytes",
              "name": "dexData",
              "type": "bytes"
            },
            {
              "internalType": "bytes",
              "name": "extData",
              "type": "bytes"
            }
          ],
          "internalType": "struct XBridge.SwapRequest",
          "name": "_request",
          "type": "tuple"
        }
      ],
      "name": "claim",
      "outputs": [],
      "stateMutability": "nonpayable",
      "type": "function"
    },
    {
      "inputs": [],
      "name": "dexRouter",
      "outputs": [
        {
          "internalType": "address",
          "name": "",
          "type": "address"
        }
      ],
      "stateMutability": "view",
      "type": "function"
    },
    {
      "inputs": [],
      "name": "feeTo",
      "outputs": [
        {
          "internalType": "address",
          "name": "",
          "type": "address"
        }
      ],
      "stateMutability": "view",
      "type": "function"
    },
    {
      "inputs": [],
      "name": "initialize",
      "outputs": [],
      "stateMutability": "nonpayable",
      "type": "function"
    },
    {
      "inputs": [
        {
          "internalType": "address",
          "name": "",
          "type": "address"
        }
      ],
      "name": "mpc",
      "outputs": [
        {
          "internalType": "bool",
          "name": "",
          "type": "bool"
        }
      ],
      "stateMutability": "view",
      "type": "function"
    },
    {
      "inputs": [],
      "name": "owner",
      "outputs": [
        {
          "internalType": "address",
          "name": "",
          "type": "address"
        }
      ],
      "stateMutability": "view",
      "type": "function"
    },
    {
      "inputs": [
        {
          "internalType": "uint256",
          "name": "",
          "type": "uint256"
        },
        {
          "internalType": "bytes32",
          "name": "",
          "type": "bytes32"
        }
      ],
      "name": "paidTx",
      "outputs": [
        {
          "internalType": "bool",
          "name": "",
          "type": "bool"
        }
      ],
      "stateMutability": "view",
      "type": "function"
    },
    {
      "inputs": [],
      "name": "pause",
      "outputs": [],
      "stateMutability": "nonpayable",
      "type": "function"
    },
    {
      "inputs": [],
      "name": "paused",
      "outputs": [
        {
          "internalType": "bool",
          "name": "",
          "type": "bool"
        }
      ],
      "stateMutability": "view",
      "type": "function"
    },
    {
      "inputs": [],
      "name": "payer",
      "outputs": [
        {
          "internalType": "address",
          "name": "",
          "type": "address"
        }
      ],
      "stateMutability": "view",
      "type": "function"
    },
    {
      "inputs": [],
      "name": "payerReceiver",
      "outputs": [
        {
          "internalType": "address",
          "name": "",
          "type": "address"
        },
        {
          "internalType": "address",
          "name": "",
          "type": "address"
        }
      ],
      "stateMutability": "view",
      "type": "function"
    },
    {
      "inputs": [
        {
          "components": [
            {
              "internalType": "address",
              "name": "to",
              "type": "address"
            },
            {
              "internalType": "uint256",
              "name": "amount",
              "type": "uint256"
            },
            {
              "internalType": "uint256",
              "name": "srcChainId",
              "type": "uint256"
            },
            {
              "internalType": "bytes32",
              "name": "srcTxHash",
              "type": "bytes32"
            },
            {
              "internalType": "bytes",
              "name": "extData",
              "type": "bytes"
            }
          ],
          "internalType": "struct XBridge.ReceiveGasRequest",
          "name": "_request",
          "type": "tuple"
        }
      ],
      "name": "receiveGasToken",
      "outputs": [],
      "stateMutability": "nonpayable",
      "type": "function"
    },
    {
      "inputs": [
        {
          "internalType": "uint256",
          "name": "",
          "type": "uint256"
        },
        {
          "internalType": "bytes32",
          "name": "",
          "type": "bytes32"
        }
      ],
      "name": "receiveGasTx",
      "outputs": [
        {
          "internalType": "bool",
          "name": "",
          "type": "bool"
        }
      ],
      "stateMutability": "view",
      "type": "function"
    },
    {
      "inputs": [],
      "name": "receiver",
      "outputs": [
        {
          "internalType": "address",
          "name": "",
          "type": "address"
        }
      ],
      "stateMutability": "view",
      "type": "function"
    },
    {
      "inputs": [],
      "name": "renounceOwnership",
      "outputs": [],
      "stateMutability": "nonpayable",
      "type": "function"
    },
    {
      "inputs": [
        {
          "internalType": "uint256[]",
          "name": "_ids",
          "type": "uint256[]"
        },
        {
          "internalType": "address[]",
          "name": "_adaptors",
          "type": "address[]"
        }
      ],
      "name": "setAdaptors",
      "outputs": [],
      "stateMutability": "nonpayable",
      "type": "function"
    },
    {
      "inputs": [
        {
          "internalType": "address",
          "name": "_newAdmin",
          "type": "address"
        }
      ],
      "name": "setAdmin",
      "outputs": [],
      "stateMutability": "nonpayable",
      "type": "function"
    },
    {
      "inputs": [
        {
          "internalType": "address",
          "name": "_newApproveProxy",
          "type": "address"
        }
      ],
      "name": "setApproveProxy",
      "outputs": [],
      "stateMutability": "nonpayable",
      "type": "function"
    },
    {
      "inputs": [
        {
          "internalType": "address",
          "name": "_newDexRouter",
          "type": "address"
        }
      ],
      "name": "setDexRouter",
      "outputs": [],
      "stateMutability": "nonpayable",
      "type": "function"
    },
    {
      "inputs": [
        {
          "internalType": "address",
          "name": "_newFeeTo",
          "type": "address"
        }
      ],
      "name": "setFeeTo",
      "outputs": [],
      "stateMutability": "nonpayable",
      "type": "function"
    },
    {
      "inputs": [
        {
          "internalType": "address[]",
          "name": "mpcList",
          "type": "address[]"
        },
        {
          "internalType": "bool[]",
          "name": "v",
          "type": "bool[]"
        }
      ],
      "name": "setMpc",
      "outputs": [],
      "stateMutability": "nonpayable",
      "type": "function"
    },
    {
      "inputs": [
        {
          "components": [
            {
              "internalType": "address",
              "name": "fromToken",
              "type": "address"
            },
            {
              "internalType": "address",
              "name": "toToken",
              "type": "address"
            },
            {
              "internalType": "address",
              "name": "to",
              "type": "address"
            },
            {
              "internalType": "uint256",
              "name": "adaptorId",
              "type": "uint256"
            },
            {
              "internalType": "uint256",
              "name": "toChainId",
              "type": "uint256"
            },
            {
              "internalType": "uint256",
              "name": "fromTokenAmount",
              "type": "uint256"
            },
            {
              "internalType": "uint256",
              "name": "toTokenMinAmount",
              "type": "uint256"
            },
            {
              "internalType": "uint256",
              "name": "toChainToTokenMinAmount",
              "type": "uint256"
            },
            {
              "internalType": "bytes",
              "name": "data",
              "type": "bytes"
            },
            {
              "internalType": "bytes",
              "name": "dexData",
              "type": "bytes"
            }
          ],
          "internalType": "struct XBridge.SwapAndBridgeRequest",
          "name": "_request",
          "type": "tuple"
        }
      ],
      "name": "swapAndBridgeToImprove",
      "outputs": [],
      "stateMutability": "payable",
      "type": "function"
    },
    {
      "inputs": [
        {
          "components": [
            {
              "internalType": "address",
              "name": "fromToken",
              "type": "address"
            },
            {
              "internalType": "address",
              "name": "toToken",
              "type": "address"
            },
            {
              "internalType": "address",
              "name": "to",
              "type": "address"
            },
            {
              "internalType": "uint256",
              "name": "adaptorId",
              "type": "uint256"
            },
            {
              "internalType": "uint256",
              "name": "toChainId",
              "type": "uint256"
            },
            {
              "internalType": "uint256",
              "name": "fromTokenAmount",
              "type": "uint256"
            },
            {
              "internalType": "uint256",
              "name": "toTokenMinAmount",
              "type": "uint256"
            },
            {
              "internalType": "uint256",
              "name": "toChainToTokenMinAmount",
              "type": "uint256"
            },
            {
              "internalType": "bytes",
              "name": "data",
              "type": "bytes"
            },
            {
              "internalType": "bytes",
              "name": "dexData",
              "type": "bytes"
            }
          ],
          "internalType": "struct XBridge.SwapAndBridgeRequest",
          "name": "_request",
          "type": "tuple"
        },
        {
          "internalType": "bytes",
          "name": "permit",
          "type": "bytes"
        }
      ],
      "name": "swapAndBridgeToImproveWithPermit",
      "outputs": [],
      "stateMutability": "payable",
      "type": "function"
    },
    {
      "inputs": [
        {
          "internalType": "address",
          "name": "newOwner",
          "type": "address"
        }
      ],
      "name": "transferOwnership",
      "outputs": [],
      "stateMutability": "nonpayable",
      "type": "function"
    },
    {
      "inputs": [],
      "name": "unpause",
      "outputs": [],
      "stateMutability": "nonpayable",
      "type": "function"
    },
    {
      "stateMutability": "payable",
      "type": "receive"
    }
  ],
  "bytecode": "0x60806040523480156200001157600080fd5b5061bc0980620000226000396000f3fe6080604052600436106101c55760003560e01c806381a52222116100f7578063be75ddac11610095578063f46901ed11610064578063f46901ed146105c2578063f7260d3e146105eb578063f72f863b14610616578063f851a4401461063f576101cc565b8063be75ddac146104f4578063cea8ef5c14610531578063f2fde38b1461056e578063f3dced3c14610597576101cc565b80638e8920e3116100d15780638e8920e31461043c578063aa0bd4de14610465578063aad0ae5b1461048e578063aeee23c4146104b7576101cc565b806381a52222146103bd5780638456cb59146103fa5780638da5cb5b14610411576101cc565b80633eee9156116101645780635c975abb1161013e5780635c975abb1461033b578063704b6c0214610366578063715018a61461038f5780638129fc1c146103a6576101cc565b80633eee9156146102cf5780633f4ba83a146102f8578063534015b31461030f576101cc565b80630b79b72b116101a05780630b79b72b14610250578063123119cd1461026c5780631543128e14610297578063238105e3146102b3576101cc565b80621a9f62146101d1578063017e7e58146101fa5780630758d92414610225576101cc565b366101cc57005b600080fd5b3480156101dd57600080fd5b506101f860048036038101906101f3919061a54d565b61066a565b005b34801561020657600080fd5b5061020f6109c6565b60405161021c919061ae01565b60405180910390f35b34801561023157600080fd5b5061023a6109ec565b604051610247919061ae01565b60405180910390f35b61026a6004803603810190610265919061a705565b610a12565b005b34801561027857600080fd5b50610281610bc0565b60405161028e919061ae01565b60405180910390f35b6102b160048036038101906102ac919061a673565b610be6565b005b6102cd60048036038101906102c8919061a781565b611b0d565b005b3480156102db57600080fd5b506102f660048036038101906102f1919061a7ca565b611c3b565b005b34801561030457600080fd5b5061030d61337b565b005b34801561031b57600080fd5b506103246135da565b60405161033292919061ae1c565b60405180910390f35b34801561034757600080fd5b506103506136af565b60405161035d919061b16c565b60405180910390f35b34801561037257600080fd5b5061038d6004803603810190610388919061a4f3565b6136c6565b005b34801561039b57600080fd5b506103a46139f2565b005b3480156103b257600080fd5b506103bb613a7a565b005b3480156103c957600080fd5b506103e460048036038101906103df919061a4f3565b613ceb565b6040516103f1919061b16c565b60405180910390f35b34801561040657600080fd5b5061040f613d0b565b005b34801561041d57600080fd5b50610426613f6a565b604051610433919061ae01565b60405180910390f35b34801561044857600080fd5b50610463600480360381019061045e919061a6bc565b613f94565b005b34801561047157600080fd5b5061048c6004803603810190610487919061a5c5565b61466b565b005b34801561049a57600080fd5b506104b560048036038101906104b0919061a4f3565b614b03565b005b3480156104c357600080fd5b506104de60048036038101906104d9919061a86d565b614f84565b6040516104eb919061b16c565b60405180910390f35b34801561050057600080fd5b5061051b6004803603810190610516919061a86d565b614fb3565b604051610528919061b16c565b60405180910390f35b34801561053d57600080fd5b506105586004803603810190610553919061a813565b614fe2565b604051610565919061ae01565b60405180910390f35b34801561057a57600080fd5b506105956004803603810190610590919061a4f3565b615015565b005b3480156105a357600080fd5b506105ac61510d565b6040516105b9919061ae01565b60405180910390f35b3480156105ce57600080fd5b506105e960048036038101906105e4919061a4f3565b615133565b005b3480156105f757600080fd5b506106006155b4565b60405161060d919061ae01565b60405180910390f35b34801561062257600080fd5b5061063d6004803603810190610638919061a4f3565b6155da565b005b34801561064b57600080fd5b50610654615a5b565b604051610661919061ae01565b60405180910390f35b6106967f20c43a6f8d5ea1d9c53b0479d3cb7b913d36b8dee395b13db04968eeb79062d760001b615a81565b6106c27fa8b0f661c15332d26d3a84d28d14a98f341c8ac354b8495cca0702282cb5e46e60001b615a81565b6106ee7f26f549f737d10e71d7df6d514d18dafe5e36d5929f15ed748007372c38e7cf6660001b615a81565b61071a7fa4b400be45d2db7a2fb639251d1a3d8a64bdb52c4f34c23e080d2a8b9e9c89ab60001b615a81565b60cf60009054906101000a900473ffffffffffffffffffffffffffffffffffffffff1673ffffffffffffffffffffffffffffffffffffffff163373ffffffffffffffffffffffffffffffffffffffff16146040518060400160405280600a81526020017f6f6e6c792061646d696e00000000000000000000000000000000000000000000815250906107e2576040517f08c379a00000000000000000000000000000000000000000000000000000000081526004016107d9919061b1a2565b60405180910390fd5b5061080f7f11710efd2276911a9ac5d08c057f364ac657f096ade2e3bc639d46aa6c489e4b60001b615a81565b61083b7feb6f53284e8746e2c8ddace8eceafb5610a81110cd586d46e0dc1237107582d060001b615a81565b6108677f32f4626ea917905145bb2e84b0f2434dfbd23afc0d968893a07d4599ffc1ba4a60001b615a81565b6108937f4379b497e7f24136a767e79ff07269fd9d5ffb3e63d75eaabfcfb2422bbe610f60001b615a81565b6108bf7f01193c00bc43fc5da46b840e9d8cd21e46878c6a11e320abe8ef31d05235c78a60001b615a81565b60005b82518110156109c1576108f77f3138d654c88c058c50fceb8924a1df94d80754cab0ebe003c30bd20c68d4749060001b615a81565b6109237f7b7cd878c8fcbb06cc1af130919bb1e91aaf5f6b138a65b0fb4e58aaa5c8318960001b615a81565b8181815181106109365761093561b73e565b5b602002602001015160d060008584815181106109555761095461b73e565b5b602002602001015173ffffffffffffffffffffffffffffffffffffffff1673ffffffffffffffffffffffffffffffffffffffff16815260200190815260200160002060006101000a81548160ff02191690831515021790555080806109b99061b6b2565b9150506108c2565b505050565b60ce60009054906101000a900473ffffffffffffffffffffffffffffffffffffffff1681565b60cb60009054906101000a900473ffffffffffffffffffffffffffffffffffffffff1681565b60026097541415610a58576040517f08c379a0000000000000000000000000000000000000000000000000000000008152600401610a4f9061b324565b60405180910390fd5b6002609781905550610a686136af565b15610aa8576040517f08c379a0000000000000000000000000000000000000000000000000000000008152600401610a9f9061b224565b60405180910390fd5b610ad47f6730d75ac8e2cf39b74efe1c65a65d141b31bfb4d3c678cdbcb16f27d47ba29060001b615a81565b610b007f18eb6a46b021a726a6ec3e1f29af6cc431ed53c648f0c732b90a98f2a1446b2b60001b615a81565b610b2c7ffd3c5c4ad4c28780fab9af7fd079daf9c59a01e94a15e08fa4cfc0222a012f6f60001b615a81565b610b49836000016020810190610b42919061a4f3565b8383615a84565b610b757f551b73aaaaa338bbb6fa56c5b203c56b3de35a18ecfd62744156d4618f23c2a660001b615a81565b610ba17f1a2dca4dfb72e4d7bef31b5cefb37dafcfc7ce8183a84b697b706c1e5ab2aa8060001b615a81565b610bb383610bae9061b62c565b616184565b6001609781905550505050565b60cc60009054906101000a900473ffffffffffffffffffffffffffffffffffffffff1681565b60026097541415610c2c576040517f08c379a0000000000000000000000000000000000000000000000000000000008152600401610c239061b324565b60405180910390fd5b6002609781905550610c3c6136af565b15610c7c576040517f08c379a0000000000000000000000000000000000000000000000000000000008152600401610c739061b224565b60405180910390fd5b610ca87f7f98ddbd07ae78b9c50556ce6d7f76b8241535a9e2d59ca5e58097ed5588ffae60001b615a81565b610cd47f0378282801fce543168e2cda375c06662812fcaeff03e3c1c14ea2d3aaa892bd60001b615a81565b610d007f22d1a28bd13d304140a31ce549d9a04f310eaa624256f75abfe8f348229a8c5460001b615a81565b610d2c7f0f24716cd43e09c5833f10b0717492585a7ccf995d50c83e45b54c08476337be60001b615a81565b6000816000015114156040518060400160405280601181526020017f696e76616c69642061646170746f72494400000000000000000000000000000081525090610dac576040517f08c379a0000000000000000000000000000000000000000000000000000000008152600401610da3919061b1a2565b60405180910390fd5b50610dd97f11e365121f5be17d2f2d98e91accaf1fe3198e7f0a89e7b0dea068780ba7302a60001b615a81565b610e057f1e374290cabdfe75c6ffc0ae7d370147a13b73abda6ae0453f2dc08b8d72415e60001b615a81565b610e317f6fadb3c62d4051c585b109287b58687c286c1e6fea5faccab060d1195018759860001b615a81565b600060c960008360000151815260200190815260200160002060009054906101000a900473ffffffffffffffffffffffffffffffffffffffff169050610e997f5bbb411f91d17fd4da27c148602ec6cb7b1837c02a956b12c2b68a4985f5757a60001b615a81565b610ec57f7c12b69b23648b7c58c242c23061f456c320479ee4e85a3dd641dbbb6fad7d2460001b615a81565b610ef17f3c6a962b2c902eab520ace10ba391103f6194d6feb59986580e0bd2543bb320c60001b615a81565b600073ffffffffffffffffffffffffffffffffffffffff168173ffffffffffffffffffffffffffffffffffffffff1614156040518060400160405280601781526020017f696e76616c69642061646170746f72206164647265737300000000000000000081525090610f99576040517f08c379a0000000000000000000000000000000000000000000000000000000008152600401610f90919061b1a2565b60405180910390fd5b50610fc67f6d9a857341fea56913504a4cdf5f133fc19491133cd08a21c2d5f9055e561e1a60001b615a81565b610ff27f80b37d73fc23fd775f91d9ac11b526c6a29bc526ddeb8e5c271ee0d3e37cd3d260001b615a81565b61101e7f449cedd78a83e4efd1b207f2bd592da9205ddbc9ad0117f2cb3f548959891c6a60001b615a81565b61104a7f0e544700b5cfa67774b47fc8027a8bce1401229a65a93ebc7ae6bb4a285cf14460001b615a81565b600073ffffffffffffffffffffffffffffffffffffffff16826020015173ffffffffffffffffffffffffffffffffffffffff1614156040518060400160405280600981526020017f6164647265737320300000000000000000000000000000000000000000000000815250906110f6576040517f08c379a00000000000000000000000000000000000000000000000000000000081526004016110ed919061b1a2565b60405180910390fd5b506111237f8ba73d1db7f4f1bed4929ab7d200eab9b85102ec354c82b7aab6b2682a2a410560001b615a81565b61114f7f0fffb997f81325ecb7c8d94024c9a6a341741cf338a183ba9d1af18926382a1160001b615a81565b61117b7f5c7e6e121063b4fc7ea187548a544c1bf7d8cf440d6dbdf459ae25aaeb7a28bb60001b615a81565b6111a77f62458e3d360d563d5b2c7f9d69ad3155901652eb48dc63d3eaa868666780edf860001b615a81565b600073ffffffffffffffffffffffffffffffffffffffff16826040015173ffffffffffffffffffffffffffffffffffffffff1614156040518060400160405280600981526020017f616464726573732030000000000000000000000000000000000000000000000081525090611253576040517f08c379a000000000000000000000000000000000000000000000000000000000815260040161124a919061b1a2565b60405180910390fd5b506112807f4a333cb1024ab50813252961ba40789db116b8d0476c67683155bae87510047260001b615a81565b6112ac7f0ab04cca80fc760fd9bb39603641dddd708a4d4a741ef83cd6fffcc7b09566ab60001b615a81565b6112d87ff9398ba3938bf4399a2a02283ee014e1b20c4eef1fe6477f34670d207d77061060001b615a81565b60003490506113097fa854bb9587f1edc5fa9fdd8b9cd39873b45553290713f31b6d1f03353b516d9060001b615a81565b6113357fb0338fa3ca4cf0d6c45a55d3ee29c7153d1e954e536fd33da6f107f10e46de2760001b615a81565b6000806113458560600151617c85565b915091506113757f47a02f3b0a308f6fb61b8884ff61e4c25cb55a344c9b7dcb9fb7c6361c6a155760001b615a81565b6113a17f3f1e80ae1ad3e6cde2fc31fc463a896afe83f8b73d2177c3d82e475c69a1777360001b615a81565b73eeeeeeeeeeeeeeeeeeeeeeeeeeeeeeeeeeeeeeee73ffffffffffffffffffffffffffffffffffffffff16856040015173ffffffffffffffffffffffffffffffffffffffff161415611737576114197f6d8104f19f5c36d8e657f198c53f7209073db5fd980e932585381ae7efe02d8360001b615a81565b6114457f76e3cfa0109549f4f1879af93b7010b09356a95c449c80e60dc9fea22a6c597f60001b615a81565b6114717f7a357ec3760f4315938d67d34a557546d9746225935d3b39bf8ce31b3667340c60001b615a81565b61149d7f4363111c66be23e175cd50993ee713448e4782e5bcbe7e20824100a74f86077260001b615a81565b8185608001516114ad919061b499565b34146040518060400160405280601181526020017f696e76616c6964206d73672076616c756500000000000000000000000000000081525090611526576040517f08c379a000000000000000000000000000000000000000000000000000000000815260040161151d919061b1a2565b60405180910390fd5b506115537fe7a995b397c3ce5943e117b5bdc62b30b38d86397f181a5f7d2d2edfba847ee360001b615a81565b61157f7fbaf0dcc6d17048c9c2d676f3bbd47bb670b68ac9f27e8055af8416395e440d9360001b615a81565b6115ab7f1b9415301b1d569aeb17383c9d037dec5e65aa1155dd85f953aea667d8cc70cb60001b615a81565b846080015192506115de7fc9ba9f3225652d74638e9dc512da1cd5ac106a0971b316012e26ac69baa1ac9e60001b615a81565b61160a7f6e89c2866c3ce8d13583edd4c3d75abf2a5eafb1147cc17684ccef33b53a178960001b615a81565b60008211156117055761163f7f6bbae5122507007e39287554ba4efaa9da481d2e6af98d1320ddc76ade5997cd60001b615a81565b61166b7f935e09088b68badd2fdaa2481a521fbbc855ef91495264a1ecb99ed6f1ac286a60001b615a81565b6116977fad87492b2c5f688c64aafa07eac12b71c3a397b49faf235b72b9185599de5f7960001b615a81565b60ce60009054906101000a900473ffffffffffffffffffffffffffffffffffffffff1673ffffffffffffffffffffffffffffffffffffffff166108fc839081150290604051600060405180830381858888f193505050501580156116ff573d6000803e3d6000fd5b50611732565b6117317fa7dc63de1f2e50bd86c376403172a4b5073edf4fbf68fb55e0ed73e73978389460001b615a81565b5b611919565b6117637f30f9a0a85362d128335f794dc04c95631a8682237f348eff4e3e553f0a625cef60001b615a81565b61178f7f4a532d08ba824952f7797f6fb56d545ee5df03084fc279eed59130df924c21a960001b615a81565b6117bb7f29fc94a22ebee74ebcf44e135b94ced626fab51c21adeefbf34d11318284d04660001b615a81565b600082111561187f576117f07f3626000d23cd644bad82c30f525c1a14d58936b96e0df4b9a87b3c4d2c6d2a4e60001b615a81565b61181c7f3505016c5215310deb209b148b4e8100f950309b086ac44c3a5e5c04ae224eed60001b615a81565b6118487f7e700847f12e64472de115976cc97e23f2d04b5785c1cbc30a28901f62cabe0360001b615a81565b61187a3360ce60009054906101000a900473ffffffffffffffffffffffffffffffffffffffff16876040015185617d43565b6118ac565b6118ab7fb73bf878c305d9d08bfbefed92156e1b2926688e512aa17007acf4c5cc62e71a60001b615a81565b5b6118d87fcbb66cc4abafa909a49f9b6a44210dfeac9cfeea712108b5bd1914c0470605ac60001b615a81565b6119047fb4807af2c7b4440896731bd5e210ffbaed9e9bfecbc69105cb37dabf40ef2f3a60001b615a81565b611918338587604001518860800151617d43565b5b6119457fba29141ea69cbffb8f1e3cc48fe60461830d5c11b9a0752f2c33c666bb688c3160001b615a81565b6119717fbb4118c0552ab1f59b0a6c3ab783d9e745059ea42aad61618e12c8ac261a095260001b615a81565b8373ffffffffffffffffffffffffffffffffffffffff16636f82189d84338860200151338a604001518b60800151888d60a001516040518963ffffffff1660e01b81526004016119c7979695949392919061ae45565b6000604051808303818588803b1580156119e057600080fd5b505af11580156119f4573d6000803e3d6000fd5b5050505050611a257f58548ba788e1dfd58ca1c4fee01ad3ee25fc312206b34fb857bc665f4d67350e60001b615a81565b611a517f79a8e2a87b08fbb091bc76ae06991900f746710de3023768ce5e91f284636f5660001b615a81565b6060611a7f7f7bbda1dfc1bbf6dbe903a42aa4843cee8a8ea96e4c164a3633f7516db23c620360001b615a81565b611aab7fe33d521c6c180366d7d6bd6b25704226041d14d06abacecaead94be09ad9469260001b615a81565b85600001517ff6481cbc1da19356c5cb6b884be507da735b89f21dc4bbb7c9b7cc0968b03b7a33886020015189604001518a608001518887604051611af59695949392919061b09d565b60405180910390a25050505050600160978190555050565b60026097541415611b53576040517f08c379a0000000000000000000000000000000000000000000000000000000008152600401611b4a9061b324565b60405180910390fd5b6002609781905550611b636136af565b15611ba3576040517f08c379a0000000000000000000000000000000000000000000000000000000008152600401611b9a9061b224565b60405180910390fd5b611bcf7ff56d1150863d9211d76507f868e670c625d20ec651135439055ad1151017dfce60001b615a81565b611bfb7f6ee22650b83938e8cad24b701a14eee3f532692fa5de0044cfc4e6a983ff765760001b615a81565b611c277fed6674fda92e41a888ccba87d2b8b9a82455413e6ef1bb396264704bcaf2e4cf60001b615a81565b611c3081616184565b600160978190555050565b60026097541415611c81576040517f08c379a0000000000000000000000000000000000000000000000000000000008152600401611c789061b324565b60405180910390fd5b6002609781905550611c916136af565b15611cd1576040517f08c379a0000000000000000000000000000000000000000000000000000000008152600401611cc89061b224565b60405180910390fd5b611cfd7fa5653382385f4d184eaf37c60a98ae3c439ee421394ea4302539127714121acc60001b615a81565b611d297f8cfaa305ca65c408b233ffa26ddc579f7bd2582a01efc337f78a15e92d21190360001b615a81565b611d557fb84ac601b6617d428059acdea95946946a6fd49b22c22039fcdaea66e6ba6d3260001b615a81565b611d817f16ac098686e9ce8366cf419e31aab3b060a389d92118f42c5d5308dcb48cfde260001b615a81565b60d060003373ffffffffffffffffffffffffffffffffffffffff1673ffffffffffffffffffffffffffffffffffffffff16815260200190815260200160002060009054906101000a900460ff166040518060400160405280600881526020017f6f6e6c79206d706300000000000000000000000000000000000000000000000081525090611e45576040517f08c379a0000000000000000000000000000000000000000000000000000000008152600401611e3c919061b1a2565b60405180910390fd5b50611e727f253834e3b5c4690bb989c30d8fb0d7bcd0d1a4a058db49f975c130fdc7d0a95a60001b615a81565b611e9e7fc1081d1e19e941223153a11c3dcb45796abecd74282a80e43ade071d0d36b7f660001b615a81565b611eca7f540c644e511c29d5c7350e89e386e2fddff583d60facfe8b6e365ccd194fc57760001b615a81565b611ef67fc6878f370442d25da6860a7b06c2e8b84c668a44eceebbdb7cec3e74f558720660001b615a81565b611f227f73f2887ba3ec7d8af53b7f2aed884822012b574dc7ba51be5c594da68295314d60001b615a81565b6000611f318260000151617e60565b9050611f5f7f9a7397739b2f055c7cb8fd126c18c83edc42e9d881f79b866f79aa45769bffdf60001b615a81565b611f8b7f174fbf0ec1829faa32a6c8978e5dfe5009c43e37908fd70d8d98f86f445d108960001b615a81565b600082608001518360600151611fa1919061b499565b9050611fcf7fb581ab6aa0bca485e266dcf9a81484bbfc3eb22c78e3de05ec0689256aa8af8460001b615a81565b611ffb7fe3cc90870eaea308a92af1118c6990436f3ef887253cda414b0591d035a09a9960001b615a81565b6120277fbbd63d4277ec9d805e4f69368aebfbc7d20c318505d87168114828c445c5284660001b615a81565b808210156040518060400160405280600f81526020017f6e6f20656e6f756768206d6f6e65790000000000000000000000000000000000815250906120a2576040517f08c379a0000000000000000000000000000000000000000000000000000000008152600401612099919061b1a2565b60405180910390fd5b506120cf7fe9b24fead084b4a0c0812165138fda33e91d627ddcfc8fc36910c4f3dd36847560001b615a81565b6120fb7f64227249a56170e922f2662fa770a905e6a3cbaa7e31d073ea17d4cf64dac8cc60001b615a81565b6121267ea887fbc708a5115b9bf766537ec0d81c23c9929fef6c9dcfc90ae31fe1fa8360001b615a81565b6121527f671fa16768f8fe0947da33ff179d5ba1ded41ca4585bae7e9eb66882358104f960001b615a81565b600073ffffffffffffffffffffffffffffffffffffffff1660cb60009054906101000a900473ffffffffffffffffffffffffffffffffffffffff1673ffffffffffffffffffffffffffffffffffffffff1614156040518060400160405280600981526020017f61646472657373203000000000000000000000000000000000000000000000008152509061221c576040517f08c379a0000000000000000000000000000000000000000000000000000000008152600401612213919061b1a2565b60405180910390fd5b506122497fe4cc862275bcc0d94db88f852aead659c2d40b3793e7c339c3f0443af4c8c55060001b615a81565b6122757f708f33b9cddf89356abff82d2082b8c0ada0655b3abf90603cd2418f2771e3b660001b615a81565b6122a17fe13fa4d29885047fac7efffc6e353485b2f625e5cfc901c4cccc74318eab4cec60001b615a81565b6122cd7f4614b7c886c3b4f584c1a120b4d2e37e6d65138abab04cc83f861ca2a9ba787160001b615a81565b60d160008460a00151815260200190815260200160002060008460c00151815260200190815260200160002060009054906101000a900460ff16156040518060400160405280600881526020017f68617320706169640000000000000000000000000000000000000000000000008152509061237f576040517f08c379a0000000000000000000000000000000000000000000000000000000008152600401612376919061b1a2565b60405180910390fd5b506123ac7fa5c44b627953b092b6cf8e0ab495bc81e7d190e33098632641e677b99839fb5b60001b615a81565b6123d87f397f211bfd834b9759739800506cbe260f06ea6a4bea46953cff634ab821583160001b615a81565b6124047f6304cec5ef6b5a5a296c9b09837ce8bff037b46e8c0c46e19d792c02fa20a30460001b615a81565b600160d160008560a00151815260200190815260200160002060008560c00151815260200190815260200160002060006101000a81548160ff0219169083151502179055506124757ff11842646f99917fea9fc20ed06c64b57ae86896e32aa952a3aa22405f316e4960001b615a81565b6124a17f075c4da4ae63539ef91ff34e756a112fc2ffa5f2dfb1a94f67f1cc7c2fbd6dd560001b615a81565b6000600167ffffffffffffffff8111156124be576124bd61b76d565b5b6040519080825280602002602001820160405280156124ec5781602001602082028036833780820191505090505b50905061251b7fe9236af2875f101c72e0c1df20985cf73c7f9cb6b61c71470fa0e2e55093f94260001b615a81565b6125477f643ef63564abf5a695c4a00f600a987a9498e8cc4df8d6405bdb8ff78b11919460001b615a81565b8360c00151816000815181106125605761255f61b73e565b5b6020026020010181815250506125987f7f1438688ed276c6cea7a34168a30f71366f7cd4becbe6e90affd13145764e0260001b615a81565b6125c47fa1b70cd20792e14d0a1864abffbeda19e359d5131579b940b8933a1a5eeedcc860001b615a81565b60006125f27f24e94e92cdab61f6bce8876840c57d867697c2f6525c5b28d398e4a5e050340760001b615a81565b61261e7f4d73c5b1938e1e0f117fd66bace398e466e3b2dbf7490031a5681a4f4ad8efee60001b615a81565b606061264c7f51ce60bf8ee8b760c17cbb513725539ec58664d705abff3af26bfdf42678d7f060001b615a81565b6126787f9a8744651bd0744491f928b82466143f8a3ae0e99008cc3bf955ebbda7649da560001b615a81565b6126ad60ce60009054906101000a900473ffffffffffffffffffffffffffffffffffffffff1687600001518860800151617fc4565b6126d97f70784042c236720faa848d5cb8f140f10e6857c3b4a15eaa1517745f6c83e54c60001b615a81565b6127057f638435b631aaf4afe8622b606f6a746ad444ce2e7c7f7d389d882f94fcd890ca60001b615a81565b60008660e001515111156130da5761273f7f1d5e3d03228f74fac355d2b499e00b42adf5d4541d6081e3f9f6827d3ca31e8c60001b615a81565b61276b7f59e84fedc09f341a016970e2ce979b7d7977daf58d5257b86b46458ee24ec65560001b615a81565b6127977f4c0d8b93537e26d63efc146031b4760916388e1221e599b795765ddcf4e4b94260001b615a81565b3060cc60006101000a81548173ffffffffffffffffffffffffffffffffffffffff021916908373ffffffffffffffffffffffffffffffffffffffff1602179055506128047f4f22c2d95add8d45cc4a09759617d77343adb6708b0c7e0cbe2a0e6ea06ee3c460001b615a81565b6128307f79412f66a5c3cc7baf52ff659ed788abb81f8bdd6b1239db26db22e2d6ff5a3f60001b615a81565b856040015160cd60006101000a81548173ffffffffffffffffffffffffffffffffffffffff021916908373ffffffffffffffffffffffffffffffffffffffff1602179055506128a17faf653cca7948bc3c063705f9e62981f990858c4f067b750c8690dedd8a5bb12f60001b615a81565b6128cd7f508dae174454a5d1dc41fcaa4e3febb01eae021a9b67a81a357576b70137738160001b615a81565b60006128dc8760200151617e60565b905061290a7f54a07364ad2b5e9cc54920703d40939fa646a4d10ceaa8d0cd924147bf24472c60001b615a81565b6129367fedc3a5c8512106bb25b3feadf42a740cc16c59c00334dbe08a7ced3d7dcb9bf160001b615a81565b73eeeeeeeeeeeeeeeeeeeeeeeeeeeeeeeeeeeeeeee73ffffffffffffffffffffffffffffffffffffffff16876000015173ffffffffffffffffffffffffffffffffffffffff161415612aa6576129ae7fb7ec20d24ff71c5f0526d43f3c1793c3e4cbabcda1f25ca322fd1ae8a4fb004760001b615a81565b6129da7f0227c754c231fc94f68521b53563d3b8899612534b6f0e0e6095829929047f5660001b615a81565b612a067fbcd8c482cf7c3578108233339aa9e604debc00b6d79302bfdef474eb91a557ed60001b615a81565b60cb60009054906101000a900473ffffffffffffffffffffffffffffffffffffffff1673ffffffffffffffffffffffffffffffffffffffff1687606001518860e00151604051612a56919061ad21565b60006040518083038185875af1925050503d8060008114612a93576040519150601f19603f3d011682016040523d82523d6000602084013e612a98565b606091505b508093508194505050612ccb565b612ad27f47fde14a79b3a5ffe13217dda1c7db18fe6751c19cf0181b922f796c1a54914f60001b615a81565b612afe7fb60b37012009c6ce3076f53cc678a921058603c34dd1b76c6a1aa022bc6097c560001b615a81565b612b2a7fa967da33372d4d5bd10b77f68e1f54e1a0145daf962d3120e13119ecc0e03b4560001b615a81565b612bdc876000015160ca60009054906101000a900473ffffffffffffffffffffffffffffffffffffffff1673ffffffffffffffffffffffffffffffffffffffff16631c6eced56040518163ffffffff1660e01b815260040160206040518083038186803b158015612b9a57600080fd5b505afa158015612bae573d6000803e3d6000fd5b505050506040513d601f19601f82011682018060405250810190612bd2919061a520565b89606001516182d4565b612c087fd8eeddcdf1ca9f848ff74e851196f5cd06e547abacaee73be5d03a10ba52acdf60001b615a81565b612c347f9a08e045053a18a1bb70d6c1c1dcf9f7727584b9af99e6b683f7223c0cdbb2e560001b615a81565b60cb60009054906101000a900473ffffffffffffffffffffffffffffffffffffffff1673ffffffffffffffffffffffffffffffffffffffff168760e00151604051612c7f919061ad21565b6000604051808303816000865af19150503d8060008114612cbc576040519150601f19603f3d011682016040523d82523d6000602084013e612cc1565b606091505b5080935081945050505b612cf77fda356c0be7f852b2cba9a8ab87ffd87df1cb7ace544fb2170097115719c153a460001b615a81565b612d237f30d01aa76337547c0bcec802bbea7f7967b3cbbe569ae53d8c0d0d2c8b4d34c960001b615a81565b80612d318860200151617e60565b612d3b919061b549565b9050612d697fde9219773260c75ebc1314d71d09ac185d21603f06bbe7642d8d5d90f25f141e60001b615a81565b60cc60006101000a81549073ffffffffffffffffffffffffffffffffffffffff0219169055612dba7fe826fc64728ee2acaa9ab72ab48bf3cb4e252bfb9e71df976699c4cb308332d760001b615a81565b60cd60006101000a81549073ffffffffffffffffffffffffffffffffffffffff0219169055612e0b7f518d96119b3f873d1e4531cde21ac91793ce07db797ddf8527651955f940459a60001b615a81565b612e377fb23f15284467312ca538bdf422b289c9a9b7b1639e355d7d83472a70acd50b5f60001b615a81565b82612f8e57612e687f9b69ca46669c8ad2d9b938774930443355df5ef7372aa59402ab0c85547739bb60001b615a81565b612e947f1e7c06f786575dc4cf410e9cd71e20dadbf213c0e8381feeffe683e553d3cb4560001b615a81565b612ec07f2e83fcbb564b5cbb0af9debc4ffd81f14492b4dd1044eece378e5ac9c40c084c60001b615a81565b612ed7876040015188600001518960600151617fc4565b612f037feeb01d0fe662a534825b362e74839b4cd2cd774e5c084daed522820c1ad5dc3260001b615a81565b612f2f7f29916ba1d2d218a4ea414373c7b01e97c3a6c2ca051c5094ec5d26089449546a60001b615a81565b7fee3f8bde1ffc8adc9b6482c21cea96118ee05eec9f6d43f206e2ff95f06c6dc48760400151886000015189602001518a6060015160008c60800151888b604051612f8198979695949392919061b011565b60405180910390a16130d4565b612fba7f3dfec2b6f51661490b25f28a795a699225987514da51ae095d014d62412dbc1d60001b615a81565b612fe67f1591a762c7cd3ddcbae646e8656adfcfce9bc17434ff32c8646cad628ddbc99760001b615a81565b6130127f82685f3da41a70ce833505f6be2c612da8596bac9b9bef7099f8b747710e81c360001b615a81565b6130258760400151886020015183617fc4565b6130517f6ba9d90b6c8b83fdee9b83c82705ed353942887bc91306919ed3fbda385c26e960001b615a81565b61307d7fa17783fafae02bce5a36b45d0373eb050dd4aebb4e4a3e9c2e234f83efd1e7b460001b615a81565b7fee3f8bde1ffc8adc9b6482c21cea96118ee05eec9f6d43f206e2ff95f06c6dc48760400151886000015189602001516000858c60800151888b6040516130cb98979695949392919061aebb565b60405180910390a15b50613228565b6131067f285e985080cc3de3ed74173e6340aa80a0f5994edb667561b1f157651e7adb3a60001b615a81565b6131327fb839e7fabab88696e81700cfbf257b36421a44eac4a1ba3d1fb1beafacad19d460001b615a81565b61315e7fdff8870edf1c44ff38a2427637fe77e92b4f7a0e8d4486cd77f9370c2dcd797e60001b615a81565b613175866040015187600001518860600151617fc4565b6131a17f50c4f182f81cacfeb5f118c9b35acb933af69cf411d6e686a1ad6ee927909df960001b615a81565b6131cd7fbe7fc45d1692a90777e9eaf3b1ffa84ebe8986db50e02eb44d2cb21a6404a46e60001b615a81565b7fee3f8bde1ffc8adc9b6482c21cea96118ee05eec9f6d43f206e2ff95f06c6dc4866040015187600001518860200151896060015160008b60800151878a60405161321f98979695949392919061b011565b60405180910390a15b6132547fb0456c2c16fa2f70a7cadecbf7be337a4605609e93a6313ff31d8de5f48110f160001b615a81565b6132807f310149f62184ccaa228e70cd4203e3c4bd0221e98b11565487a5e530a235945060001b615a81565b6132ac7fda5be7e0862ff858beaec552808bd90f560cc51bdf50374e21f0ebf824f34d5060001b615a81565b836132ba8760000151617e60565b866132c5919061b549565b11156040518060400160405280601481526020017f736c617368206d75636820746f6f206d6f6e65790000000000000000000000008152509061333e576040517f08c379a0000000000000000000000000000000000000000000000000000000008152600401613335919061b1a2565b60405180910390fd5b5061336b7f71d3a3179397305b798ad2303067b65fc2ec6da6a47e662a2ed46cdb2e1ae35f60001b615a81565b5050505050600160978190555050565b6133a77f20c43a6f8d5ea1d9c53b0479d3cb7b913d36b8dee395b13db04968eeb79062d760001b615a81565b6133d37fa8b0f661c15332d26d3a84d28d14a98f341c8ac354b8495cca0702282cb5e46e60001b615a81565b6133ff7f26f549f737d10e71d7df6d514d18dafe5e36d5929f15ed748007372c38e7cf6660001b615a81565b61342b7fa4b400be45d2db7a2fb639251d1a3d8a64bdb52c4f34c23e080d2a8b9e9c89ab60001b615a81565b60cf60009054906101000a900473ffffffffffffffffffffffffffffffffffffffff1673ffffffffffffffffffffffffffffffffffffffff163373ffffffffffffffffffffffffffffffffffffffff16146040518060400160405280600a81526020017f6f6e6c792061646d696e00000000000000000000000000000000000000000000815250906134f3576040517f08c379a00000000000000000000000000000000000000000000000000000000081526004016134ea919061b1a2565b60405180910390fd5b506135207f11710efd2276911a9ac5d08c057f364ac657f096ade2e3bc639d46aa6c489e4b60001b615a81565b61354c7feb6f53284e8746e2c8ddace8eceafb5610a81110cd586d46e0dc1237107582d060001b615a81565b6135787fde9f4c2e0577221268a693d975304eef6b75eb19df3ad87588c6b84cbd019dae60001b615a81565b6135a47ff9cd4b3f5a66c97527d73de9993b5452bfd587a6434dc4bcfb3b1a198fb28ead60001b615a81565b6135d07f7b7aacf594e3e817273a3c48e4d47eadc6d92dbd0e68f325f036245b32c07b3460001b615a81565b6135d86185d8565b565b6000806136097f289d28ca7cb658d3226e4603f5250119a0669c749b4b52a5815fdb9db40c2b7460001b615a81565b6136357fc502af2406623f133bdc24104eb8b92c6e602f2108b2cee99924a16d5cb02b1160001b615a81565b6136617f0c2f1ab503ca5c145b6548c976e281980042aa5b6cb330a2e7cc38f18491b64160001b615a81565b60cc60009054906101000a900473ffffffffffffffffffffffffffffffffffffffff1660cd60009054906101000a900473ffffffffffffffffffffffffffffffffffffffff16915091509091565b6000603360009054906101000a900460ff16905090565b6136ce61867a565b73ffffffffffffffffffffffffffffffffffffffff166136ec613f6a565b73ffffffffffffffffffffffffffffffffffffffff1614613742576040517f08c379a00000000000000000000000000000000000000000000000000000000081526004016137399061b264565b60405180910390fd5b61376e7f3435a56bf7cbbe65467ea4859baf9b24207b62f07022ef737bad7995694c066c60001b615a81565b61379a7ff37f621fd901be733c96ae48f51d9d394ccdd32b300c5766dc24d829a53b1c5860001b615a81565b6137c67f0abd8f60c423b5e57c1ea06d4cd321cf0d3997473d1b56f6b9e8912e1533f3d360001b615a81565b6137f27f5f9ea3e895a0f4231a9b4f143d741ec142efd0ef57b2002c74d1486600c79cdc60001b615a81565b600073ffffffffffffffffffffffffffffffffffffffff168173ffffffffffffffffffffffffffffffffffffffff1614156040518060400160405280600981526020017f61646472657373203000000000000000000000000000000000000000000000008152509061389a576040517f08c379a0000000000000000000000000000000000000000000000000000000008152600401613891919061b1a2565b60405180910390fd5b506138c77fe6ac0c5ac59e6606ae79e972e9f3337cec425778cd4363edb79325776766fa4b60001b615a81565b6138f37f68823de46d00fa41ac0a8185f9ee9e5795c428c61d6eeec0c772f77a82ed62d460001b615a81565b61391f7f998b5a8bb8819b6784ce83381f76caf3e138107c52adf32ff976028789d6bb4b60001b615a81565b8060cf60006101000a81548173ffffffffffffffffffffffffffffffffffffffff021916908373ffffffffffffffffffffffffffffffffffffffff16021790555061398c7f3a71a2c4f50cb53ed9937de3cad2c0fbd5f8d34f238560161ae18f6c4cdeaab860001b615a81565b6139b87f7ae4076d8082c05a3f9ef1a69277e99f32b1cd03a895f7966bc16e99ecdf43f060001b615a81565b7f7ce7ec0b50378fb6c0186ffb5f48325f6593fcb4ca4386f21861af3129188f5c816040516139e7919061ae01565b60405180910390a150565b6139fa61867a565b73ffffffffffffffffffffffffffffffffffffffff16613a18613f6a565b73ffffffffffffffffffffffffffffffffffffffff1614613a6e576040517f08c379a0000000000000000000000000000000000000000000000000000000008152600401613a659061b264565b60405180910390fd5b613a786000618682565b565b6000613a866001618748565b90508015613aaa576001600060016101000a81548160ff0219169083151502179055505b613ad67f5a3470b7f7e7877dd9c8e78244f41ab33364d068c66adcf93b553a30ff3bf1f960001b615a81565b613b027f0aad62b160e82e1d59922217be57f70698efb571145fb4210ba9cc01bff0a32560001b615a81565b613b2e7fdc3b0d4fb953906588e51867d8d1eaae3c2b49531fe5fbd0934386ed236070cf60001b615a81565b613b36618838565b613b627f186a4e85c5229f1cacdcf451110d4204ed4b24368c99b1495b518d9a09b92aa560001b615a81565b613b8e7fab1895cedd4e4c03103fb42faad8a1ee2d16c181976e8ef9eedf8a07af5a17eb60001b615a81565b613b96618891565b613bc27f64c5f2249b208d67d5add808aebfc698171670c6d86ec6d68222c0a84ddd308d60001b615a81565b613bee7f69c4eed4722224b58786e9d91adc6da645c5ba7ee30a0c7b3ffb6f731a2ef6cb60001b615a81565b613bf66188ea565b613c227f2ce54e8e48f4246e4f9c359a0f99df5a356c910921c6c24690442dd5cc1376d760001b615a81565b613c4e7f55f46d0516668f802728268886d50b9c52dfa2aa52364c4b60904edbc276889260001b615a81565b3360cf60006101000a81548173ffffffffffffffffffffffffffffffffffffffff021916908373ffffffffffffffffffffffffffffffffffffffff1602179055508015613ce85760008060016101000a81548160ff0219169083151502179055507f7f26b83ff96e1f2b6a682f133852f6798a09c465da95921460cefb38474024986001604051613cdf919061b187565b60405180910390a15b50565b60d06020528060005260406000206000915054906101000a900460ff1681565b613d377f20c43a6f8d5ea1d9c53b0479d3cb7b913d36b8dee395b13db04968eeb79062d760001b615a81565b613d637fa8b0f661c15332d26d3a84d28d14a98f341c8ac354b8495cca0702282cb5e46e60001b615a81565b613d8f7f26f549f737d10e71d7df6d514d18dafe5e36d5929f15ed748007372c38e7cf6660001b615a81565b613dbb7fa4b400be45d2db7a2fb639251d1a3d8a64bdb52c4f34c23e080d2a8b9e9c89ab60001b615a81565b60cf60009054906101000a900473ffffffffffffffffffffffffffffffffffffffff1673ffffffffffffffffffffffffffffffffffffffff163373ffffffffffffffffffffffffffffffffffffffff16146040518060400160405280600a81526020017f6f6e6c792061646d696e0000000000000000000000000000000000000000000081525090613e83576040517f08c379a0000000000000000000000000000000000000000000000000000000008152600401613e7a919061b1a2565b60405180910390fd5b50613eb07f11710efd2276911a9ac5d08c057f364ac657f096ade2e3bc639d46aa6c489e4b60001b615a81565b613edc7feb6f53284e8746e2c8ddace8eceafb5610a81110cd586d46e0dc1237107582d060001b615a81565b613f087f071385f3f52dd8fa5e6cc448b91dda28461404a8de1f930c5f58a684058689aa60001b615a81565b613f347f9b2a89e6a572831543d1eb2d2975d0ec073693b24575acc7ea763eb69ee0ebc560001b615a81565b613f607ffec277ddfc1bfeaa1250214cfbb4888d328573bd8e51043860624ac942f3c83960001b615a81565b613f68618943565b565b6000606560009054906101000a900473ffffffffffffffffffffffffffffffffffffffff16905090565b60026097541415613fda576040517f08c379a0000000000000000000000000000000000000000000000000000000008152600401613fd19061b324565b60405180910390fd5b6002609781905550613fea6136af565b1561402a576040517f08c379a00000000000000000000000000000000000000000000000000000000081526004016140219061b224565b60405180910390fd5b6140567fa5653382385f4d184eaf37c60a98ae3c439ee421394ea4302539127714121acc60001b615a81565b6140827f8cfaa305ca65c408b233ffa26ddc579f7bd2582a01efc337f78a15e92d21190360001b615a81565b6140ae7fb84ac601b6617d428059acdea95946946a6fd49b22c22039fcdaea66e6ba6d3260001b615a81565b6140da7f16ac098686e9ce8366cf419e31aab3b060a389d92118f42c5d5308dcb48cfde260001b615a81565b60d060003373ffffffffffffffffffffffffffffffffffffffff1673ffffffffffffffffffffffffffffffffffffffff16815260200190815260200160002060009054906101000a900460ff166040518060400160405280600881526020017f6f6e6c79206d70630000000000000000000000000000000000000000000000008152509061419e576040517f08c379a0000000000000000000000000000000000000000000000000000000008152600401614195919061b1a2565b60405180910390fd5b506141cb7f253834e3b5c4690bb989c30d8fb0d7bcd0d1a4a058db49f975c130fdc7d0a95a60001b615a81565b6141f77fc1081d1e19e941223153a11c3dcb45796abecd74282a80e43ade071d0d36b7f660001b615a81565b6142237fc8fd9b70c42afa13e84b2598dfff6955f779893f0a67ff21aa45abafb9adee5f60001b615a81565b61424f7f416f08b9c18c436fba5208e07ca5f7d04e4983602ecf25247b7005954772224260001b615a81565b61427b7fd3051f40e7cc92313169e9864898c070da5d0003ae6ace7a503a924f3a2c5c4960001b615a81565b6142a77fc464a52bbc2618cc3ed4c52bf8fee031fc82324ba5a9866e3c9c54807979423b60001b615a81565b60d260008260400151815260200190815260200160002060008260600151815260200190815260200160002060009054906101000a900460ff16156040518060400160405280600f81526020017f686173207265636569766520676173000000000000000000000000000000000081525090614359576040517f08c379a0000000000000000000000000000000000000000000000000000000008152600401614350919061b1a2565b60405180910390fd5b506143867f634ffa2975f2e5446430b8949050906132853dcd8739971c498feced25dc010560001b615a81565b6143b27fb61628be1ac9d51d3cb45ca5805642669a8f115daf1316e55a099d410b5cea8060001b615a81565b6143de7f80967bdc13345def1e42f8bcce3de71f75fd5a730657dac346bbb846dcdeeacb60001b615a81565b600160d260008360400151815260200190815260200160002060008360600151815260200190815260200160002060006101000a81548160ff02191690831515021790555061444f7fba344d6a55001663e08cd163c2644b7ab8a24a480ee3ce6a7da87e91bc4ff3a260001b615a81565b61447b7fba7025cb3671a0da50a8d2374a82717f93302b477b419697c5cfc3590341782d60001b615a81565b6144a2816000015173eeeeeeeeeeeeeeeeeeeeeeeeeeeeeeeeeeeeeeee8360200151617fc4565b6144ce7fbe6c26a21884e791c37cbd4cca5531436d1be956347a2985f14bac09f348737660001b615a81565b6144f97e187ee072eaf76d3f8e3ff42ad0c7c87468a6fe44cb091d36b9b9bf9787919b60001b615a81565b6000600167ffffffffffffffff8111156145165761451561b76d565b5b6040519080825280602002602001820160405280156145445781602001602082028036833780820191505090505b5090506145737fda67fd5eb28a6d7c9f6957a98a0c34a6f8bb028d2fe1f5a4998bdfcecebb182460001b615a81565b61459f7fca85a4af6841cb2b614a510e86042d14f4b5ca1b148ec5859df25902aa97ec6960001b615a81565b8160600151816000815181106145b8576145b761b73e565b5b6020026020010181815250506145f07fab4b79bb1205fdc6330530df48594295edb1db92c08ba927ddabd773e5127f4e60001b615a81565b61461c7fab97c376e8e6dcf1e7eed247dac556a4d29ca0d44bee1e7b9fc31372bc40f27360001b615a81565b7f6f5e8dcaa810709926dc23aed7e5d83db75e41da81fcb788c61f94f1d1a7c98b82600001518360200151836040516146579392919061b12e565b60405180910390a150600160978190555050565b6146977f20c43a6f8d5ea1d9c53b0479d3cb7b913d36b8dee395b13db04968eeb79062d760001b615a81565b6146c37fa8b0f661c15332d26d3a84d28d14a98f341c8ac354b8495cca0702282cb5e46e60001b615a81565b6146ef7f26f549f737d10e71d7df6d514d18dafe5e36d5929f15ed748007372c38e7cf6660001b615a81565b61471b7fa4b400be45d2db7a2fb639251d1a3d8a64bdb52c4f34c23e080d2a8b9e9c89ab60001b615a81565b60cf60009054906101000a900473ffffffffffffffffffffffffffffffffffffffff1673ffffffffffffffffffffffffffffffffffffffff163373ffffffffffffffffffffffffffffffffffffffff16146040518060400160405280600a81526020017f6f6e6c792061646d696e00000000000000000000000000000000000000000000815250906147e3576040517f08c379a00000000000000000000000000000000000000000000000000000000081526004016147da919061b1a2565b60405180910390fd5b506148107f11710efd2276911a9ac5d08c057f364ac657f096ade2e3bc639d46aa6c489e4b60001b615a81565b61483c7feb6f53284e8746e2c8ddace8eceafb5610a81110cd586d46e0dc1237107582d060001b615a81565b6148687fe052a128d9c78a14b6f97c293a57b8330afbf1796480ff045ebd9af042d961d760001b615a81565b6148947fd4cddbbe62c91036be49826d1418b453457b72bb310a809bbaa4bc522b18425f60001b615a81565b6148c07ff3df325c7b8f868cc6136d7d04f11d135152c083192d9040e8056a02414059de60001b615a81565b6148ec7f4040396d88dd3104eed6e6e8993bf2c2c9f4eef9dc1335e7d855494891a0888560001b615a81565b8181905084849050146040518060400160405280601081526020017f6c656e677468206e6f7420657175616c000000000000000000000000000000008152509061496c576040517f08c379a0000000000000000000000000000000000000000000000000000000008152600401614963919061b1a2565b60405180910390fd5b506149997fa0e407188f28854a025e32080ae5e5431d70f5de8f3674b10536b0c7de09e96a60001b615a81565b6149c57f5991b9a71b3c3cb611d0f9b6811725a1d8c2323b69c23f20f75cdfb2c41557d560001b615a81565b6149f17f98c9829e9d65e432c1b0dae07ad6d566485caf4d30aa61bfd87f3c165f3aae2860001b615a81565b60005b84849050811015614afc57614a2b7f2c4cd4678b0227a49cd14cfa769816efd4edace6d271f7aedda2391e1e157e7060001b615a81565b614a577fc26e81ecf644c2d9862c32738006c3439607742397c768fda0de4e52d2fdb1c560001b615a81565b828282818110614a6a57614a6961b73e565b5b9050602002016020810190614a7f919061a4f3565b60c96000878785818110614a9657614a9561b73e565b5b90506020020135815260200190815260200160002060006101000a81548173ffffffffffffffffffffffffffffffffffffffff021916908373ffffffffffffffffffffffffffffffffffffffff1602179055508080614af49061b6b2565b9150506149f4565b5050505050565b614b2f7f20c43a6f8d5ea1d9c53b0479d3cb7b913d36b8dee395b13db04968eeb79062d760001b615a81565b614b5b7fa8b0f661c15332d26d3a84d28d14a98f341c8ac354b8495cca0702282cb5e46e60001b615a81565b614b877f26f549f737d10e71d7df6d514d18dafe5e36d5929f15ed748007372c38e7cf6660001b615a81565b614bb37fa4b400be45d2db7a2fb639251d1a3d8a64bdb52c4f34c23e080d2a8b9e9c89ab60001b615a81565b60cf60009054906101000a900473ffffffffffffffffffffffffffffffffffffffff1673ffffffffffffffffffffffffffffffffffffffff163373ffffffffffffffffffffffffffffffffffffffff16146040518060400160405280600a81526020017f6f6e6c792061646d696e0000000000000000000000000000000000000000000081525090614c7b576040517f08c379a0000000000000000000000000000000000000000000000000000000008152600401614c72919061b1a2565b60405180910390fd5b50614ca87f11710efd2276911a9ac5d08c057f364ac657f096ade2e3bc639d46aa6c489e4b60001b615a81565b614cd47feb6f53284e8746e2c8ddace8eceafb5610a81110cd586d46e0dc1237107582d060001b615a81565b614d007fd59eb7af4def770f8ea1037dacdc71393edabd049a302c296bf4677c0d25846d60001b615a81565b614d2c7fccb0c4c35a3e8cbb6dac3e544fb1829526f0c854c0461309373b3c14b432504a60001b615a81565b614d587f075c2a0dcc6857da014052d46a2be0c81082a63d318c98928c1e8ec731003cf060001b615a81565b614d847ff358286008cdf027da685ef5f34b33aefff69d08e19b6b12e59176950e7c496260001b615a81565b600073ffffffffffffffffffffffffffffffffffffffff168173ffffffffffffffffffffffffffffffffffffffff1614156040518060400160405280600981526020017f616464726573732030000000000000000000000000000000000000000000000081525090614e2c576040517f08c379a0000000000000000000000000000000000000000000000000000000008152600401614e23919061b1a2565b60405180910390fd5b50614e597f4ab4d7e838ccecf799cb65ff9614ffafdd7e97979c6b7e0f0833687866cc821f60001b615a81565b614e857f33f1e8963c7a78c3c953a16b4d6c876ef79fedf2a8ae00de3a9ef12f1a8c687460001b615a81565b614eb17ffd99974b50d18c6904bc1ceac48bdb67a51f76c1c8b44e72f4211ad16a568a5b60001b615a81565b8060ca60006101000a81548173ffffffffffffffffffffffffffffffffffffffff021916908373ffffffffffffffffffffffffffffffffffffffff160217905550614f1e7f0a925975a6426a4509900fdfa07e5e59490ac37ac5a5f9950c2b2186c656445660001b615a81565b614f4a7f238a5efd44c2153b0c20a91b42e29799f182dfcd8ee44514f68157c70d4f769360001b615a81565b7fc7837d6c310ea8044f727d5d37f08177374e68c2f2cdf5adf1fbbacf3386553181604051614f79919061ae01565b60405180910390a150565b60d16020528160005260406000206020528060005260406000206000915091509054906101000a900460ff1681565b60d26020528160005260406000206020528060005260406000206000915091509054906101000a900460ff1681565b60c96020528060005260406000206000915054906101000a900473ffffffffffffffffffffffffffffffffffffffff1681565b61501d61867a565b73ffffffffffffffffffffffffffffffffffffffff1661503b613f6a565b73ffffffffffffffffffffffffffffffffffffffff1614615091576040517f08c379a00000000000000000000000000000000000000000000000000000000081526004016150889061b264565b60405180910390fd5b600073ffffffffffffffffffffffffffffffffffffffff168173ffffffffffffffffffffffffffffffffffffffff161415615101576040517f08c379a00000000000000000000000000000000000000000000000000000000081526004016150f89061b1e4565b60405180910390fd5b61510a81618682565b50565b60ca60009054906101000a900473ffffffffffffffffffffffffffffffffffffffff1681565b61515f7f20c43a6f8d5ea1d9c53b0479d3cb7b913d36b8dee395b13db04968eeb79062d760001b615a81565b61518b7fa8b0f661c15332d26d3a84d28d14a98f341c8ac354b8495cca0702282cb5e46e60001b615a81565b6151b77f26f549f737d10e71d7df6d514d18dafe5e36d5929f15ed748007372c38e7cf6660001b615a81565b6151e37fa4b400be45d2db7a2fb639251d1a3d8a64bdb52c4f34c23e080d2a8b9e9c89ab60001b615a81565b60cf60009054906101000a900473ffffffffffffffffffffffffffffffffffffffff1673ffffffffffffffffffffffffffffffffffffffff163373ffffffffffffffffffffffffffffffffffffffff16146040518060400160405280600a81526020017f6f6e6c792061646d696e00000000000000000000000000000000000000000000815250906152ab576040517f08c379a00000000000000000000000000000000000000000000000000000000081526004016152a2919061b1a2565b60405180910390fd5b506152d87f11710efd2276911a9ac5d08c057f364ac657f096ade2e3bc639d46aa6c489e4b60001b615a81565b6153047feb6f53284e8746e2c8ddace8eceafb5610a81110cd586d46e0dc1237107582d060001b615a81565b6153307f48a76abbef29df34ea8c591ff27ba827ffeff7b6788708ce073506e4d424f71360001b615a81565b61535c7f77647bafc806873714634f54ac79d110759f5d0e255563ce06a6bd12bb16c33360001b615a81565b6153887fa89ad8493fe57db86e0c40201abfc77141df9f0dd7505c253c06ad0082c2645f60001b615a81565b6153b47f81a47f44a121eba58754a4218b56e8bfcd0832516debb7573ee226d96ec7977a60001b615a81565b600073ffffffffffffffffffffffffffffffffffffffff168173ffffffffffffffffffffffffffffffffffffffff1614156040518060400160405280600981526020017f61646472657373203000000000000000000000000000000000000000000000008152509061545c576040517f08c379a0000000000000000000000000000000000000000000000000000000008152600401615453919061b1a2565b60405180910390fd5b506154897ffc95dd2ce64b25b727ea843f5d7de1b09e2c126c57a90f339714648951c4bdaf60001b615a81565b6154b57f375b0576873dd2db1fdd9ee4ebbf83fc311f2353654070e0308a10249d3a38a760001b615a81565b6154e17f7d61ba1fd849bccb9571620b14a436970f8e7de0eadece35851e1a489c512c1960001b615a81565b8060ce60006101000a81548173ffffffffffffffffffffffffffffffffffffffff021916908373ffffffffffffffffffffffffffffffffffffffff16021790555061554e7f1e140e7a7fdbd78bf604d34b76fb920b92b292581e16a0cc6ed092806bb854ff60001b615a81565b61557a7f8bee1f39a5100e590c391b871dc6244e61ae48278918347f17c6dda255d8cdb460001b615a81565b7f3dedba2a214b4fff9bf20fc473c114824654e0bc70512b4a92f6d5978763c28d816040516155a9919061ae01565b60405180910390a150565b60cd60009054906101000a900473ffffffffffffffffffffffffffffffffffffffff1681565b6156067f20c43a6f8d5ea1d9c53b0479d3cb7b913d36b8dee395b13db04968eeb79062d760001b615a81565b6156327fa8b0f661c15332d26d3a84d28d14a98f341c8ac354b8495cca0702282cb5e46e60001b615a81565b61565e7f26f549f737d10e71d7df6d514d18dafe5e36d5929f15ed748007372c38e7cf6660001b615a81565b61568a7fa4b400be45d2db7a2fb639251d1a3d8a64bdb52c4f34c23e080d2a8b9e9c89ab60001b615a81565b60cf60009054906101000a900473ffffffffffffffffffffffffffffffffffffffff1673ffffffffffffffffffffffffffffffffffffffff163373ffffffffffffffffffffffffffffffffffffffff16146040518060400160405280600a81526020017f6f6e6c792061646d696e0000000000000000000000000000000000000000000081525090615752576040517f08c379a0000000000000000000000000000000000000000000000000000000008152600401615749919061b1a2565b60405180910390fd5b5061577f7f11710efd2276911a9ac5d08c057f364ac657f096ade2e3bc639d46aa6c489e4b60001b615a81565b6157ab7feb6f53284e8746e2c8ddace8eceafb5610a81110cd586d46e0dc1237107582d060001b615a81565b6157d77f3bcba0f9732b9891b899b43131772d18940100c98700631060483f7b9eb5ad9160001b615a81565b6158037ff747c0131a7099e61cd8e3a0f06fd7d87ee640dd28e682e41d7141f7df3b1aad60001b615a81565b61582f7fddee5f58154b9245693211e3a1e9a7f3af941f9d3339f37d2f4112d9acdb16a860001b615a81565b61585b7f41613e0c42653b1d21bd7f75c437da610c3d65f29424bb66618b8818ce79fd3560001b615a81565b600073ffffffffffffffffffffffffffffffffffffffff168173ffffffffffffffffffffffffffffffffffffffff1614156040518060400160405280600981526020017f616464726573732030000000000000000000000000000000000000000000000081525090615903576040517f08c379a00000000000000000000000000000000000000000000000000000000081526004016158fa919061b1a2565b60405180910390fd5b506159307fa19c6cc1778badd8ee0aeba9f9e1c034711dda46377ea46d2c631a0a43ed6f8b60001b615a81565b61595c7f96ef3d32630f3c128e92b77d1b7f6f609bbff2f6b419fe76231fe5162a83d86560001b615a81565b6159887fa7521de924857fc16231eb8c8a652b3ace493a540e3bc2272cd54ea9aa3bbcff60001b615a81565b8060cb60006101000a81548173ffffffffffffffffffffffffffffffffffffffff021916908373ffffffffffffffffffffffffffffffffffffffff1602179055506159f57f371d53d1611ea6646013d525bd5222bd15f07f75a58b4ff5463ff229ff5dc66560001b615a81565b615a217fcaa4abdc6c292f2b41c701f72ae4d5e89679171eb31eed4c8b5532b2587e3aeb60001b615a81565b7f33f0bdb7050bc888ca819c34892844adff2a3109dc1810301e8fd6af0ac7edb981604051615a50919061ae01565b60405180910390a150565b60cf60009054906101000a900473ffffffffffffffffffffffffffffffffffffffff1681565b50565b615ab07f96e7837f4de52672b1d88850a1b0f214fc72845a67ee04285530e6315397556160001b615a81565b615adc7fa4611586bb5b60e16502a1281dbb365c00e588252b9b676b6b9e3e9f271e576f60001b615a81565b615b087fac7339b7f5b9be8fae58f96dc16875d7146ab6ef62ab23386dc287dfd64b02ab60001b615a81565b600082829050111561615257615b407f3395d04835e717d48402a3744eb83a3d5d91cad0882f77743c61e2e1edc95de060001b615a81565b615b6c7fc0a9d4ff3d1ec35e3764d4fca354c13614b04070ce884b445895470e3a83a06e60001b615a81565b615b987f202be1123f429a17e9e29dd3a1f27f20efd9c53b143754206f0284047addb83e60001b615a81565b6000615bc67f5038dc1b3f1800aa143055f25e990e653561ba63ce9a032f7119c522217c12da60001b615a81565b615bf27fb9431633985ecd90c74a5a58605722db5e1f2a3aad7000a88c19a6bab776decb60001b615a81565b6060615c207f854c61352bb874e09cc245aace8bdf968f18f1427ede859e3bea893b0d55abf960001b615a81565b615c4c7f2cec7b417fac64a7f1b1ba384f0af6ad1c7c54dfea0472be4ca2b1da79e41c1760001b615a81565b60e0848490501415615d7b57615c847f1dc7388eab8c74bfcf5d47ec43aa3896631d66b734072e7c97341bf24323f3d860001b615a81565b615cb07fa46d1f2bac38439e19c5204f9981f6c465e9d6f0679e46cabe134033d700393660001b615a81565b615cdc7f97f75a3a0866ad3a0e282a7174ef32963cf8c64ce6dc1cdffdd4aa84c3b597b560001b615a81565b8473ffffffffffffffffffffffffffffffffffffffff1663d505accf60e01b8585604051602001615d0f9392919061acf7565b604051602081830303815290604052604051615d2b919061ad21565b6000604051808303816000865af19150503d8060008114615d68576040519150601f19603f3d011682016040523d82523d6000602084013e615d6d565b606091505b508092508193505050615fc3565b615da77f156bc2ffc0adc5bc97e94b6c1f67d83fd15a10e901e96b6c07f518a24c0ea40960001b615a81565b615dd37f3abe256902bf72eab2c872ff6e19423e32c415f4e70d4be513308808d7f1d31460001b615a81565b610100848490501415615f0357615e0c7fc086254384bd198e12b8c6358b18dc528a395d25bc45c73579d3d9a2802577b760001b615a81565b615e387f3206f571628a69ef5be2c0a36bf1d76ec4640d5635d509835db22ed793bbf50560001b615a81565b615e647f35821acec70fbeb667aac4b133ae5283ad42e2e3d53ac980315c14ebb02105e460001b615a81565b8473ffffffffffffffffffffffffffffffffffffffff16638fcbaf0c60e01b8585604051602001615e979392919061acf7565b604051602081830303815290604052604051615eb3919061ad21565b6000604051808303816000865af19150503d8060008114615ef0576040519150601f19603f3d011682016040523d82523d6000602084013e615ef5565b606091505b508092508193505050615fc2565b615f2f7fb201f2c1f83ea185a70da4c29d7f410e8a93334be4ea92ebcbc2278330b87a1360001b615a81565b615f5b7f8de1434867fb335b6f44732f3883c33e1272dc48051482b45e678704fa2cb2c260001b615a81565b615f877f73bd6fb1650fda1762082adfa7554b89aee7378a5a5dc49566be4d70c821f35e60001b615a81565b6040517f08c379a0000000000000000000000000000000000000000000000000000000008152600401615fb99061b284565b60405180910390fd5b5b615fef7f481d779cd225ca3fe9cf9df1ebf664d1be1c8530b6faac247d752925caa9064560001b615a81565b61601b7fdef6caf62c237ada29d7c868b85d7f01cfe1b5c78adecb212c5f923ab9904dea60001b615a81565b8161611f5761604c7f190130d3c1e539c18e094d0165060c9607e3ef872fd3869d0757cfde8ad65c8e60001b615a81565b6160787fcd7f02517bf78bd69b8367bf51c5706416072106dbfd42eed68804c8d9e6993e60001b615a81565b6160a47fedc4161d4ceebe039a184cb268869525b6487af4a989e3a0c2422f525422b03760001b615a81565b6160e3816040518060400160405280600f81526020017f5065726d6974206661696c65643a2000000000000000000000000000000000008152506189e6565b6040517f08c379a0000000000000000000000000000000000000000000000000000000008152600401616116919061b1a2565b60405180910390fd5b61614b7ff444a0d8abc2109e1b780bef835c4bb31a78956315d3948c78a95c56b83a8f7760001b615a81565b505061617f565b61617e7f6e55a8eb0fdcd3d8fac929dddb675586fa590c84b2c84aabe18cfbe4b8610e9360001b615a81565b5b505050565b6161b07feb3416ebe38c58d35b8b1f3498b7752bb95aee83030274a5927193312201a4dd60001b615a81565b6161dc7fc7f45494df671401d1f9436c425418b1e34c779f9d663b1debaafcc2bc8012ea60001b615a81565b6162087fdad0d6ee3ddfa6636b980de7d7b0c948567c3c661a46edda7c04c8148caa617b60001b615a81565b616210619d93565b61623c7fdf5d4bb4fe19003dad9fc227ea0173a0aea85606f0ca53d3fb8d6c16b75efab060001b615a81565b6162687f233010b89a45303bade372635ecb03ff693251ac6a7f5256ad4d78b447b6973260001b615a81565b6162947f0803dfd766e48a9e11f432dcdbbb9b990323a979216df0047c8a2d6c22ba5c1460001b615a81565b6000826060015114156040518060400160405280601181526020017f696e76616c69642061646170746f72494400000000000000000000000000000081525090616314576040517f08c379a000000000000000000000000000000000000000000000000000000000815260040161630b919061b1a2565b60405180910390fd5b506163417fb857a5a934e4018cbbc69dd426e7a2c9df6841546bc145f937e5cf2b9b1d457e60001b615a81565b61636d7f5f6bdc180e5252f51b5c4c2a4de7567d078540e3f9726abf053a1424a570b19460001b615a81565b6163997f12c6d1daed9d73533fe3696d30325d7c0583e898e28c3870f6a36149425097df60001b615a81565b60c960008360600151815260200190815260200160002060009054906101000a900473ffffffffffffffffffffffffffffffffffffffff16816000019073ffffffffffffffffffffffffffffffffffffffff16908173ffffffffffffffffffffffffffffffffffffffff16815250506164347f46b0f3e5fa3ae05482bebdf12d791fdd7aa47628bc24a0731245284c8d57795f60001b615a81565b6164607f0833d8967c46cb2fca92071ef3e18e6bc65e68ad35f3760d32576bdc54ca250660001b615a81565b61648c7fff99d323ae4ba915e2e3518833f25be9ab48e30ed0747b780d444cd3a236d28e60001b615a81565b600073ffffffffffffffffffffffffffffffffffffffff16816000015173ffffffffffffffffffffffffffffffffffffffff1614156040518060400160405280601781526020017f696e76616c69642061646170746f72206164647265737300000000000000000081525090616538576040517f08c379a000000000000000000000000000000000000000000000000000000000815260040161652f919061b1a2565b60405180910390fd5b506165657fb3534c766d5c19bcdf1439583281f6779643570a5d2ea9f5e7da3a9c9cc46ac860001b615a81565b6165917f782bdefc5507672f5fff519072b6d2d7ea81f1a0363760ef17ff5f31b49e27ec60001b615a81565b6165bd7fab4f3542e221874668506ea5f67c9f02a33668449124c465fa8405cc958c30ad60001b615a81565b6165e97f4748cf6268fd7ac0ddec14da3b452a7ab7c33a17bebdb19540c2bad6b73d87ef60001b615a81565b600073ffffffffffffffffffffffffffffffffffffffff16826000015173ffffffffffffffffffffffffffffffffffffffff1614156040518060400160405280600981526020017f616464726573732030000000000000000000000000000000000000000000000081525090616695576040517f08c379a000000000000000000000000000000000000000000000000000000000815260040161668c919061b1a2565b60405180910390fd5b506166c27fba27133a33bf20fbd236a5f8774b6f4eac3937712eb34fbb2091ee74ef58840760001b615a81565b6166ee7f74c6c2cd2299dc511b0ddca354be2e1a4fbe0b2355ffe91b18e5e0c30879b77860001b615a81565b61671a7fe2a5724c58c669a16572468186f4c68edf821dab6d51624cada23a7db7419aac60001b615a81565b6167467ffbffec43213e7b16d8f28c43016bc6080d04c81e33fb35392d902aac2ab90c2160001b615a81565b600073ffffffffffffffffffffffffffffffffffffffff16826020015173ffffffffffffffffffffffffffffffffffffffff1614156040518060400160405280600981526020017f6164647265737320300000000000000000000000000000000000000000000000815250906167f2576040517f08c379a00000000000000000000000000000000000000000000000000000000081526004016167e9919061b1a2565b60405180910390fd5b5061681f7fc4948e39760eaca30498b15381c0afea6306e8f6fc71c22f65ed7a90c1d6b3e760001b615a81565b61684b7f6f7edcca5c19bb561b835b147235ceb483ef0e3c25a7aa53a77523ba541ac21960001b615a81565b6168777f9993e55bca021d0505ff7ada46a8d81667fbcf343fe61b0b739f6fb0b02a180160001b615a81565b6168a37f1eac514e67d089084e1d042c798dfcde76735cbd537275a71f27624b437d5b4f60001b615a81565b816020015173ffffffffffffffffffffffffffffffffffffffff16826000015173ffffffffffffffffffffffffffffffffffffffff1614156040518060400160405280600d81526020017f6164647265737320657175616c0000000000000000000000000000000000000081525090616952576040517f08c379a0000000000000000000000000000000000000000000000000000000008152600401616949919061b1a2565b60405180910390fd5b5061697f7fde34bf24a14d041cf6793ef8a366f1af60b1c4246102d605ab00570c23afd38360001b615a81565b6169ab7f4186d046eb2c4a3df2a0ba060b1f66b276e4baf018799b067ffef46b11aa8bf660001b615a81565b6169d77f1f0ee9c325e17bc75144dcd9deed295bf8ee3bf34438d41a4dbf5252e300ad8360001b615a81565b616a037fb937c51aa2a4a0fdc021ac597739c75a05a1dfa15939e23b4ccd285cecf4c0de60001b615a81565b600073ffffffffffffffffffffffffffffffffffffffff16826040015173ffffffffffffffffffffffffffffffffffffffff1614156040518060400160405280600981526020017f616464726573732030000000000000000000000000000000000000000000000081525090616aaf576040517f08c379a0000000000000000000000000000000000000000000000000000000008152600401616aa6919061b1a2565b60405180910390fd5b50616adc7fad9dce9e5d23c1ae8aedfdd43f294e3b2b518766cb643afb362d4010893a70d460001b615a81565b616b087f34b2704daa065513ca6a4c1f00bbb7a5a746f39f7935da272ea0d7e91df1191760001b615a81565b616b347f012955fddd3b1503447da92856d4f60aa72baa15c6c7041d867a20a990ca4cbc60001b615a81565b616b418260800151617c85565b826040018360600182815250828152505050616b7f7f0dc461107369ad70358cb3ee2caf6c1fc9c232766826f37a1c80f6e133d7cff560001b615a81565b616bab7fd5dbb1081c32b2c1f4c5f1939f25d0cd8e54e8bd4e4a016eb04f58a4e8bbbd1860001b615a81565b616bb88260200151617e60565b816020018181525050616bed7f50cafa70f9a30ba564effd128ac899f2d721d76320943fbbd5aeb20a757e536460001b615a81565b616c197f6a5099727acdf66a205d498890858d7bc6f7bc457381478122f5313d2d74701660001b615a81565b600081602001519050616c4e7f711cc530f4edad6693674243e3517e3ba01a4a730fda21acc197ddd322a5067a60001b615a81565b616c7a7f11196ea0c10948f97697e3330dc2b58d040f46ca3cd63e3d64f9793e3687caa760001b615a81565b73eeeeeeeeeeeeeeeeeeeeeeeeeeeeeeeeeeeeeeee73ffffffffffffffffffffffffffffffffffffffff16836000015173ffffffffffffffffffffffffffffffffffffffff161415616f2357616cf27fd2f1a5a1dfc028bb2a76b228db8243cf7f4043e2b5f991e39c62d3682da4107760001b615a81565b616d1e7f2299dc9a922a267ce91735c039054d339d2614cdd71d780d76e22f587c573bec60001b615a81565b616d4a7f45df99640de158e238fc1573bd2b37c883b846d4c27d40ab2e97efc7cfd8145560001b615a81565b616d767f26bc0c57766ee304042bf1ad34b35c60b4e6d2d2d2f152a1d6f8dfd1e0e5eaa560001b615a81565b8260a0015134146040518060400160405280601181526020017f696e76616c6964206d73672076616c756500000000000000000000000000000081525090616df4576040517f08c379a0000000000000000000000000000000000000000000000000000000008152600401616deb919061b1a2565b60405180910390fd5b50616e217feb85a3280d2e05f0f5c6dafe4d32cd8aeea3aeecdf13aebb8e0bdbe064ce3d4660001b615a81565b616e4d7febd7e022880adae6f0503d647dbd2383061ae436fd4064bcdc12ba05bbdc590660001b615a81565b616e797f87d7cd88374fcd072695c3a78f1ec8fe6e237e89ec3d68e6253c1dff52325d3d60001b615a81565b60cb60009054906101000a900473ffffffffffffffffffffffffffffffffffffffff1673ffffffffffffffffffffffffffffffffffffffff1634846101200151604051616ec6919061ad21565b60006040518083038185875af1925050503d8060008114616f03576040519150601f19603f3d011682016040523d82523d6000602084013e616f08565b606091505b50836080018460a0018290528215151515815250505061734c565b616f4f7fa9f7d69ab9e881813a152efc03bfb888a50a2918bc3567a5261b12b2ea5bfb9d60001b615a81565b616f7b7fb22940571a906dc329ac5782b4a348ee445a099937ae34e59450631b8211fd5360001b615a81565b616fa77febcacddda0d9c9c49a808e205393a8f0a6e5934773302aadcde2a0d0abb5466360001b615a81565b616fd37f8ce19a2b2795dae578b7487de8210b968179dd46266c282c4fbae749cf3edbfe60001b615a81565b600034146040518060400160405280601181526020017f696e76616c6964206d73672076616c75650000000000000000000000000000008152509061704e576040517f08c379a0000000000000000000000000000000000000000000000000000000008152600401617045919061b1a2565b60405180910390fd5b5061707b7f2264f82613a88efd6496d113af740c17324214d4cca7730e780455cd566cf70060001b615a81565b6170a77f3028a9508b9595f72612269de47b7cee3e37daa94cc3a9b2f2fab51ab08572f160001b615a81565b6170d37f66e638311d64c772d6175e1547f5212aa1f1950b5128ec9164d4b5feea98965d60001b615a81565b3360cc60006101000a81548173ffffffffffffffffffffffffffffffffffffffff021916908373ffffffffffffffffffffffffffffffffffffffff1602179055506171407fe42ecb8da4e88a2b53bafcbb2725f0e7f2f44ffc9c0cf307142fb44e18a4eb2860001b615a81565b61716c7fd59d2aa472f2567113d59f1deb1b4784dff70a7418c027e10a6a28aeab8bb3d660001b615a81565b3060cd60006101000a81548173ffffffffffffffffffffffffffffffffffffffff021916908373ffffffffffffffffffffffffffffffffffffffff1602179055506171d97f92e61fba92bd0b11f20dbc19c598ab7fa319dc5d0949f639ffd64bbea38d6af960001b615a81565b6172057fade1a9dfb9dc346983db911df65c3a2f274b796a66eeec2820eea94574e3e5ee60001b615a81565b60cb60009054906101000a900473ffffffffffffffffffffffffffffffffffffffff1673ffffffffffffffffffffffffffffffffffffffff16836101200151604051617251919061ad21565b6000604051808303816000865af19150503d806000811461728e576040519150601f19603f3d011682016040523d82523d6000602084013e617293565b606091505b50836080018460a001829052821515151581525050506172d57fc2b84f0e59a10ae0a34d23a61d7554c2d80a84c825dda421921e65b36402e5c360001b615a81565b60cc60006101000a81549073ffffffffffffffffffffffffffffffffffffffff02191690556173267f4dbf21c9b0bc9e6ee387772fb70b45ab3e49a90ba4a7fb5d623622c12005d2a060001b615a81565b60cd60006101000a81549073ffffffffffffffffffffffffffffffffffffffff02191690555b6173787ff01c4a41e3777b3a5be0f510cce0ddf32fc56ea2d90f010bd186dc31f37adc8660001b615a81565b6173a47f1d16a039809940e469d0e2070870ba48a4f1082b7500548596643123e3c1122e60001b615a81565b6173d07f83b20d504e099524509f52d91ace98e7f0c55dfc3ed3ff2af50627ad814b416660001b615a81565b81608001516174188360a001516040518060400160405280601181526020017f64657820726f7574657220657272203a200000000000000000000000000000008152506189e6565b90617459576040517f08c379a0000000000000000000000000000000000000000000000000000000008152600401617450919061b1a2565b60405180910390fd5b506174867f39c300fbebab57aaeb44c8112b4aa7dbb26c3d3ad13149f9c88fda60bd0accb560001b615a81565b6174b27fbca86bf5540482f6d2b0100db44f5c5f26b341f52af4bc0fee1ced92607bdf6460001b615a81565b6174de7f5dce801fa5285d13aecd14397728fd5be1986cba5d9dd8b2240c519700f2edcb60001b615a81565b806174ec8460200151617e60565b6174f6919061b549565b82602001818152505061752b7ff0f6c923be77fa685e728c8585858299dbba2f94a2fe3a745fbe61ce0c4537ab60001b615a81565b6175577fab951768325899a9be140058cc03edf9c327b3d6d8550a444be36d2bd801767e60001b615a81565b6175837ff7fef87cdfe0753808b7818f66535aaf849a8ec6f0292edf897017cdf687627060001b615a81565b8260c001518260400151617597919061b499565b826020015110156040518060400160405280600e81526020017f6d696e20616d6f756e742065727200000000000000000000000000000000000081525090617615576040517f08c379a000000000000000000000000000000000000000000000000000000000815260040161760c919061b1a2565b60405180910390fd5b506176427f612b505e88bff19f62ae7a0277d9d77427c37a2eb8e47369d5f11f09ba91862f60001b615a81565b61766e7f251410a72c1591c3985cc94ade113ed1b1009ed53ef9fb0e192dabb2af4e347060001b615a81565b61769a7fcc035ff385e867367d6c107c5d5a409bdd093f4bc1f90e0e0dad1ca8d8a4c4ad60001b615a81565b6176cf60ce60009054906101000a900473ffffffffffffffffffffffffffffffffffffffff1684602001518460400151617fc4565b6176fb7f9f681f536b00770769556014c9a6289d62e91c27ff56c4bb3c87674b24f6725160001b615a81565b6177277f8f30cfed11c98cdd3a784c709860d0b00b7b3fe8500e947b36a6818caa71661f60001b615a81565b8160400151826020015161773b919061b549565b8260200181815250506177707f5582660dba916aece0f2974a88bc85cb1d86fc029f14d7d97d421de47b3ffda560001b615a81565b61779c7ffc882690856efc4cd01d1915ad1ed7b22af798bd24bebab016c30297cc07e66860001b615a81565b73eeeeeeeeeeeeeeeeeeeeeeeeeeeeeeeeeeeeeeee73ffffffffffffffffffffffffffffffffffffffff16836020015173ffffffffffffffffffffffffffffffffffffffff161415617906576178147f5519c7a02fb3203038e643ff91105e54dcb33e28e38dcda164bbc57fe7196de760001b615a81565b6178407fcd28af354cb009850a0634ea42dde44f9cbe5321a6630bee557032d5e85dac9160001b615a81565b61786c7f80f2bf61b7bbd220debdf908bb9fd037109b12692d2251afb0f3532b649805eb60001b615a81565b816000015173ffffffffffffffffffffffffffffffffffffffff16636f82189d8360200151338660400151338860200151886020015189606001518b61010001516040518963ffffffff1660e01b81526004016178cf979695949392919061ae45565b6000604051808303818588803b1580156178e857600080fd5b505af11580156178fc573d6000803e3d6000fd5b5050505050617a8a565b6179327f213db50f6257f63c53049b52f83d5f33af634224ece3a9cbd82353c9c8083e6360001b615a81565b61795e7f4b609a82eddc921b910199e2e1e672134d6d4a6b403db718e977f878858e4f7260001b615a81565b61798a7fb619edb1f1ec00fedcba310275b47603f8541a6557fa0d535568727ce7e405af60001b615a81565b6179a1826000015184602001518460200151617fc4565b6179cd7f8054b93c5b36ca2a5846dd141d216be84076d981d2ff1553be09ee9933b3c09460001b615a81565b6179f97f4ba43ce4dccf9ccdb27e1c8b0d082d6ce3cc8415be74b302939f7c81a781e28660001b615a81565b816000015173ffffffffffffffffffffffffffffffffffffffff16636f82189d338560400151338760200151876020015189608001518a61010001516040518863ffffffff1660e01b8152600401617a57979695949392919061ae45565b600060405180830381600087803b158015617a7157600080fd5b505af1158015617a85573d6000803e3d6000fd5b505050505b617ab67f1e4e94bbc8aea6b9790d5185db57d806c5eb8d4ec806727358404d22f9ff864b60001b615a81565b617ae27fd000c4a4a940ad316f7a6db735f2f34fb5b0dd298ccb7ca393d442e9d6a7909f60001b615a81565b82606001517fb9dae57db52a734b183c77227c96068231beb6a93a060ca7a9d3164f716714ea33856040015186600001518760a001518860200151886020015189604001518a60c00151604051617b4098979695949392919061af8c565b60405180910390a2617b747fa1c6b41b073f2cbdba25cee8ffd966c75bf3e6149f292752ea6bd708c7c7456f60001b615a81565b617ba07fa041c664eefa4d3999ddf833a2d715716bb619431e4281af70c5efdd879fed1260001b615a81565b617bcc7fac3b4804ef439481140f76dc2855bae38cec659490237ce6f8b93910f90f5fa460001b615a81565b80617bda8460200151617e60565b10156040518060400160405280601481526020017f736c617368206d75636820746f6f206d6f6e657900000000000000000000000081525090617c53576040517f08c379a0000000000000000000000000000000000000000000000000000000008152600401617c4a919061b1a2565b60405180910390fd5b50617c807fc8193efd8d4da22b40fe675ea2c279a354173c2e1dd1f46c4f52bf8f13f133cf60001b615a81565b505050565b600080617cb47f5ccda7d29d33bb237b2e73de777150b74ca76b52ca274f8eec476ad355e2857260001b615a81565b617ce07f7049e8d006691f76ffab478475003b7c20ba245841f9d5f8dcadb5a46745c39060001b615a81565b617d0c7fec1a6cb5e767d0a968f98d8dd3fe252fc04c6d99000149721656d78538727b9360001b615a81565b60207fffffffffffffffffffffffffffffffffffffffffffffffffffffffff000000008416901c63ffffffff841691509150915091565b617d6f7f31f644d4b135fd8e6bbcdd9605248a91be2da69231b614a06c8ff3ccccc15b8b60001b615a81565b617d9b7fbd2b5736b577988e582294f624460cb5f9ae8753a318bbe704b4e5a82944ed7460001b615a81565b617dc77fa3c4eeb21402769a0f3b6dab9673fc363f1dfcb383cce82cf9b7602b0554869d60001b615a81565b60ca60009054906101000a900473ffffffffffffffffffffffffffffffffffffffff1673ffffffffffffffffffffffffffffffffffffffff16630a5ea466838686856040518563ffffffff1660e01b8152600401617e28949392919061af47565b600060405180830381600087803b158015617e4257600080fd5b505af1158015617e56573d6000803e3d6000fd5b5050505050505050565b6000617e8e7f45701b10d86205ece4c0a059742e262c39a71057773e251d5d69a121626cea5b60001b615a81565b617eba7f163be84c427662972000067b371c9a3fbb73a0aee9c614e3aa93e7c704a56a4260001b615a81565b617ee67f347d3fcee8da7a696bb5a7a95c76a42ef29ce5771e357a47771edc86893ff89460001b615a81565b73eeeeeeeeeeeeeeeeeeeeeeeeeeeeeeeeeeeeeeee73ffffffffffffffffffffffffffffffffffffffff168273ffffffffffffffffffffffffffffffffffffffff1614617fbb578173ffffffffffffffffffffffffffffffffffffffff166370a08231306040518263ffffffff1660e01b8152600401617f66919061ae01565b60206040518083038186803b158015617f7e57600080fd5b505afa158015617f92573d6000803e3d6000fd5b505050506040513d601f19601f82011682018060405250810190617fb6919061a840565b617fbd565b475b9050919050565b617ff07f494d95ef1fb9a47fb493e5c701782123ba74ef584ca56540f69203ddfaa2a4c660001b615a81565b61801c7fe9f97880e592f9522fa2a48b7dd4c32ee76b70ff20d00b8e79a80fd9f441ece360001b615a81565b6180487fa0a61d2ed26d182197c2f59cbdfeb4c5d5d9fc9535a1f4684ef90a442ab683ef60001b615a81565b60008111156182a25761807d7fcce8408b88f641def5b4119ccb7a4de1e2f1cb8c71e78ee877c8e547195a491960001b615a81565b6180a97f6aeb3a29701ca50efe8ea922613092cbfc052adba1346d838683e76cb71471e360001b615a81565b6180d57f69eae38f605387d0612aafecca88eca75affa55b344375395bb75248351e8bea60001b615a81565b73eeeeeeeeeeeeeeeeeeeeeeeeeeeeeeeeeeeeeeee73ffffffffffffffffffffffffffffffffffffffff168273ffffffffffffffffffffffffffffffffffffffff1614156181ed576181497f0d16e6d4659e45fe0733cde02094bf39495a6fcbb32fe0b3abaebb3108ba4f5960001b615a81565b6181757ff47e1c0824cd05153b96ed51f30b2e0bc40347337c1f2ae9bac50ba4bba904df60001b615a81565b6181a17fe6326b81daa0031501dcda62ba8c4c9836551213004591d480c8873a7d8c9b1960001b615a81565b8273ffffffffffffffffffffffffffffffffffffffff166108fc829081150290604051600060405180830381858888f193505050501580156181e7573d6000803e3d6000fd5b5061829d565b6182197f7a7226da3e6084f9b3730ae127d8cf6f4d0e0cf758a0555c0872bdba70df33b860001b615a81565b6182457f1ea8373819428be6fd0cacb130bafb55cc8725f2c5047dae105cdcee241f638c60001b615a81565b6182717f8e126a31d31fb3f9ed2af7f1ae458acb62790ea22cec1b6d6e7afd26b5cca73860001b615a81565b61829c83828473ffffffffffffffffffffffffffffffffffffffff1661919e9092919063ffffffff16565b5b6182cf565b6182ce7f743345ff2b1673f2be45b060ef99d71284041a3f55ede6fbfc4f5a195c5cf27d60001b615a81565b5b505050565b6183007fc188cb054eb3de611abca579971d5527f397b52d48043ca0e638c69ef700f15b60001b615a81565b61832c7f2a9faa53f31c4fc3947e3d02989f3c8a9ed355648ece7fdad3078bc4df7c272960001b615a81565b6183587fa1af357d0fd7383b36cb0cb8cfc99b8628a3dc16b1c83fd7b7058b38c3bca2c860001b615a81565b60008373ffffffffffffffffffffffffffffffffffffffff1663dd62ed3e30856040518363ffffffff1660e01b815260040161839592919061ae1c565b60206040518083038186803b1580156183ad57600080fd5b505afa1580156183c1573d6000803e3d6000fd5b505050506040513d601f19601f820116820180604052508101906183e5919061a840565b141561849f576184177f0dc47f7deeb289bffffaada61813412d2dfb401e782c51c9e186786648d1044360001b615a81565b6184437f1cbe1daf82d6fbb438deb2d8c2271295de9e42a7701777bbf0c730223575fe3660001b615a81565b61846f7f31b434e3b0d6d000748cf80c97fe1eada87b3eddbb802e78aaaf6152ff56518060001b615a81565b61849a82828573ffffffffffffffffffffffffffffffffffffffff166192249092919063ffffffff16565b6185d3565b6184cb7f7ad70223aaddc430b96fcdb523f3db25823ac4cee60896292f9a614bdfe146e460001b615a81565b6184f77f01f5366a19b26b2ac7c2db10082ad5ce6f7d0707ee3c0236663787419b118a3060001b615a81565b6185237f7c36cfcd336977c1b7876ab0e9911ec11b22a5d91d17a3e89fc13fb0f3e8078160001b615a81565b61854f8260008573ffffffffffffffffffffffffffffffffffffffff166192249092919063ffffffff16565b61857b7fa30177674ff9c2e0e95022130cfdae606d1c3a2deb91422334fe5c450be4555060001b615a81565b6185a77f850b48ee310d38c737d092a9506405de89ce3bc9598799d787e6b680e70e7ca160001b615a81565b6185d282828573ffffffffffffffffffffffffffffffffffffffff166192249092919063ffffffff16565b5b505050565b6185e06136af565b61861f576040517f08c379a00000000000000000000000000000000000000000000000000000000081526004016186169061b1c4565b60405180910390fd5b6000603360006101000a81548160ff0219169083151502179055507f5db9ee0a495bf2e6ff9c91a7834c1ba4fdd244a5e8aa4e537bd38aeae4b073aa61866361867a565b604051618670919061ae01565b60405180910390a1565b600033905090565b6000606560009054906101000a900473ffffffffffffffffffffffffffffffffffffffff16905081606560006101000a81548173ffffffffffffffffffffffffffffffffffffffff021916908373ffffffffffffffffffffffffffffffffffffffff1602179055508173ffffffffffffffffffffffffffffffffffffffff168173ffffffffffffffffffffffffffffffffffffffff167f8be0079c531659141344cd1fd0a4f28419497f9722a3daafe3b4186f6b6457e060405160405180910390a35050565b60008060019054906101000a900460ff16156187bf5760018260ff16148015618777575061877530619382565b155b6187b6576040517f08c379a00000000000000000000000000000000000000000000000000000000081526004016187ad9061b244565b60405180910390fd5b60009050618833565b8160ff1660008054906101000a900460ff1660ff1610618814576040517f08c379a000000000000000000000000000000000000000000000000000000000815260040161880b9061b244565b60405180910390fd5b816000806101000a81548160ff021916908360ff160217905550600190505b919050565b600060019054906101000a900460ff16618887576040517f08c379a000000000000000000000000000000000000000000000000000000000815260040161887e9061b2e4565b60405180910390fd5b61888f6193a5565b565b600060019054906101000a900460ff166188e0576040517f08c379a00000000000000000000000000000000000000000000000000000000081526004016188d79061b2e4565b60405180910390fd5b6188e8619411565b565b600060019054906101000a900460ff16618939576040517f08c379a00000000000000000000000000000000000000000000000000000000081526004016189309061b2e4565b60405180910390fd5b61894161946a565b565b61894b6136af565b1561898b576040517f08c379a00000000000000000000000000000000000000000000000000000000081526004016189829061b224565b60405180910390fd5b6001603360006101000a81548160ff0219169083151502179055507f62e78cea01bee320cd4e420270b5ea74000d11b0c9f74754ebdbfc544b05a2586189cf61867a565b6040516189dc919061ae01565b60405180910390a1565b6060618a147f5feacc0d3d6045f45f4f48a69c271fc0a7617689112da0130385a6df74a1f07860001b6194cb565b618a407f85a91cc9c14e437a9a1bd16e6cc9a5392e8fe6931b126cf24bc62fb30dfa548060001b6194cb565b618a6c7f5fcb61195d29700a8bb90fd1fccb6e6d476069543ca1439d7ba372e67e6e020060001b6194cb565b60048351106190e657618aa17f622f0b6f0d1d41de7cc6a396df1fc5e0d822e4fcd070877d8ab95ff7ebf39f3e60001b6194cb565b618acd7fcd8afde179b4d041d6c4214a7e23492a25409239a4ac867110050534dde5cc0e60001b6194cb565b618af97fa6e64348ea88950473b046682adac6027683833b41797d4c38535e109f1ee59c60001b6194cb565b6000618b277fed3e671433b9307d1cc26e4199aa7fbf4f0f4a4c02ee6683f41b1a2d8d4a3d1460001b6194cb565b60208401519050618b5a7fc4f6cdeefc3e4f4279944abae0c750b2847a16053f6214701b722b8aa6daa40460001b6194cb565b618b867f9d931de13d0510d1c0fa5d3a1bd84dae21a9262ef0219c848ad45a49bc68a94d60001b6194cb565b7f08c379a0afcc32b1a39302f7cb8073359698411ab5fd6e3edb2c02c0b5fba8aa7bffffffffffffffffffffffffffffffffffffffffffffffffffffffff1916817bffffffffffffffffffffffffffffffffffffffffffffffffffffffff1916148015618bf557506044845110155b15618ea557618c267faf64e2039921a78aa9d1423c46c8ebf286641c4e8df2b9a05b672baffed56e2a60001b6194cb565b618c527f77e59560441db125fde45b00619a4552a0d5736dd24f297d987ae6885760334760001b6194cb565b618c7e7f286796dc996690f023f7e287b013df83d5162e1b3ef3591e0a60eb284e06118760001b6194cb565b6000618cac7fd9fefdba4736491275d143efe37d1d8481358008f290be9615e4f11d1311121a60001b6194cb565b618cd87f2510c124e562d0a940503bd61e7c9cec35f63bde922cd2766419a1afc5cde02460001b6194cb565b6060618d067f57c36d99a2426f11cd2abab91e3c64b632b1120a3a38280cfd8f728ec613228160001b6194cb565b602486015191508160240186019050618d417fb9150d6c72f8289500b4b2376039caf5a8a273f8edd1fe7e6b2aab77a503c8a260001b6194cb565b618d6d7fa711f69d00b3c2c974c33fe23c668c4c681b453422e2aae07971ab2ffc2cb9f260001b6194cb565b618d997f6d77d3ebad49bfdb45db0186d0d7b5c23ffc503f959cf06f7850aee59791b4f660001b6194cb565b8051826024618da8919061b499565b618db2919061b499565b86511015618df5576040517f08c379a0000000000000000000000000000000000000000000000000000000008152600401618dec9061b2a4565b60405180910390fd5b618e217f428f3377f757f76bd61a12062fa568c0360677910381eac4b2288bb839f37b6d60001b6194cb565b618e4d7fce298b4d38801ed0c54b1fd8dfe07fee2f726d424f31e21abe715c4080ba7b1360001b6194cb565b618e797fabe83b79ab87dcb0ad13c70bff96791231335db8500e934298c8805c4628ddef60001b6194cb565b8481604051602001618e8c92919061adac565b6040516020818303038152906040529350505050619198565b618ed17fa0e3bb13a9f1e0f5c9054ac5762b44bcf4fec04e58699c9ca1b58050b19e8b3b60001b6194cb565b618efd7f1ed933ae85ce27873017f0fc35502d9232d4ce28d09514614bea8e83fad0143d60001b6194cb565b7f4e487b71539e0164c9d29506cc725e49342bcac15e0927282bf30fedfe1c72687bffffffffffffffffffffffffffffffffffffffffffffffffffffffff1916817bffffffffffffffffffffffffffffffffffffffffffffffffffffffff1916148015618f6b575060248451145b156190b457618f9c7fae5f650ebf7d754f40f8949378d2fc9a95511ed144e3a3ff056965b454b4dbee60001b6194cb565b618fc87f26eb7c471716249d9514160b389a5b8cd041554773ac59be63ca87f187882fb860001b6194cb565b618ff47f9f8b0e63d6f019cd182b34bf3f7f4e04d245f0f91b59c891ddfc4baf18dfbdea60001b6194cb565b60006190227f99c7abbb65fde1a5e04e3b4531ed1c46dec5f4891af4c72360d66fccbbcdb1f360001b6194cb565b602485015190506190557f1b7dea24ebb76df2984b36513435a44ca7310363af85dec7a8ca6afc4353bf5f60001b6194cb565b6190817f0eda472fad431a7da1809fcebff213bd0820f556ebeb002d3fcd058e8d997ab860001b6194cb565b8361908b826194ce565b60405160200161909c92919061ad38565b60405160208183030381529060405292505050619198565b6190e07f69f50fdb18467d727a6c35254c556e10d9cca83b688151e82ab8f216a2e56d8360001b6194cb565b50619113565b6191127f739dc5c104be25511231733c66e7ccea4a8a9331b7f20409d7e2218ac8b934af60001b6194cb565b5b61913f7f265398499ba97e0c2823adea7ef40b74a44e2ee4e337f4f7864e244bd97860c960001b6194cb565b61916b7f19e54bb86af7669e7bf59953dd40a988b4cb2fb9a9b439d06855c490a27c9ea960001b6194cb565b8161917584619583565b60405160200161918692919061ad72565b60405160208183030381529060405290505b92915050565b61921f8363a9059cbb60e01b84846040516024016191bd92919061b105565b604051602081830303815290604052907bffffffffffffffffffffffffffffffffffffffffffffffffffffffff19166020820180517bffffffffffffffffffffffffffffffffffffffffffffffffffffffff8381831617835250505050619b39565b505050565b60008114806192bd575060008373ffffffffffffffffffffffffffffffffffffffff1663dd62ed3e30856040518363ffffffff1660e01b815260040161926b92919061ae1c565b60206040518083038186803b15801561928357600080fd5b505afa158015619297573d6000803e3d6000fd5b505050506040513d601f19601f820116820180604052508101906192bb919061a840565b145b6192fc576040517f08c379a00000000000000000000000000000000000000000000000000000000081526004016192f39061b344565b60405180910390fd5b61937d8363095ea7b360e01b848460405160240161931b92919061b105565b604051602081830303815290604052907bffffffffffffffffffffffffffffffffffffffffffffffffffffffff19166020820180517bffffffffffffffffffffffffffffffffffffffffffffffffffffffff8381831617835250505050619b39565b505050565b6000808273ffffffffffffffffffffffffffffffffffffffff163b119050919050565b600060019054906101000a900460ff166193f4576040517f08c379a00000000000000000000000000000000000000000000000000000000081526004016193eb9061b2e4565b60405180910390fd5b6000603360006101000a81548160ff021916908315150217905550565b600060019054906101000a900460ff16619460576040517f08c379a00000000000000000000000000000000000000000000000000000000081526004016194579061b2e4565b60405180910390fd5b6001609781905550565b600060019054906101000a900460ff166194b9576040517f08c379a00000000000000000000000000000000000000000000000000000000081526004016194b09061b2e4565b60405180910390fd5b6194c96194c461867a565b618682565b565b50565b60606194fc7f75b3f20244cb8ed1cb2c1e0e1a7638e1f9bdcefea49901591eaa35c7d2981ea560001b6194cb565b6195287f031c9cd204112b2c0992bcd30c5d6e23da6b2106b3e80b06051aa5cf326ae68360001b6194cb565b6195547f9f022aadfe3f777f11da1bec7e6e28384829b09c11d19eda9301fa326e531de560001b6194cb565b61957c82604051602001619568919061ade6565b604051602081830303815290604052619583565b9050919050565b60606195b17f423e9653c2a13ab9c0552945b4326c2bea09496699f3bd9f0c9afd5ce5b9112e60001b6194cb565b6195dd7f0e8f304654de93bd9049dd0eb8fe8cf627e9870aa200d88ab8c1ba1baa6c6b0e60001b6194cb565b6196097fa875c048c7b1c5b423106254eadd18a447b47517091cae548ed9b8acbe31a1bd60001b6194cb565b60006f3031323334353637383961626364656660801b905061964d7f8382465b0bab0b0656eba550cd9866658cbede7c3d76fb7c73fd76dcde4f82a960001b6194cb565b6196797fbafd6142ad9a592cc4feeade218c378e66ba6d0635a6b4bba63b505279e3769b60001b6194cb565b600060028451619689919061b4ef565b6002619695919061b499565b67ffffffffffffffff8111156196ae576196ad61b76d565b5b6040519080825280601f01601f1916602001820160405280156196e05781602001600182028036833780820191505090505b50905061970f7fb002fb49762cb08e16f2afc1ade823a00ccd2043d7074fb1913e1a03ba0550a760001b6194cb565b61973b7f7d7fb5c27e86f5dc109fc4d2903920091844e3e496a6afbb552a1e04e7ee0d8460001b6194cb565b7f3000000000000000000000000000000000000000000000000000000000000000816000815181106197705761976f61b73e565b5b60200101907effffffffffffffffffffffffffffffffffffffffffffffffffffffffffffff1916908160001a9053506197cb7fce07ca17a7aea23a2f739caac9781f479fbf648e64a6ef44274a6f52535eaece60001b6194cb565b6197f77f5e30571ad03bb7f6ff745daaf9f1fcd3e0aef5e7fe1b160480f18023e089489e60001b6194cb565b7f78000000000000000000000000000000000000000000000000000000000000008160018151811061982c5761982b61b73e565b5b60200101907effffffffffffffffffffffffffffffffffffffffffffffffffffffffffffff1916908160001a9053506198877f20549acc0095b138bafe40f42745b33410c128fe688e4f609573937ce6eba0f760001b6194cb565b6198b37f6ddcff2c868af45c9fef47eec86d9652205cc09d9fa156c365c1cba4323e04a660001b6194cb565b60005b8451811015619ad6576198eb7fc023687cd317cdb7abcd7183d414f31560f6acdbad8cf1f71f348682a8cff4e960001b6194cb565b6199177fae07e1815bcde30eb9e1b38679ef00672c8fe8340d096511f24baa051e61b6fb60001b6194cb565b82600486838151811061992d5761992c61b73e565b5b602001015160f81c60f81b7effffffffffffffffffffffffffffffffffffffffffffffffffffffffffffff1916901c60f81c60ff16601081106199735761997261b73e565b5b1a60f81b826002836002619987919061b4ef565b619991919061b499565b815181106199a2576199a161b73e565b5b60200101907effffffffffffffffffffffffffffffffffffffffffffffffffffffffffffff1916908160001a9053506199fd7fb73568d34d62c46ad97d97f542b138a0544ed4f055e0f2d90e4b464437d7736560001b6194cb565b619a297fd22177b2eccb679db7d1dfd9ca19ed6bfeff3a71588fd86b3afb0e59db65faa760001b6194cb565b82600f60f81b868381518110619a4257619a4161b73e565b5b602001015160f81c60f81b1660f81c60ff1660108110619a6557619a6461b73e565b5b1a60f81b826003836002619a79919061b4ef565b619a83919061b499565b81518110619a9457619a9361b73e565b5b60200101907effffffffffffffffffffffffffffffffffffffffffffffffffffffffffffff1916908160001a9053508080619ace9061b6b2565b9150506198b6565b50619b037f08559233428ef0812a715ba48b3cd0131008db0feec06357ed196327aa6b815860001b6194cb565b619b2f7fbc3d992d368257bdeb09b390074e5cb58efb1995845144137f465636a8a73ddb60001b6194cb565b8092505050919050565b6000619b9b826040518060400160405280602081526020017f5361666545524332303a206c6f772d6c6576656c2063616c6c206661696c65648152508573ffffffffffffffffffffffffffffffffffffffff16619c009092919063ffffffff16565b9050600081511115619bfb5780806020019051810190619bbb919061a646565b619bfa576040517f08c379a0000000000000000000000000000000000000000000000000000000008152600401619bf19061b304565b60405180910390fd5b5b505050565b6060619c0f8484600085619c18565b90509392505050565b606082471015619c5d576040517f08c379a0000000000000000000000000000000000000000000000000000000008152600401619c549061b204565b60405180910390fd5b619c6685619382565b619ca5576040517f08c379a0000000000000000000000000000000000000000000000000000000008152600401619c9c9061b2c4565b60405180910390fd5b6000808673ffffffffffffffffffffffffffffffffffffffff168587604051619cce919061ad21565b60006040518083038185875af1925050503d8060008114619d0b576040519150601f19603f3d011682016040523d82523d6000602084013e619d10565b606091505b5091509150619d20828286619d2c565b92505050949350505050565b60608315619d3c57829050619d8c565b600083511115619d4f5782518084602001fd5b816040517f08c379a0000000000000000000000000000000000000000000000000000000008152600401619d83919061b1a2565b60405180910390fd5b9392505050565b6040518060e00160405280600073ffffffffffffffffffffffffffffffffffffffff16815260200160008152602001600081526020016000815260200160001515815260200160608152602001606081525090565b6000619dfb619df68461b389565b61b364565b90508083825260208201905082856020860282011115619e1e57619e1d61b7b5565b5b60005b85811015619e4e5781619e348882619f0a565b845260208401935060208301925050600181019050619e21565b5050509392505050565b6000619e6b619e668461b3b5565b61b364565b90508083825260208201905082856020860282011115619e8e57619e8d61b7b5565b5b60005b85811015619ebe5781619ea4888261a03c565b845260208401935060208301925050600181019050619e91565b5050509392505050565b6000619edb619ed68461b3e1565b61b364565b905082815260208101848484011115619ef757619ef661b7ba565b5b619f0284828561b63f565b509392505050565b600081359050619f198161bb77565b92915050565b600081519050619f2e8161bb77565b92915050565b60008083601f840112619f4a57619f4961b7a1565b5b8235905067ffffffffffffffff811115619f6757619f6661b79c565b5b602083019150836020820283011115619f8357619f8261b7b5565b5b9250929050565b600082601f830112619f9f57619f9e61b7a1565b5b8135619faf848260208601619de8565b91505092915050565b600082601f830112619fcd57619fcc61b7a1565b5b8135619fdd848260208601619e58565b91505092915050565b60008083601f840112619ffc57619ffb61b7a1565b5b8235905067ffffffffffffffff81111561a0195761a01861b79c565b5b60208301915083602082028301111561a0355761a03461b7b5565b5b9250929050565b60008135905061a04b8161bb8e565b92915050565b60008151905061a0608161bb8e565b92915050565b60008135905061a0758161bba5565b92915050565b60008083601f84011261a0915761a09061b7a1565b5b8235905067ffffffffffffffff81111561a0ae5761a0ad61b79c565b5b60208301915083600182028301111561a0ca5761a0c961b7b5565b5b9250929050565b600082601f83011261a0e65761a0e561b7a1565b5b813561a0f6848260208601619ec8565b91505092915050565b600060c0828403121561a1155761a11461b7ab565b5b61a11f60c061b364565b9050600061a12f8482850161a4c9565b600083015250602061a14384828501619f0a565b602083015250604061a15784828501619f0a565b604083015250606061a16b8482850161a4c9565b606083015250608061a17f8482850161a4c9565b60808301525060a082013567ffffffffffffffff81111561a1a35761a1a261b7b0565b5b61a1af8482850161a0d1565b60a08301525092915050565b600060a0828403121561a1d15761a1d061b7ab565b5b61a1db60a061b364565b9050600061a1eb84828501619f0a565b600083015250602061a1ff8482850161a4c9565b602083015250604061a2138482850161a4c9565b604083015250606061a2278482850161a066565b606083015250608082013567ffffffffffffffff81111561a24b5761a24a61b7b0565b5b61a2578482850161a0d1565b60808301525092915050565b6000610140828403121561a27a5761a27961b7a6565b5b81905092915050565b6000610140828403121561a29a5761a29961b7ab565b5b61a2a561014061b364565b9050600061a2b584828501619f0a565b600083015250602061a2c984828501619f0a565b602083015250604061a2dd84828501619f0a565b604083015250606061a2f18482850161a4c9565b606083015250608061a3058482850161a4c9565b60808301525060a061a3198482850161a4c9565b60a08301525060c061a32d8482850161a4c9565b60c08301525060e061a3418482850161a4c9565b60e08301525061010082013567ffffffffffffffff81111561a3665761a36561b7b0565b5b61a3728482850161a0d1565b6101008301525061012082013567ffffffffffffffff81111561a3985761a39761b7b0565b5b61a3a48482850161a0d1565b6101208301525092915050565b6000610120828403121561a3c85761a3c761b7ab565b5b61a3d361012061b364565b9050600061a3e384828501619f0a565b600083015250602061a3f784828501619f0a565b602083015250604061a40b84828501619f0a565b604083015250606061a41f8482850161a4c9565b606083015250608061a4338482850161a4c9565b60808301525060a061a4478482850161a4c9565b60a08301525060c061a45b8482850161a066565b60c08301525060e082013567ffffffffffffffff81111561a47f5761a47e61b7b0565b5b61a48b8482850161a0d1565b60e08301525061010082013567ffffffffffffffff81111561a4b05761a4af61b7b0565b5b61a4bc8482850161a0d1565b6101008301525092915050565b60008135905061a4d88161bbbc565b92915050565b60008151905061a4ed8161bbbc565b92915050565b60006020828403121561a5095761a50861b7c4565b5b600061a51784828501619f0a565b91505092915050565b60006020828403121561a5365761a53561b7c4565b5b600061a54484828501619f1f565b91505092915050565b6000806040838503121561a5645761a56361b7c4565b5b600083013567ffffffffffffffff81111561a5825761a58161b7bf565b5b61a58e85828601619f8a565b925050602083013567ffffffffffffffff81111561a5af5761a5ae61b7bf565b5b61a5bb85828601619fb8565b9150509250929050565b6000806000806040858703121561a5df5761a5de61b7c4565b5b600085013567ffffffffffffffff81111561a5fd5761a5fc61b7bf565b5b61a60987828801619fe6565b9450945050602085013567ffffffffffffffff81111561a62c5761a62b61b7bf565b5b61a63887828801619f34565b925092505092959194509250565b60006020828403121561a65c5761a65b61b7c4565b5b600061a66a8482850161a051565b91505092915050565b60006020828403121561a6895761a68861b7c4565b5b600082013567ffffffffffffffff81111561a6a75761a6a661b7bf565b5b61a6b38482850161a0ff565b91505092915050565b60006020828403121561a6d25761a6d161b7c4565b5b600082013567ffffffffffffffff81111561a6f05761a6ef61b7bf565b5b61a6fc8482850161a1bb565b91505092915050565b60008060006040848603121561a71e5761a71d61b7c4565b5b600084013567ffffffffffffffff81111561a73c5761a73b61b7bf565b5b61a7488682870161a263565b935050602084013567ffffffffffffffff81111561a7695761a76861b7bf565b5b61a7758682870161a07b565b92509250509250925092565b60006020828403121561a7975761a79661b7c4565b5b600082013567ffffffffffffffff81111561a7b55761a7b461b7bf565b5b61a7c18482850161a283565b91505092915050565b60006020828403121561a7e05761a7df61b7c4565b5b600082013567ffffffffffffffff81111561a7fe5761a7fd61b7bf565b5b61a80a8482850161a3b1565b91505092915050565b60006020828403121561a8295761a82861b7c4565b5b600061a8378482850161a4c9565b91505092915050565b60006020828403121561a8565761a85561b7c4565b5b600061a8648482850161a4de565b91505092915050565b6000806040838503121561a8845761a88361b7c4565b5b600061a8928582860161a4c9565b925050602061a8a38582860161a066565b9150509250929050565b600061a8b9838361a941565b60208301905092915050565b61a8ce8161b57d565b82525050565b600061a8df8261b422565b61a8e9818561b450565b935061a8f48361b412565b8060005b8381101561a92557815161a90c888261a8ad565b975061a9178361b443565b92505060018101905061a8f8565b5085935050505092915050565b61a93b8161b58f565b82525050565b61a94a8161b59b565b82525050565b61a96161a95c8261b5a5565b61b6fb565b82525050565b600061a973838561b472565b935061a98083858461b63f565b82840190509392505050565b600061a9978261b42d565b61a9a1818561b461565b935061a9b181856020860161b64e565b61a9ba8161b7c9565b840191505092915050565b600061a9d08261b42d565b61a9da818561b472565b935061a9ea81856020860161b64e565b80840191505092915050565b61a9ff8161b608565b82525050565b61aa0e8161b61a565b82525050565b600061aa1f8261b438565b61aa29818561b47d565b935061aa3981856020860161b64e565b61aa428161b7c9565b840191505092915050565b600061aa588261b438565b61aa62818561b48e565b935061aa7281856020860161b64e565b80840191505092915050565b600061aa8b60148361b47d565b915061aa968261b7da565b602082019050919050565b600061aaae60268361b47d565b915061aab98261b803565b604082019050919050565b600061aad160268361b47d565b915061aadc8261b852565b604082019050919050565b600061aaf460018361b48e565b915061aaff8261b8a1565b600182019050919050565b600061ab1760108361b47d565b915061ab228261b8ca565b602082019050919050565b600061ab3a60068361b48e565b915061ab458261b8f3565b600682019050919050565b600061ab5d602e8361b47d565b915061ab688261b91c565b604082019050919050565b600061ab8060088361b48e565b915061ab8b8261b96b565b600882019050919050565b600061aba360208361b47d565b915061abae8261b994565b602082019050919050565b600061abc660138361b47d565b915061abd18261b9bd565b602082019050919050565b600061abe960158361b47d565b915061abf48261b9e6565b602082019050919050565b600061ac0c601d8361b47d565b915061ac178261ba0f565b602082019050919050565b600061ac2f602b8361b47d565b915061ac3a8261ba38565b604082019050919050565b600061ac52602a8361b47d565b915061ac5d8261ba87565b604082019050919050565b600061ac75601f8361b47d565b915061ac808261bad6565b602082019050919050565b600061ac9860368361b47d565b915061aca38261baff565b604082019050919050565b600061acbb60068361b48e565b915061acc68261bb4e565b600682019050919050565b61acda8161b5f1565b82525050565b61acf161acec8261b5f1565b61b705565b82525050565b600061ad03828661a950565b60048201915061ad1482848661a967565b9150819050949350505050565b600061ad2d828461a9c5565b915081905092915050565b600061ad44828561aa4d565b915061ad4f8261ab2d565b915061ad5b828461aa4d565b915061ad668261aae7565b91508190509392505050565b600061ad7e828561aa4d565b915061ad898261ab73565b915061ad95828461aa4d565b915061ada08261aae7565b91508190509392505050565b600061adb8828561aa4d565b915061adc38261acae565b915061adcf828461a9c5565b915061adda8261aae7565b91508190509392505050565b600061adf2828461ace0565b60208201915081905092915050565b600060208201905061ae16600083018461a8c5565b92915050565b600060408201905061ae31600083018561a8c5565b61ae3e602083018461a8c5565b9392505050565b600060e08201905061ae5a600083018a61a8c5565b61ae67602083018961a8c5565b61ae74604083018861a8c5565b61ae81606083018761a8c5565b61ae8e608083018661acd1565b61ae9b60a083018561acd1565b81810360c083015261aead818461a98c565b905098975050505050505050565b60006101008201905061aed1600083018b61a8c5565b61aede602083018a61a8c5565b61aeeb604083018961a8c5565b61aef8606083018861a9f6565b61af05608083018761acd1565b61af1260a083018661acd1565b81810360c083015261af24818561a98c565b905081810360e083015261af38818461a8d4565b90509998505050505050505050565b600060808201905061af5c600083018761a8c5565b61af69602083018661a8c5565b61af76604083018561a8c5565b61af83606083018461acd1565b95945050505050565b60006101008201905061afa2600083018b61a8c5565b61afaf602083018a61a8c5565b61afbc604083018961a8c5565b61afc9606083018861acd1565b61afd6608083018761a8c5565b61afe360a083018661acd1565b61aff060c083018561acd1565b81810360e083015261b002818461a8d4565b90509998505050505050505050565b60006101008201905061b027600083018b61a8c5565b61b034602083018a61a8c5565b61b041604083018961a8c5565b61b04e606083018861acd1565b61b05b608083018761a9f6565b61b06860a083018661acd1565b81810360c083015261b07a818561a98c565b905081810360e083015261b08e818461a8d4565b90509998505050505050505050565b600060c08201905061b0b2600083018961a8c5565b61b0bf602083018861a8c5565b61b0cc604083018761a8c5565b61b0d9606083018661acd1565b61b0e6608083018561acd1565b81810360a083015261b0f8818461a8d4565b9050979650505050505050565b600060408201905061b11a600083018561a8c5565b61b127602083018461acd1565b9392505050565b600060608201905061b143600083018661a8c5565b61b150602083018561acd1565b818103604083015261b162818461a8d4565b9050949350505050565b600060208201905061b181600083018461a932565b92915050565b600060208201905061b19c600083018461aa05565b92915050565b6000602082019050818103600083015261b1bc818461aa14565b905092915050565b6000602082019050818103600083015261b1dd8161aa7e565b9050919050565b6000602082019050818103600083015261b1fd8161aaa1565b9050919050565b6000602082019050818103600083015261b21d8161aac4565b9050919050565b6000602082019050818103600083015261b23d8161ab0a565b9050919050565b6000602082019050818103600083015261b25d8161ab50565b9050919050565b6000602082019050818103600083015261b27d8161ab96565b9050919050565b6000602082019050818103600083015261b29d8161abb9565b9050919050565b6000602082019050818103600083015261b2bd8161abdc565b9050919050565b6000602082019050818103600083015261b2dd8161abff565b9050919050565b6000602082019050818103600083015261b2fd8161ac22565b9050919050565b6000602082019050818103600083015261b31d8161ac45565b9050919050565b6000602082019050818103600083015261b33d8161ac68565b9050919050565b6000602082019050818103600083015261b35d8161ac8b565b9050919050565b600061b36e61b37f565b905061b37a828261b681565b919050565b6000604051905090565b600067ffffffffffffffff82111561b3a45761b3a361b76d565b5b602082029050602081019050919050565b600067ffffffffffffffff82111561b3d05761b3cf61b76d565b5b602082029050602081019050919050565b600067ffffffffffffffff82111561b3fc5761b3fb61b76d565b5b61b4058261b7c9565b9050602081019050919050565b6000819050602082019050919050565b600081519050919050565b600081519050919050565b600081519050919050565b6000602082019050919050565b600082825260208201905092915050565b600082825260208201905092915050565b600081905092915050565b600082825260208201905092915050565b600081905092915050565b600061b4a48261b5f1565b915061b4af8361b5f1565b9250827fffffffffffffffffffffffffffffffffffffffffffffffffffffffffffffffff0382111561b4e45761b4e361b70f565b5b828201905092915050565b600061b4fa8261b5f1565b915061b5058361b5f1565b9250817fffffffffffffffffffffffffffffffffffffffffffffffffffffffffffffffff048311821515161561b53e5761b53d61b70f565b5b828202905092915050565b600061b5548261b5f1565b915061b55f8361b5f1565b92508282101561b5725761b57161b70f565b5b828203905092915050565b600061b5888261b5d1565b9050919050565b60008115159050919050565b6000819050919050565b60007fffffffff0000000000000000000000000000000000000000000000000000000082169050919050565b600073ffffffffffffffffffffffffffffffffffffffff82169050919050565b6000819050919050565b600060ff82169050919050565b600061b6138261b5f1565b9050919050565b600061b6258261b5fb565b9050919050565b600061b638368361a283565b9050919050565b82818337600083830152505050565b60005b8381101561b66c57808201518184015260208101905061b651565b8381111561b67b576000848401525b50505050565b61b68a8261b7c9565b810181811067ffffffffffffffff8211171561b6a95761b6a861b76d565b5b80604052505050565b600061b6bd8261b5f1565b91507fffffffffffffffffffffffffffffffffffffffffffffffffffffffffffffffff82141561b6f05761b6ef61b70f565b5b600182019050919050565b6000819050919050565b6000819050919050565b7f4e487b7100000000000000000000000000000000000000000000000000000000600052601160045260246000fd5b7f4e487b7100000000000000000000000000000000000000000000000000000000600052603260045260246000fd5b7f4e487b7100000000000000000000000000000000000000000000000000000000600052604160045260246000fd5b600080fd5b600080fd5b600080fd5b600080fd5b600080fd5b600080fd5b600080fd5b600080fd5b600080fd5b6000601f19601f8301169050919050565b7f5061757361626c653a206e6f7420706175736564000000000000000000000000600082015250565b7f4f776e61626c653a206e6577206f776e657220697320746865207a65726f206160008201527f6464726573730000000000000000000000000000000000000000000000000000602082015250565b7f416464726573733a20696e73756666696369656e742062616c616e636520666f60008201527f722063616c6c0000000000000000000000000000000000000000000000000000602082015250565b7f2900000000000000000000000000000000000000000000000000000000000000600082015250565b7f5061757361626c653a2070617573656400000000000000000000000000000000600082015250565b7f50616e6963280000000000000000000000000000000000000000000000000000600082015250565b7f496e697469616c697a61626c653a20636f6e747261637420697320616c72656160008201527f647920696e697469616c697a6564000000000000000000000000000000000000602082015250565b7f556e6b6e6f776e28000000000000000000000000000000000000000000000000600082015250565b7f4f776e61626c653a2063616c6c6572206973206e6f7420746865206f776e6572600082015250565b7f57726f6e67207065726d6974206c656e67746800000000000000000000000000600082015250565b7f496e76616c69642072657665727420726561736f6e0000000000000000000000600082015250565b7f416464726573733a2063616c6c20746f206e6f6e2d636f6e7472616374000000600082015250565b7f496e697469616c697a61626c653a20636f6e7472616374206973206e6f74206960008201527f6e697469616c697a696e67000000000000000000000000000000000000000000602082015250565b7f5361666545524332303a204552433230206f7065726174696f6e20646964206e60008201527f6f74207375636365656400000000000000000000000000000000000000000000602082015250565b7f5265656e7472616e637947756172643a207265656e7472616e742063616c6c00600082015250565b7f5361666545524332303a20617070726f76652066726f6d206e6f6e2d7a65726f60008201527f20746f206e6f6e2d7a65726f20616c6c6f77616e636500000000000000000000602082015250565b7f4572726f72280000000000000000000000000000000000000000000000000000600082015250565b61bb808161b57d565b811461bb8b57600080fd5b50565b61bb978161b58f565b811461bba257600080fd5b50565b61bbae8161b59b565b811461bbb957600080fd5b50565b61bbc58161b5f1565b811461bbd057600080fd5b5056fea26469706673582212205fdcb0db349ba221712a15697fc1d82af95ac9bbb6de11c1f5044fb286d2bcee64736f6c63430008060033",
  "linkReferences": {},
  "deployedLinkReferences": {}
}