{
  "_format": "hh-sol-artifact-1",
  "contractName": "XBridge",
  "sourceName": "contracts/XBridge.sol",
  "abi": [
    {
      "anonymous": false,
      "inputs": [
        {
          "indexed": false,
          "internalType": "address",
          "name": "_newAdmin",
          "type": "address"
        }
      ],
      "name": "AdminChanged",
      "type": "event"
    },
    {
      "anonymous": false,
      "inputs": [
        {
          "indexed": false,
          "internalType": "address",
          "name": "_approveProxy",
          "type": "address"
        }
      ],
      "name": "ApproveProxyChanged",
      "type": "event"
    },
    {
      "anonymous": false,
      "inputs": [
        {
          "indexed": false,
          "internalType": "address",
          "name": "to",
          "type": "address"
        },
        {
          "indexed": false,
          "internalType": "address",
          "name": "fromToken",
          "type": "address"
        },
        {
          "indexed": false,
          "internalType": "address",
          "name": "toToken",
          "type": "address"
        },
        {
          "indexed": false,
          "internalType": "uint256",
          "name": "fromTokenAmount",
          "type": "uint256"
        },
        {
          "indexed": false,
          "internalType": "uint256",
          "name": "toTokenAmount",
          "type": "uint256"
        },
        {
          "indexed": false,
          "internalType": "uint256",
          "name": "gasFeeAmount",
          "type": "uint256"
        },
        {
          "indexed": false,
          "internalType": "uint256",
          "name": "srcChainId",
          "type": "uint256"
        },
        {
          "indexed": false,
          "internalType": "string",
          "name": "errInfo",
          "type": "string"
        },
        {
          "indexed": false,
          "internalType": "bytes32[]",
          "name": "ext",
          "type": "bytes32[]"
        }
      ],
      "name": "Claimed",
      "type": "event"
    },
    {
      "anonymous": false,
      "inputs": [
        {
          "indexed": false,
          "internalType": "address",
          "name": "_dexRouter",
          "type": "address"
        }
      ],
      "name": "DexRouterChanged",
      "type": "event"
    },
    {
      "anonymous": false,
      "inputs": [
        {
          "indexed": false,
          "internalType": "address",
          "name": "_feeTo",
          "type": "address"
        }
      ],
      "name": "FeeToChanged",
      "type": "event"
    },
    {
      "anonymous": false,
      "inputs": [
        {
          "indexed": false,
          "internalType": "address",
          "name": "to",
          "type": "address"
        },
        {
          "indexed": false,
          "internalType": "uint256",
          "name": "amount",
          "type": "uint256"
        },
        {
          "indexed": false,
          "internalType": "uint256",
          "name": "srcChainId",
          "type": "uint256"
        },
        {
          "indexed": false,
          "internalType": "bytes32[]",
          "name": "ext",
          "type": "bytes32[]"
        }
      ],
      "name": "GasTokenReceived",
      "type": "event"
    },
    {
      "anonymous": false,
      "inputs": [
        {
          "indexed": false,
          "internalType": "uint8",
          "name": "version",
          "type": "uint8"
        }
      ],
      "name": "Initialized",
      "type": "event"
    },
    {
      "anonymous": false,
      "inputs": [
        {
          "indexed": true,
          "internalType": "uint256",
          "name": "_adaptorId",
          "type": "uint256"
        },
        {
          "indexed": false,
          "internalType": "address",
          "name": "_from",
          "type": "address"
        },
        {
          "indexed": false,
          "internalType": "address",
          "name": "_to",
          "type": "address"
        },
        {
          "indexed": false,
          "internalType": "address",
          "name": "_token",
          "type": "address"
        },
        {
          "indexed": false,
          "internalType": "uint256",
          "name": "_amount",
          "type": "uint256"
        },
        {
          "indexed": false,
          "internalType": "uint256",
          "name": "_receiveFee",
          "type": "uint256"
        },
        {
          "indexed": false,
          "internalType": "bytes32[]",
          "name": "ext",
          "type": "bytes32[]"
        }
      ],
      "name": "LogBridgeTo",
      "type": "event"
    },
    {
      "anonymous": false,
      "inputs": [
        {
          "indexed": true,
          "internalType": "uint256",
          "name": "_adaptorId",
          "type": "uint256"
        },
        {
          "indexed": false,
          "internalType": "address",
          "name": "_from",
          "type": "address"
        },
        {
          "indexed": false,
          "internalType": "address",
          "name": "_to",
          "type": "address"
        },
        {
          "indexed": false,
          "internalType": "address",
          "name": "_fromToken",
          "type": "address"
        },
        {
          "indexed": false,
          "internalType": "uint256",
          "name": "_fromAmount",
          "type": "uint256"
        },
        {
          "indexed": false,
          "internalType": "address",
          "name": "_toToken",
          "type": "address"
        },
        {
          "indexed": false,
          "internalType": "uint256",
          "name": "_toAmount",
          "type": "uint256"
        },
        {
          "indexed": false,
          "internalType": "uint256",
          "name": "_receiveFee",
          "type": "uint256"
        },
        {
          "indexed": false,
          "internalType": "bytes32[]",
          "name": "ext",
          "type": "bytes32[]"
        }
      ],
      "name": "LogSwapAndBridgeTo",
      "type": "event"
    },
    {
      "anonymous": false,
      "inputs": [
        {
          "indexed": true,
          "internalType": "address",
          "name": "previousOwner",
          "type": "address"
        },
        {
          "indexed": true,
          "internalType": "address",
          "name": "newOwner",
          "type": "address"
        }
      ],
      "name": "OwnershipTransferred",
      "type": "event"
    },
    {
      "anonymous": false,
      "inputs": [
        {
          "indexed": false,
          "internalType": "address",
          "name": "account",
          "type": "address"
        }
      ],
      "name": "Paused",
      "type": "event"
    },
    {
      "anonymous": false,
      "inputs": [
        {
          "indexed": false,
          "internalType": "address",
          "name": "account",
          "type": "address"
        }
      ],
      "name": "Unpaused",
      "type": "event"
    },
    {
      "inputs": [
        {
          "internalType": "uint256",
          "name": "",
          "type": "uint256"
        }
      ],
      "name": "adaptorInfo",
      "outputs": [
        {
          "internalType": "address",
          "name": "",
          "type": "address"
        }
      ],
      "stateMutability": "view",
      "type": "function"
    },
    {
      "inputs": [],
      "name": "admin",
      "outputs": [
        {
          "internalType": "address",
          "name": "",
          "type": "address"
        }
      ],
      "stateMutability": "view",
      "type": "function"
    },
    {
      "inputs": [],
      "name": "approveProxy",
      "outputs": [
        {
          "internalType": "address",
          "name": "",
          "type": "address"
        }
      ],
      "stateMutability": "view",
      "type": "function"
    },
    {
      "inputs": [
        {
          "components": [
            {
              "internalType": "uint256",
              "name": "adaptorId",
              "type": "uint256"
            },
            {
              "internalType": "address",
              "name": "to",
              "type": "address"
            },
            {
              "internalType": "address",
              "name": "token",
              "type": "address"
            },
            {
              "internalType": "uint256",
              "name": "toChainId",
              "type": "uint256"
            },
            {
              "internalType": "uint256",
              "name": "amount",
              "type": "uint256"
            },
            {
              "internalType": "bytes",
              "name": "data",
              "type": "bytes"
            }
          ],
          "internalType": "struct XBridge.BridgeRequest",
          "name": "_request",
          "type": "tuple"
        }
      ],
      "name": "bridgeTo",
      "outputs": [],
      "stateMutability": "payable",
      "type": "function"
    },
    {
      "inputs": [
        {
          "components": [
            {
              "internalType": "uint256",
              "name": "adaptorId",
              "type": "uint256"
            },
            {
              "internalType": "address",
              "name": "to",
              "type": "address"
            },
            {
              "internalType": "address",
              "name": "token",
              "type": "address"
            },
            {
              "internalType": "uint256",
              "name": "toChainId",
              "type": "uint256"
            },
            {
              "internalType": "uint256",
              "name": "amount",
              "type": "uint256"
            },
            {
              "internalType": "bytes",
              "name": "data",
              "type": "bytes"
            },
            {
              "internalType": "bytes",
              "name": "extData",
              "type": "bytes"
            }
          ],
          "internalType": "struct XBridge.BridgeRequestV2",
          "name": "_request",
          "type": "tuple"
        }
      ],
      "name": "bridgeToV2",
      "outputs": [],
      "stateMutability": "payable",
      "type": "function"
    },
    {
      "inputs": [
        {
          "components": [
            {
              "internalType": "address",
              "name": "fromToken",
              "type": "address"
            },
            {
              "internalType": "address",
              "name": "toToken",
              "type": "address"
            },
            {
              "internalType": "address",
              "name": "to",
              "type": "address"
            },
            {
              "internalType": "uint256",
              "name": "amount",
              "type": "uint256"
            },
            {
              "internalType": "uint256",
              "name": "gasFeeAmount",
              "type": "uint256"
            },
            {
              "internalType": "uint256",
              "name": "srcChainId",
              "type": "uint256"
            },
            {
              "internalType": "bytes32",
              "name": "srcTxHash",
              "type": "bytes32"
            },
            {
              "internalType": "bytes",
              "name": "dexData",
              "type": "bytes"
            },
            {
              "internalType": "bytes",
              "name": "extData",
              "type": "bytes"
            }
          ],
          "internalType": "struct XBridge.SwapRequest",
          "name": "_request",
          "type": "tuple"
        }
      ],
      "name": "claim",
      "outputs": [],
      "stateMutability": "nonpayable",
      "type": "function"
    },
    {
      "inputs": [],
      "name": "dexRouter",
      "outputs": [
        {
          "internalType": "address",
          "name": "",
          "type": "address"
        }
      ],
      "stateMutability": "view",
      "type": "function"
    },
    {
      "inputs": [
        {
          "components": [
            {
              "internalType": "address",
              "name": "to",
              "type": "address"
            },
            {
              "internalType": "uint256",
              "name": "amount",
              "type": "uint256"
            },
            {
              "internalType": "uint256",
              "name": "srcChainId",
              "type": "uint256"
            },
            {
              "internalType": "bytes32",
              "name": "srcTxHash",
              "type": "bytes32"
            },
            {
              "internalType": "bytes",
              "name": "extData",
              "type": "bytes"
            }
          ],
          "internalType": "struct XBridge.ReceiveGasRequest[]",
          "name": "_gasRequest",
          "type": "tuple[]"
        },
        {
          "components": [
            {
              "internalType": "address",
              "name": "fromToken",
              "type": "address"
            },
            {
              "internalType": "address",
              "name": "toToken",
              "type": "address"
            },
            {
              "internalType": "address",
              "name": "to",
              "type": "address"
            },
            {
              "internalType": "uint256",
              "name": "amount",
              "type": "uint256"
            },
            {
              "internalType": "uint256",
              "name": "gasFeeAmount",
              "type": "uint256"
            },
            {
              "internalType": "uint256",
              "name": "srcChainId",
              "type": "uint256"
            },
            {
              "internalType": "bytes32",
              "name": "srcTxHash",
              "type": "bytes32"
            },
            {
              "internalType": "bytes",
              "name": "dexData",
              "type": "bytes"
            },
            {
              "internalType": "bytes",
              "name": "extData",
              "type": "bytes"
            }
          ],
          "internalType": "struct XBridge.SwapRequest[]",
          "name": "_claimRequest",
          "type": "tuple[]"
        }
      ],
      "name": "doBatch",
      "outputs": [],
      "stateMutability": "payable",
      "type": "function"
    },
    {
      "inputs": [],
      "name": "feeTo",
      "outputs": [
        {
          "internalType": "address",
          "name": "",
          "type": "address"
        }
      ],
      "stateMutability": "view",
      "type": "function"
    },
    {
      "inputs": [],
      "name": "initialize",
      "outputs": [],
      "stateMutability": "nonpayable",
      "type": "function"
    },
    {
      "inputs": [
        {
          "internalType": "address",
          "name": "",
          "type": "address"
        }
      ],
      "name": "mpc",
      "outputs": [
        {
          "internalType": "bool",
          "name": "",
          "type": "bool"
        }
      ],
      "stateMutability": "view",
      "type": "function"
    },
    {
      "inputs": [],
      "name": "owner",
      "outputs": [
        {
          "internalType": "address",
          "name": "",
          "type": "address"
        }
      ],
      "stateMutability": "view",
      "type": "function"
    },
    {
      "inputs": [
        {
          "internalType": "uint256",
          "name": "",
          "type": "uint256"
        },
        {
          "internalType": "bytes32",
          "name": "",
          "type": "bytes32"
        }
      ],
      "name": "paidTx",
      "outputs": [
        {
          "internalType": "bool",
          "name": "",
          "type": "bool"
        }
      ],
      "stateMutability": "view",
      "type": "function"
    },
    {
      "inputs": [],
      "name": "pause",
      "outputs": [],
      "stateMutability": "nonpayable",
      "type": "function"
    },
    {
      "inputs": [],
      "name": "paused",
      "outputs": [
        {
          "internalType": "bool",
          "name": "",
          "type": "bool"
        }
      ],
      "stateMutability": "view",
      "type": "function"
    },
    {
      "inputs": [],
      "name": "payer",
      "outputs": [
        {
          "internalType": "address",
          "name": "",
          "type": "address"
        }
      ],
      "stateMutability": "view",
      "type": "function"
    },
    {
      "inputs": [],
      "name": "payerReceiver",
      "outputs": [
        {
          "internalType": "address",
          "name": "",
          "type": "address"
        },
        {
          "internalType": "address",
          "name": "",
          "type": "address"
        }
      ],
      "stateMutability": "view",
      "type": "function"
    },
    {
      "inputs": [
        {
          "components": [
            {
              "internalType": "address",
              "name": "to",
              "type": "address"
            },
            {
              "internalType": "uint256",
              "name": "amount",
              "type": "uint256"
            },
            {
              "internalType": "uint256",
              "name": "srcChainId",
              "type": "uint256"
            },
            {
              "internalType": "bytes32",
              "name": "srcTxHash",
              "type": "bytes32"
            },
            {
              "internalType": "bytes",
              "name": "extData",
              "type": "bytes"
            }
          ],
          "internalType": "struct XBridge.ReceiveGasRequest",
          "name": "_request",
          "type": "tuple"
        }
      ],
      "name": "receiveGasToken",
      "outputs": [],
      "stateMutability": "payable",
      "type": "function"
    },
    {
      "inputs": [
        {
          "internalType": "uint256",
          "name": "",
          "type": "uint256"
        },
        {
          "internalType": "bytes32",
          "name": "",
          "type": "bytes32"
        }
      ],
      "name": "receiveGasTx",
      "outputs": [
        {
          "internalType": "bool",
          "name": "",
          "type": "bool"
        }
      ],
      "stateMutability": "view",
      "type": "function"
    },
    {
      "inputs": [],
      "name": "receiver",
      "outputs": [
        {
          "internalType": "address",
          "name": "",
          "type": "address"
        }
      ],
      "stateMutability": "view",
      "type": "function"
    },
    {
      "inputs": [],
      "name": "renounceOwnership",
      "outputs": [],
      "stateMutability": "nonpayable",
      "type": "function"
    },
    {
      "inputs": [
        {
          "internalType": "uint256[]",
          "name": "_ids",
          "type": "uint256[]"
        },
        {
          "internalType": "address[]",
          "name": "_adaptors",
          "type": "address[]"
        }
      ],
      "name": "setAdaptors",
      "outputs": [],
      "stateMutability": "nonpayable",
      "type": "function"
    },
    {
      "inputs": [
        {
          "internalType": "address",
          "name": "_newAdmin",
          "type": "address"
        }
      ],
      "name": "setAdmin",
      "outputs": [],
      "stateMutability": "nonpayable",
      "type": "function"
    },
    {
      "inputs": [
        {
          "internalType": "address",
          "name": "_newApproveProxy",
          "type": "address"
        }
      ],
      "name": "setApproveProxy",
      "outputs": [],
      "stateMutability": "nonpayable",
      "type": "function"
    },
    {
      "inputs": [
        {
          "internalType": "address",
          "name": "_newDexRouter",
          "type": "address"
        }
      ],
      "name": "setDexRouter",
      "outputs": [],
      "stateMutability": "nonpayable",
      "type": "function"
    },
    {
      "inputs": [
        {
          "internalType": "address",
          "name": "_newFeeTo",
          "type": "address"
        }
      ],
      "name": "setFeeTo",
      "outputs": [],
      "stateMutability": "nonpayable",
      "type": "function"
    },
    {
      "inputs": [
        {
          "internalType": "address[]",
          "name": "_mpcList",
          "type": "address[]"
        },
        {
          "internalType": "bool[]",
          "name": "_v",
          "type": "bool[]"
        }
      ],
      "name": "setMpc",
      "outputs": [],
      "stateMutability": "nonpayable",
      "type": "function"
    },
    {
      "inputs": [
        {
          "internalType": "uint256",
          "name": "_index",
          "type": "uint256"
        },
        {
          "internalType": "uint256",
          "name": "_v",
          "type": "uint256"
        }
      ],
      "name": "setSysRatio",
      "outputs": [],
      "stateMutability": "nonpayable",
      "type": "function"
    },
    {
      "inputs": [
        {
          "components": [
            {
              "internalType": "address",
              "name": "fromToken",
              "type": "address"
            },
            {
              "internalType": "address",
              "name": "toToken",
              "type": "address"
            },
            {
              "internalType": "address",
              "name": "to",
              "type": "address"
            },
            {
              "internalType": "uint256",
              "name": "adaptorId",
              "type": "uint256"
            },
            {
              "internalType": "uint256",
              "name": "toChainId",
              "type": "uint256"
            },
            {
              "internalType": "uint256",
              "name": "fromTokenAmount",
              "type": "uint256"
            },
            {
              "internalType": "uint256",
              "name": "toTokenMinAmount",
              "type": "uint256"
            },
            {
              "internalType": "uint256",
              "name": "toChainToTokenMinAmount",
              "type": "uint256"
            },
            {
              "internalType": "bytes",
              "name": "data",
              "type": "bytes"
            },
            {
              "internalType": "bytes",
              "name": "dexData",
              "type": "bytes"
            }
          ],
          "internalType": "struct XBridge.SwapAndBridgeRequest",
          "name": "_request",
          "type": "tuple"
        }
      ],
      "name": "swapAndBridgeToImprove",
      "outputs": [],
      "stateMutability": "payable",
      "type": "function"
    },
    {
      "inputs": [
        {
          "components": [
            {
              "internalType": "address",
              "name": "fromToken",
              "type": "address"
            },
            {
              "internalType": "address",
              "name": "toToken",
              "type": "address"
            },
            {
              "internalType": "address",
              "name": "to",
              "type": "address"
            },
            {
              "internalType": "uint256",
              "name": "adaptorId",
              "type": "uint256"
            },
            {
              "internalType": "uint256",
              "name": "toChainId",
              "type": "uint256"
            },
            {
              "internalType": "uint256",
              "name": "fromTokenAmount",
              "type": "uint256"
            },
            {
              "internalType": "uint256",
              "name": "toTokenMinAmount",
              "type": "uint256"
            },
            {
              "internalType": "uint256",
              "name": "toChainToTokenMinAmount",
              "type": "uint256"
            },
            {
              "internalType": "bytes",
              "name": "data",
              "type": "bytes"
            },
            {
              "internalType": "bytes",
              "name": "dexData",
              "type": "bytes"
            }
          ],
          "internalType": "struct XBridge.SwapAndBridgeRequest",
          "name": "_request",
          "type": "tuple"
        },
        {
          "internalType": "bytes",
          "name": "permit",
          "type": "bytes"
        }
      ],
      "name": "swapAndBridgeToImproveWithPermit",
      "outputs": [],
      "stateMutability": "payable",
      "type": "function"
    },
    {
      "inputs": [
        {
          "components": [
            {
              "internalType": "address",
              "name": "fromToken",
              "type": "address"
            },
            {
              "internalType": "address",
              "name": "toToken",
              "type": "address"
            },
            {
              "internalType": "address",
              "name": "to",
              "type": "address"
            },
            {
              "internalType": "uint256",
              "name": "adaptorId",
              "type": "uint256"
            },
            {
              "internalType": "uint256",
              "name": "toChainId",
              "type": "uint256"
            },
            {
              "internalType": "uint256",
              "name": "fromTokenAmount",
              "type": "uint256"
            },
            {
              "internalType": "uint256",
              "name": "toTokenMinAmount",
              "type": "uint256"
            },
            {
              "internalType": "uint256",
              "name": "toChainToTokenMinAmount",
              "type": "uint256"
            },
            {
              "internalType": "bytes",
              "name": "data",
              "type": "bytes"
            },
            {
              "internalType": "bytes",
              "name": "dexData",
              "type": "bytes"
            },
            {
              "internalType": "bytes",
              "name": "extData",
              "type": "bytes"
            }
          ],
          "internalType": "struct XBridge.SwapBridgeRequestV2",
          "name": "_request",
          "type": "tuple"
        }
      ],
      "name": "swapBridgeToV2",
      "outputs": [],
      "stateMutability": "payable",
      "type": "function"
    },
    {
      "inputs": [
        {
          "internalType": "uint256",
          "name": "",
          "type": "uint256"
        }
      ],
      "name": "sysRatio",
      "outputs": [
        {
          "internalType": "uint256",
          "name": "",
          "type": "uint256"
        }
      ],
      "stateMutability": "view",
      "type": "function"
    },
    {
      "inputs": [
        {
          "internalType": "address",
          "name": "newOwner",
          "type": "address"
        }
      ],
      "name": "transferOwnership",
      "outputs": [],
      "stateMutability": "nonpayable",
      "type": "function"
    },
    {
      "inputs": [],
      "name": "unpause",
      "outputs": [],
      "stateMutability": "nonpayable",
      "type": "function"
    },
    {
      "stateMutability": "payable",
      "type": "receive"
    }
  ],
  "bytecode": "0x608060405234801561001057600080fd5b50614b58806100206000396000f3fe6080604052600436106101fc5760003560e01c8063861a8dcb1161010d578063bb8c17d3116100a0578063f3dced3c1161006f578063f3dced3c146105cc578063f46901ed146105ec578063f7260d3e1461060c578063f72f863b1461062c578063f851a4401461064c57600080fd5b8063bb8c17d31461051b578063be75ddac1461053b578063cea8ef5c14610576578063f2fde38b146105ac57600080fd5b8063aa0bd4de116100dc578063aa0bd4de14610465578063aad0ae5b14610485578063aeee23c4146104a5578063b796af13146104e057600080fd5b8063861a8dcb1461040e5780638da5cb5b146104215780638e8920e31461043f578063972250fe1461045257600080fd5b80633eee915611610190578063704b6c021161015f578063704b6c021461037f578063715018a61461039f5780638129fc1c146103b457806381a52222146103c95780638456cb59146103f957600080fd5b80633eee9156146102f35780633f4ba83a14610313578063534015b3146103285780635c975abb1461035b57600080fd5b8063123119cd116101cc578063123119cd1461029a5780631543128e146102ba578063238105e3146102cd5780633d21e25a146102e057600080fd5b80621a9f6214610208578063017e7e581461022a5780630758d924146102675780630b79b72b1461028757600080fd5b3661020357005b600080fd5b34801561021457600080fd5b50610228610223366004613d3c565b61066c565b005b34801561023657600080fd5b5060ce5461024a906001600160a01b031681565b6040516001600160a01b0390911681526020015b60405180910390f35b34801561027357600080fd5b5060cb5461024a906001600160a01b031681565b610228610295366004614111565b610748565b3480156102a657600080fd5b5060cc5461024a906001600160a01b031681565b6102286102c836600461402b565b6108dc565b6102286102db3660046141b0565b6109d2565b6102286102ee3660046142ac565b610a9e565b3480156102ff57600080fd5b5061022861030e3660046143b1565b610afa565b34801561031f57600080fd5b50610228610ba2565b34801561033457600080fd5b5060cc5460cd54604080516001600160a01b0393841681529290911660208301520161025e565b34801561036757600080fd5b5060335460ff165b604051901515815260200161025e565b34801561038b57600080fd5b5061022861039a366004613d02565b610bfa565b3480156103ab57600080fd5b50610228610cc1565b3480156103c057600080fd5b50610228610cf5565b3480156103d557600080fd5b5061036f6103e4366004613d02565b60d06020526000908152604090205460ff1681565b34801561040557600080fd5b50610228610d88565b61022861041c366004613e04565b610dde565b34801561042d57600080fd5b506065546001600160a01b031661024a565b61022861044d3660046140dd565b610f2a565b610228610460366004613f5b565b611022565b34801561047157600080fd5b50610228610480366004613ed3565b611076565b34801561049157600080fd5b506102286104a0366004613d02565b6111a7565b3480156104b157600080fd5b5061036f6104c0366004614417565b60d160209081526000928352604080842090915290825290205460ff1681565b3480156104ec57600080fd5b5061050d6104fb3660046143e5565b60d36020526000908152604090205481565b60405190815260200161025e565b34801561052757600080fd5b50610228610536366004614417565b61128b565b34801561054757600080fd5b5061036f610556366004614417565b60d260209081526000928352604080842090915290825290205460ff1681565b34801561058257600080fd5b5061024a6105913660046143e5565b60c9602052600090815260409020546001600160a01b031681565b3480156105b857600080fd5b506102286105c7366004613d02565b6112eb565b3480156105d857600080fd5b5060ca5461024a906001600160a01b031681565b3480156105f857600080fd5b50610228610607366004613d02565b611383565b34801561061857600080fd5b5060cd5461024a906001600160a01b031681565b34801561063857600080fd5b50610228610647366004613d02565b611467565b34801561065857600080fd5b5060cf5461024a906001600160a01b031681565b60cf5460408051808201909152600a81526937b7363c9030b236b4b760b11b6020820152906001600160a01b031633146106c25760405162461bcd60e51b81526004016106b99190614763565b60405180910390fd5b5060005b8251811015610743578181815181106106e1576106e1614ad3565b602002602001015160d060008584815181106106ff576106ff614ad3565b6020908102919091018101516001600160a01b03168252810191909152604001600020805460ff19169115159190911790558061073b81614aa2565b9150506106c6565b505050565b6002609754141561076b5760405162461bcd60e51b81526004016106b99061486e565b600260975560335460ff16156107935760405162461bcd60e51b81526004016106b990614776565b6107aa6107a36020850185613d02565b838361154b565b6107b2613958565b6107bf6020850185613d02565b6001600160a01b031681526107da6040850160208601613d02565b6001600160a01b031660208201526107f86060850160408601613d02565b6001600160a01b03166040820152606080850135908201526080808501359082015260a0808501359082015260c0808501359082015260e080850135908201526108466101008501856148a5565b8080601f01602080910402602001604051908101604052809392919081815260200183838082843760009201919091525050505061010082015261088e6101208501856148a5565b8080601f0160208091040260200160405190810160405280939291908181526020018383808284376000920191909152505050506101208201526108d1816116aa565b505060016097555050565b600260975414156108ff5760405162461bcd60e51b81526004016106b99061486e565b600260975560335460ff16156109275760405162461bcd60e51b81526004016106b990614776565b6109796040518060e001604052806000815260200160006001600160a01b0316815260200160006001600160a01b03168152602001600081526020016000815260200160608152602001606081525090565b815181526020808301516001600160a01b039081169183019190915260408084015190911690820152606080830151908201526080808301519082015260a080830151908201526109c981611f94565b50506001609755565b600260975414156109f55760405162461bcd60e51b81526004016106b99061486e565b600260975560335460ff1615610a1d5760405162461bcd60e51b81526004016106b990614776565b610a25613958565b81516001600160a01b03908116825260208084015182169083015260408084015190911690820152606080830151908201526080808301519082015260a0808301519082015260c0808301519082015260e08083015190820152610100808301519082015261012080830151908201526109c9816116aa565b60026097541415610ac15760405162461bcd60e51b81526004016106b99061486e565b600260975560335460ff1615610ae95760405162461bcd60e51b81526004016106b990614776565b610af2816116aa565b506001609755565b60026097541415610b1d5760405162461bcd60e51b81526004016106b99061486e565b600260975560335460ff1615610b455760405162461bcd60e51b81526004016106b990614776565b33600090815260d0602090815260409182902054825180840190935260088352676f6e6c79206d706360c01b9183019190915260ff16610b985760405162461bcd60e51b81526004016106b99190614763565b50610af281612369565b60cf5460408051808201909152600a81526937b7363c9030b236b4b760b11b6020820152906001600160a01b03163314610bef5760405162461bcd60e51b81526004016106b99190614763565b50610bf8612970565b565b6065546001600160a01b03163314610c245760405162461bcd60e51b81526004016106b9906147ee565b60408051808201909152600981526806164647265737320360bc1b60208201526001600160a01b038216610c6b5760405162461bcd60e51b81526004016106b99190614763565b5060cf80546001600160a01b0319166001600160a01b0383169081179091556040519081527f7ce7ec0b50378fb6c0186ffb5f48325f6593fcb4ca4386f21861af3129188f5c906020015b60405180910390a150565b6065546001600160a01b03163314610ceb5760405162461bcd60e51b81526004016106b9906147ee565b610bf86000612a03565b6000610d016001612a55565b90508015610d19576000805461ff0019166101001790555b610d21612ae2565b610d29612b11565b610d31612b40565b60cf80546001600160a01b031916331790558015610d85576000805461ff0019169055604051600181527f7f26b83ff96e1f2b6a682f133852f6798a09c465da95921460cefb384740249890602001610cb6565b50565b60cf5460408051808201909152600a81526937b7363c9030b236b4b760b11b6020820152906001600160a01b03163314610dd55760405162461bcd60e51b81526004016106b99190614763565b50610bf8612b6f565b60026097541415610e015760405162461bcd60e51b81526004016106b99061486e565b600260975560335460ff1615610e295760405162461bcd60e51b81526004016106b990614776565b33600090815260d0602090815260409182902054825180840190935260088352676f6e6c79206d706360c01b9183019190915260ff16610e7c5760405162461bcd60e51b81526004016106b99190614763565b503460005b8351811015610ee957610eac848281518110610e9f57610e9f614ad3565b6020026020010151612bc7565b838181518110610ebe57610ebe614ad3565b60200260200101516020015182610ed59190614a28565b915080610ee181614aa2565b915050610e81565b5060005b82518110156108d157610f18838281518110610f0b57610f0b614ad3565b6020026020010151612369565b80610f2281614aa2565b915050610eed565b60026097541415610f4d5760405162461bcd60e51b81526004016106b99061486e565b600260975560335460ff1615610f755760405162461bcd60e51b81526004016106b990614776565b33600090815260d0602090815260409182902054825180840190935260088352676f6e6c79206d706360c01b9183019190915260ff16610fc85760405162461bcd60e51b81526004016106b99190614763565b508060200151341460405180604001604052806011815260200170696e76616c6964206d73672076616c756560781b815250906110185760405162461bcd60e51b81526004016106b99190614763565b50610af281612bc7565b600260975414156110455760405162461bcd60e51b81526004016106b99061486e565b600260975560335460ff161561106d5760405162461bcd60e51b81526004016106b990614776565b610af281611f94565b60cf5460408051808201909152600a81526937b7363c9030b236b4b760b11b6020820152906001600160a01b031633146110c35760405162461bcd60e51b81526004016106b99190614763565b5060408051808201909152601081526f1b195b99dd1a081b9bdd08195c5d585b60821b602082015283821461110b5760405162461bcd60e51b81526004016106b99190614763565b5060005b838110156111a05782828281811061112957611129614ad3565b905060200201602081019061113e9190613d02565b60c9600087878581811061115457611154614ad3565b90506020020135815260200190815260200160002060006101000a8154816001600160a01b0302191690836001600160a01b03160217905550808061119890614aa2565b91505061110f565b5050505050565b60cf5460408051808201909152600a81526937b7363c9030b236b4b760b11b6020820152906001600160a01b031633146111f45760405162461bcd60e51b81526004016106b99190614763565b5060408051808201909152600981526806164647265737320360bc1b60208201526001600160a01b03821661123c5760405162461bcd60e51b81526004016106b99190614763565b5060ca80546001600160a01b0319166001600160a01b0383169081179091556040519081527fc7837d6c310ea8044f727d5d37f08177374e68c2f2cdf5adf1fbbacf3386553190602001610cb6565b60cf5460408051808201909152600a81526937b7363c9030b236b4b760b11b6020820152906001600160a01b031633146112d85760405162461bcd60e51b81526004016106b99190614763565b50600091825260d3602052604090912055565b6065546001600160a01b031633146113155760405162461bcd60e51b81526004016106b9906147ee565b6001600160a01b03811661137a5760405162461bcd60e51b815260206004820152602660248201527f4f776e61626c653a206e6577206f776e657220697320746865207a65726f206160448201526564647265737360d01b60648201526084016106b9565b610d8581612a03565b60cf5460408051808201909152600a81526937b7363c9030b236b4b760b11b6020820152906001600160a01b031633146113d05760405162461bcd60e51b81526004016106b99190614763565b5060408051808201909152600981526806164647265737320360bc1b60208201526001600160a01b0382166114185760405162461bcd60e51b81526004016106b99190614763565b5060ce80546001600160a01b0319166001600160a01b0383169081179091556040519081527f3dedba2a214b4fff9bf20fc473c114824654e0bc70512b4a92f6d5978763c28d90602001610cb6565b60cf5460408051808201909152600a81526937b7363c9030b236b4b760b11b6020820152906001600160a01b031633146114b45760405162461bcd60e51b81526004016106b99190614763565b5060408051808201909152600981526806164647265737320360bc1b60208201526001600160a01b0382166114fc5760405162461bcd60e51b81526004016106b99190614763565b5060cb80546001600160a01b0319166001600160a01b0383169081179091556040519081527f33f0bdb7050bc888ca819c34892844adff2a3109dc1810301e8fd6af0ac7edb990602001610cb6565b8015610743576000606060e08314156115ec576040516001600160a01b038616906115859063d505accf60e01b90879087906020016144a0565b60408051601f198184030181529082905261159f916144c4565b6000604051808303816000865af19150503d80600081146115dc576040519150601f19603f3d011682016040523d82523d6000602084013e6115e1565b606091505b50909250905061165b565b61010083141561161d576040516001600160a01b03861690611585906323f2ebc360e21b90879087906020016144a0565b60405162461bcd60e51b81526020600482015260136024820152720aee4dedcce40e0cae4dad2e840d8cadccee8d606b1b60448201526064016106b9565b816111a057611691816040518060400160405280600f81526020016e02832b936b4ba103330b4b632b21d1608d1b815250612d94565b60405162461bcd60e51b81526004016106b99190614763565b61170e60405180610120016040528060006001600160a01b03168152602001600081526020016000815260200160008152602001600081526020016000815260200160001515815260200160006001600160e01b0319168152602001606081525090565b60608201516040805180820190915260118152701a5b9d985b1a59081859185c1d1bdc9251607a1b6020820152906117595760405162461bcd60e51b81526004016106b99190614763565b506060820151600090815260c96020908152604091829020546001600160a01b031680845282518084019093526017835276696e76616c69642061646170746f72206164647265737360481b918301919091526117c95760405162461bcd60e51b81526004016106b99190614763565b50815160408051808201909152600981526806164647265737320360bc1b6020820152906001600160a01b03166118135760405162461bcd60e51b81526004016106b99190614763565b5060006001600160a01b031682602001516001600160a01b031614156040518060400160405280600981526020016806164647265737320360bc1b8152509061186f5760405162461bcd60e51b81526004016106b99190614763565b5081602001516001600160a01b031682600001516001600160a01b031614156040518060400160405280600d81526020016c1859191c995cdcc8195c5d585b609a1b815250906118d25760405162461bcd60e51b81526004016106b99190614763565b506040808301518151808301909252600982526806164647265737320360bc1b60208301526001600160a01b031661191d5760405162461bcd60e51b81526004016106b99190614763565b5060cb5460408051808201909152600981526806164647265737320360bc1b6020820152906001600160a01b03166119685760405162461bcd60e51b81526004016106b99190614763565b50608082015160c081901c90602081901c6001600160a01b03169063ffffffff166080840152606083015260a082015260208201516119a690612ef8565b60408201526101208201516119ba90614a3f565b6001600160e01b03191660e08201819052631acaed0d60e31b14806119f3575060e08101516001600160e01b031916631c0a38dd60e31b145b6040518060400160405280600f81526020016e195c9c881cd95b1958dd1bdc881a59608a1b81525090611a395760405162461bcd60e51b81526004016106b99190614763565b5060cc80546001600160a01b0319908116331790915560cd80549091163017905581516001600160a01b031673eeeeeeeeeeeeeeeeeeeeeeeeeeeeeeeeeeeeeeee1415611b48578160a00151341460405180604001604052806011815260200170696e76616c6964206d73672076616c756560781b81525090611acf5760405162461bcd60e51b81526004016106b99190614763565b5060cb546101208301516040516001600160a01b03909216913491611af3916144c4565b60006040518083038185875af1925050503d8060008114611b30576040519150601f19603f3d011682016040523d82523d6000602084013e611b35565b606091505b50610100830152151560c0820152611c03565b604080518082019091526011815270696e76616c6964206d73672076616c756560781b60208201523415611b8f5760405162461bcd60e51b81526004016106b99190614763565b5060cb546101208301516040516001600160a01b0390921691611bb291906144c4565b6000604051808303816000865af19150503d8060008114611bef576040519150601f19603f3d011682016040523d82523d6000602084013e611bf4565b606091505b50610100830152151560c08201525b60cc80546001600160a01b031990811690915560cd8054909116905560c081015161010082015160408051808201909152601181527003232bc103937baba32b91032b939101d1607d1b6020820152611c5c9190612d94565b90611c7a5760405162461bcd60e51b81526004016106b99190614763565b508060400151611c8d8360200151612ef8565b611c979190614a28565b602082015260c08201516060820151611cb091906149f1565b816020015110156040518060400160405280600e81526020016d36b4b71030b6b7bab73a1032b93960911b81525090611cfc5760405162461bcd60e51b81526004016106b99190614763565b5060ce5460208301516060830151611d1e926001600160a01b03169190612f04565b80606001518160200151611d329190614a28565b6020808301919091528201516001600160a01b031673eeeeeeeeeeeeeeeeeeeeeeeeeeeeeeeeeeeeeeee1415611de95780516020808301516040808601519286015160808601516101008801519251636f82189d60e01b81526001600160a01b0390961695636f82189d95611db2943394919385938892906004016145b5565b6000604051808303818588803b158015611dcb57600080fd5b505af1158015611ddf573d6000803e3d6000fd5b5050505050611e84565b611e00816000015183602001518360200151612f04565b80600001516001600160a01b0316636f82189d338460400151338660200151866020015187608001518961010001516040518863ffffffff1660e01b8152600401611e5197969594939291906145b5565b600060405180830381600087803b158015611e6b57600080fd5b505af1158015611e7f573d6000803e3d6000fd5b505050505b604080516001808252818301909252600091602080830190803683370190505090508160a0015160001b81600081518110611ec157611ec1614ad3565b60200260200101818152505082606001517fb9dae57db52a734b183c77227c96068231beb6a93a060ca7a9d3164f716714ea33856040015186600001518760a0015188602001518860200151896060015189604051611f2798979695949392919061467d565b60405180910390a28160400151611f418460200151612ef8565b101560405180604001604052806014815260200173736c617368206d75636820746f6f206d6f6e657960601b81525090611f8e5760405162461bcd60e51b81526004016106b99190614763565b50505050565b80516040805180820190915260118152701a5b9d985b1a59081859185c1d1bdc9251607a1b602082015290611fdc5760405162461bcd60e51b81526004016106b99190614763565b508051600090815260c960209081526040918290205482518084019093526017835276696e76616c69642061646170746f72206164647265737360481b918301919091526001600160a01b031690816120485760405162461bcd60e51b81526004016106b99190614763565b5060006001600160a01b031682602001516001600160a01b031614156040518060400160405280600981526020016806164647265737320360bc1b815250906120a45760405162461bcd60e51b81526004016106b99190614763565b506040808301518151808301909252600982526806164647265737320360bc1b60208301526001600160a01b03166120ef5760405162461bcd60e51b81526004016106b99190614763565b5060003490506000806000612120866060015160c081901c916001600160a01b03602083901c169163ffffffff1690565b92509250925073eeeeeeeeeeeeeeeeeeeeeeeeeeeeeeeeeeeeeeee6001600160a01b031686604001516001600160a01b031614156122015781866080015161216891906149f1565b341460405180604001604052806011815260200170696e76616c6964206d73672076616c756560781b815250906121b25760405162461bcd60e51b81526004016106b99190614763565b506080860151935081156121fc5760ce546040516001600160a01b039091169083156108fc029084906000818181858888f193505050501580156121fa573d6000803e3d6000fd5b505b61223b565b81156122275760ce5460408701516122279133916001600160a01b039091169085612f79565b61223b338688604001518960800151612f79565b6020860151604080880151608089015160a08a01519251636f82189d60e01b81526001600160a01b038a1694636f82189d948a9461228194339485938b916004016145b5565b6000604051808303818588803b15801561229a57600080fd5b505af11580156122ae573d6000803e3d6000fd5b5060009350600192506122bf915050565b6040519080825280602002602001820160405280156122e8578160200160208202803683370190505b5090508360001b8160008151811061230257612302614ad3565b60200260200101818152505086600001517ff6481cbc1da19356c5cb6b884be507da735b89f21dc4bbb7c9b7cc0968b03b7a3389602001518a604001518b608001518887604051612358969594939291906146de565b60405180910390a250505050505050565b60006123788260000151612ef8565b905060008260800151836060015161239091906149f1565b9050808210156040518060400160405280600f81526020016e6e6f20656e6f756768206d6f6e657960881b815250906123dc5760405162461bcd60e51b81526004016106b99190614763565b5060cb5460408051808201909152600981526806164647265737320360bc1b6020820152906001600160a01b03166124275760405162461bcd60e51b81526004016106b99190614763565b5060a0830151600090815260d16020908152604080832060c0870151845282529182902054825180840190935260088352671a185cc81c185a5960c21b9183019190915260ff161561248c5760405162461bcd60e51b81526004016106b99190614763565b5060a0830151600090815260d16020908152604080832060c087015184528252808320805460ff191660019081179091558151818152808301909252909182810190803683370190505090508360c00151816000815181106124f0576124f0614ad3565b602090810291909101015260ce54845160808601516000926060928392612521926001600160a01b03169190612f04565b60e087015151156128695760cc8054306001600160a01b031991821617909155604088015160cd80549092166001600160a01b039091169081179091556020880151600091612570919061314e565b88519091506001600160a01b031673eeeeeeeeeeeeeeeeeeeeeeeeeeeeeeeeeeeeeeee141561260c5760cb54606089015160e08a01516040516001600160a01b03909316926125bf91906144c4565b60006040518083038185875af1925050503d80600081146125fc576040519150601f19603f3d011682016040523d82523d6000602084013e612601565b606091505b509094509250612715565b60ca5460408051631c6eced560e01b815290516000926001600160a01b031691631c6eced5916004808301926020929190829003018186803b15801561265157600080fd5b505afa158015612665573d6000803e3d6000fd5b505050506040513d601f19601f820116820180604052508101906126899190613d1f565b905061269e8960000151828b60600151613205565b60cb5460e08a01516040516001600160a01b03909216916126bf91906144c4565b6000604051808303816000865af19150503d80600081146126fc576040519150601f19603f3d011682016040523d82523d6000602084013e612701565b606091505b508a51919650945061271390826132c5565b505b602088015160cd548291612731916001600160a01b031661314e565b61273b9190614a28565b60cc80546001600160a01b031990811690915560cd8054909116905590508361280957612775886040015189600001518a60600151612f04565b6127a8836040518060400160405280601181526020017003232bc103937baba32b91032b939101d1607d1b815250612d94565b6040808a01518a5160208c015160608d015160808e015160a08f015195519698507f6d1b775ce655ea3b568c59e0f161908781f216e4d9feb04fa524ca23a44f4b07966127fc96600092918b908f9061460c565b60405180910390a1612863565b604080890151895160208b015160808c015160a08d015194517f6d1b775ce655ea3b568c59e0f161908781f216e4d9feb04fa524ca23a44f4b079561285a959493926000928992908b908f9061460c565b60405180910390a15b50612901565b50604080518082018252600a8152695f5f726566756e645f5f60b01b602082015290870151875160608901516128a0929190612f04565b7f6d1b775ce655ea3b568c59e0f161908781f216e4d9feb04fa524ca23a44f4b078760400151886000015189602001518a6060015160008c608001518d60a00151888c6040516128f89998979695949392919061460c565b60405180910390a15b8461290f8860000151612ef8565b6129199088614a28565b111560405180604001604052806014815260200173736c617368206d75636820746f6f206d6f6e657960601b815250906129665760405162461bcd60e51b81526004016106b99190614763565b5050505050505050565b60335460ff166129b95760405162461bcd60e51b815260206004820152601460248201527314185d5cd8589b194e881b9bdd081c185d5cd95960621b60448201526064016106b9565b6033805460ff191690557f5db9ee0a495bf2e6ff9c91a7834c1ba4fdd244a5e8aa4e537bd38aeae4b073aa335b6040516001600160a01b03909116815260200160405180910390a1565b606580546001600160a01b038381166001600160a01b0319831681179093556040519116919082907f8be0079c531659141344cd1fd0a4f28419497f9722a3daafe3b4186f6b6457e090600090a35050565b60008054610100900460ff1615612a9c578160ff166001148015612a785750303b155b612a945760405162461bcd60e51b81526004016106b9906147a0565b506000919050565b60005460ff808416911610612ac35760405162461bcd60e51b81526004016106b9906147a0565b506000805460ff191660ff92909216919091179055600190565b919050565b600054610100900460ff16612b095760405162461bcd60e51b81526004016106b990614823565b610bf86132de565b600054610100900460ff16612b385760405162461bcd60e51b81526004016106b990614823565b610bf8613311565b600054610100900460ff16612b675760405162461bcd60e51b81526004016106b990614823565b610bf861333f565b60335460ff1615612b925760405162461bcd60e51b81526004016106b990614776565b6033805460ff191660011790557f62e78cea01bee320cd4e420270b5ea74000d11b0c9f74754ebdbfc544b05a2586129e63390565b600160005260d360209081527fb0a3e43c7bb3d788f8bb37bbdf867a9bb5c27b60c1c3803c8e0f152e14296a16548282015160408051808201909152601281527165786365656420616c6c6f7765642067617360701b938101939093521115612c435760405162461bcd60e51b81526004016106b99190614763565b50604080820151600090815260d2602090815282822060608501518352815290829020548251808401909352600f83526e68617320726563656976652067617360881b9183019190915260ff1615612cae5760405162461bcd60e51b81526004016106b99190614763565b50604080820151600090815260d26020908152828220606085015183528152919020805460ff19166001179055815190820151612d01919073eeeeeeeeeeeeeeeeeeeeeeeeeeeeeeeeeeeeeeee90612f04565b60408051600180825281830190925260009160208083019080368337019050509050816060015181600081518110612d3b57612d3b614ad3565b6020026020010181815250507fc9f1b98ce4fd29c9b2de9c4514957faa4bf8fbcad43c471530fb873726c3c28682600001518360200151846040015184604051612d88949392919061472c565b60405180910390a15050565b60606004835110612ec55760208301516001600160e01b0319811662461bcd60e51b148015612dc557506044845110155b15612e6557602484810151808601820180519192909190612de79084906149f1565b612df191906149f1565b86511015612e395760405162461bcd60e51b815260206004820152601560248201527424b73b30b634b2103932bb32b93a103932b0b9b7b760591b60448201526064016106b9565b8481604051602001612e4c929190614580565b6040516020818303038152906040529350505050612ef2565b6001600160e01b03198116634e487b7160e01b148015612e86575083516024145b15612ec357602484015183612e9a8261336f565b604051602001612eab9291906144e0565b60405160208183030381529060405292505050612ef2565b505b81612ecf84613397565b604051602001612ee092919061452f565b60405160208183030381529060405290505b92915050565b6000612ef2823061314e565b8015610743576001600160a01b03821673eeeeeeeeeeeeeeeeeeeeeeeeeeeeeeeeeeeeeeee1415612f65576040516001600160a01b0384169082156108fc029083906000818181858888f19350505050158015611f8e573d6000803e3d6000fd5b6107436001600160a01b038316848361357e565b80826001600160a01b031663dd62ed3e3360ca60009054906101000a90046001600160a01b03166001600160a01b0316631c6eced56040518163ffffffff1660e01b815260040160206040518083038186803b158015612fd857600080fd5b505afa158015612fec573d6000803e3d6000fd5b505050506040513d601f19601f820116820180604052508101906130109190613d1f565b6040516001600160e01b031960e085901b1681526001600160a01b0392831660048201529116602482015260440160206040518083038186803b15801561305657600080fd5b505afa15801561306a573d6000803e3d6000fd5b505050506040513d601f19601f8201168201806040525081019061308e91906143fe565b1015604051806040016040528060148152602001730c2d8d8deeec2dcc6ca40dcdee840cadcdeeaced60631b815250906130db5760405162461bcd60e51b81526004016106b99190614763565b5060ca5460405163052f523360e11b81526001600160a01b038481166004830152868116602483015285811660448301526064820184905290911690630a5ea46690608401600060405180830381600087803b15801561313a57600080fd5b505af1158015612966573d6000803e3d6000fd5b60006001600160a01b03831673eeeeeeeeeeeeeeeeeeeeeeeeeeeeeeeeeeeeeeee146131f2576040516370a0823160e01b81526001600160a01b0383811660048301528416906370a082319060240160206040518083038186803b1580156131b557600080fd5b505afa1580156131c9573d6000803e3d6000fd5b505050506040513d601f19601f820116820180604052508101906131ed91906143fe565b6131fe565b816001600160a01b0316315b9392505050565b604051636eb1769f60e11b81523060048201526001600160a01b03838116602483015284169063dd62ed3e9060440160206040518083038186803b15801561324c57600080fd5b505afa158015613260573d6000803e3d6000fd5b505050506040513d601f19601f8201168201806040525081019061328491906143fe565b61329c576107436001600160a01b03841683836135e1565b6132b16001600160a01b0384168360006135e1565b6107436001600160a01b03841683836135e1565b6132da6001600160a01b0383168260006135e1565b5050565b600054610100900460ff166133055760405162461bcd60e51b81526004016106b990614823565b6033805460ff19169055565b600054610100900460ff166133385760405162461bcd60e51b81526004016106b990614823565b6001609755565b600054610100900460ff166133665760405162461bcd60e51b81526004016106b990614823565b610bf833612a03565b6060612ef28260405160200161338791815260200190565b6040516020818303038152906040525b80516060906f181899199a1a9b1b9c1cb0b131b232b360811b906000906133bf906002614a09565b6133ca9060026149f1565b6001600160401b038111156133e1576133e1614ae9565b6040519080825280601f01601f19166020018201604052801561340b576020820181803683370190505b509050600360fc1b8160008151811061342657613426614ad3565b60200101906001600160f81b031916908160001a905350600f60fb1b8160018151811061345557613455614ad3565b60200101906001600160f81b031916908160001a90535060005b84518110156135765782600486838151811061348d5761348d614ad3565b01602001516001600160f81b031916901c60f81c601081106134b1576134b1614ad3565b1a60f81b826134c1836002614a09565b6134cc9060026149f1565b815181106134dc576134dc614ad3565b60200101906001600160f81b031916908160001a9053508285828151811061350657613506614ad3565b60209101015160f81c600f166010811061352257613522614ad3565b1a60f81b82613532836002614a09565b61353d9060036149f1565b8151811061354d5761354d614ad3565b60200101906001600160f81b031916908160001a9053508061356e81614aa2565b91505061346f565b509392505050565b6040516001600160a01b03831660248201526044810182905261074390849063a9059cbb60e01b906064015b60408051601f198184030181529190526020810180516001600160e01b03166001600160e01b031990931692909217909152613705565b80158061366a5750604051636eb1769f60e11b81523060048201526001600160a01b03838116602483015284169063dd62ed3e9060440160206040518083038186803b15801561363057600080fd5b505afa158015613644573d6000803e3d6000fd5b505050506040513d601f19601f8201168201806040525081019061366891906143fe565b155b6136d55760405162461bcd60e51b815260206004820152603660248201527f5361666545524332303a20617070726f76652066726f6d206e6f6e2d7a65726f60448201527520746f206e6f6e2d7a65726f20616c6c6f77616e636560501b60648201526084016106b9565b6040516001600160a01b03831660248201526044810182905261074390849063095ea7b360e01b906064016135aa565b600061375a826040518060400160405280602081526020017f5361666545524332303a206c6f772d6c6576656c2063616c6c206661696c6564815250856001600160a01b03166137d79092919063ffffffff16565b80519091501561074357808060200190518101906137789190613f3e565b6107435760405162461bcd60e51b815260206004820152602a60248201527f5361666545524332303a204552433230206f7065726174696f6e20646964206e6044820152691bdd081cdd58d8d9595960b21b60648201526084016106b9565b60606137e684846000856137ee565b949350505050565b60608247101561384f5760405162461bcd60e51b815260206004820152602660248201527f416464726573733a20696e73756666696369656e742062616c616e636520666f6044820152651c8818d85b1b60d21b60648201526084016106b9565b6001600160a01b0385163b6138a65760405162461bcd60e51b815260206004820152601d60248201527f416464726573733a2063616c6c20746f206e6f6e2d636f6e747261637400000060448201526064016106b9565b600080866001600160a01b031685876040516138c291906144c4565b60006040518083038185875af1925050503d80600081146138ff576040519150601f19603f3d011682016040523d82523d6000602084013e613904565b606091505b509150915061391482828661391f565b979650505050505050565b6060831561392e5750816131fe565b82511561393e5782518084602001fd5b8160405162461bcd60e51b81526004016106b99190614763565b60405180610160016040528060006001600160a01b0316815260200160006001600160a01b0316815260200160006001600160a01b0316815260200160008152602001600081526020016000815260200160008152602001600081526020016060815260200160608152602001606081525090565b8035612add81614aff565b60008083601f8401126139ea57600080fd5b5081356001600160401b03811115613a0157600080fd5b6020830191508360208260051b8501011115613a1c57600080fd5b9250929050565b600082601f830112613a3457600080fd5b81356020613a49613a44836149ce565b61499e565b80838252828201915082860187848660051b8901011115613a6957600080fd5b60005b85811015613a91578135613a7f81614b14565b84529284019290840190600101613a6c565b5090979650505050505050565b600082601f830112613aaf57600080fd5b81356020613abf613a44836149ce565b80838252828201915082860187848660051b8901011115613adf57600080fd5b6000805b86811015613b215782356001600160401b03811115613b00578283fd5b613b0e8b88838d0101613c36565b8652509385019391850191600101613ae3565b509198975050505050505050565b600082601f830112613b4057600080fd5b81356001600160401b03811115613b5957613b59614ae9565b613b6c601f8201601f191660200161499e565b818152846020838601011115613b8157600080fd5b816020850160208301376000918101602001919091529392505050565b600060a08284031215613bb057600080fd5b60405160a081016001600160401b038282108183111715613bd357613bd3614ae9565b8160405282935084359150613be782614aff565b8183526020850135602084015260408501356040840152606085013560608401526080850135915080821115613c1c57600080fd5b50613c2985828601613b2f565b6080830152505092915050565b60006101208284031215613c4957600080fd5b613c516148eb565b9050613c5c826139cd565b8152613c6a602083016139cd565b6020820152613c7b604083016139cd565b6040820152606082013560608201526080820135608082015260a082013560a082015260c082013560c082015260e08201356001600160401b0380821115613cc257600080fd5b613cce85838601613b2f565b60e084015261010091508184013581811115613ce957600080fd5b613cf586828701613b2f565b8385015250505092915050565b600060208284031215613d1457600080fd5b81356131fe81614aff565b600060208284031215613d3157600080fd5b81516131fe81614aff565b60008060408385031215613d4f57600080fd5b82356001600160401b0380821115613d6657600080fd5b818501915085601f830112613d7a57600080fd5b81356020613d8a613a44836149ce565b8083825282820191508286018a848660051b8901011115613daa57600080fd5b600096505b84871015613dd6578035613dc281614aff565b835260019690960195918301918301613daf565b5096505086013592505080821115613ded57600080fd5b50613dfa85828601613a23565b9150509250929050565b60008060408385031215613e1757600080fd5b82356001600160401b0380821115613e2e57600080fd5b818501915085601f830112613e4257600080fd5b81356020613e52613a44836149ce565b8083825282820191508286018a848660051b8901011115613e7257600080fd5b60005b85811015613ead57813587811115613e8c57600080fd5b613e9a8d87838c0101613b9e565b8552509284019290840190600101613e75565b50909750505086013592505080821115613ec657600080fd5b50613dfa85828601613a9e565b60008060008060408587031215613ee957600080fd5b84356001600160401b0380821115613f0057600080fd5b613f0c888389016139d8565b90965094506020870135915080821115613f2557600080fd5b50613f32878288016139d8565b95989497509550505050565b600060208284031215613f5057600080fd5b81516131fe81614b14565b600060208284031215613f6d57600080fd5b81356001600160401b0380821115613f8457600080fd5b9083019060e08286031215613f9857600080fd5b613fa0614914565b82358152613fb0602084016139cd565b6020820152613fc1604084016139cd565b6040820152606083013560608201526080830135608082015260a083013582811115613fec57600080fd5b613ff887828601613b2f565b60a08301525060c08301358281111561401057600080fd5b61401c87828601613b2f565b60c08301525095945050505050565b60006020828403121561403d57600080fd5b81356001600160401b038082111561405457600080fd5b9083019060c0828603121561406857600080fd5b614070614936565b82358152602083013561408281614aff565b6020820152604083013561409581614aff565b80604083015250606083013560608201526080830135608082015260a0830135828111156140c257600080fd5b6140ce87828601613b2f565b60a08301525095945050505050565b6000602082840312156140ef57600080fd5b81356001600160401b0381111561410557600080fd5b6137e684828501613b9e565b60008060006040848603121561412657600080fd5b83356001600160401b038082111561413d57600080fd5b90850190610140828803121561415257600080fd5b9093506020850135908082111561416857600080fd5b818601915086601f83011261417c57600080fd5b81358181111561418b57600080fd5b87602082850101111561419d57600080fd5b6020830194508093505050509250925092565b6000602082840312156141c257600080fd5b81356001600160401b03808211156141d957600080fd5b9083019061014082860312156141ee57600080fd5b6141f6614958565b6141ff836139cd565b815261420d602084016139cd565b602082015261421e604084016139cd565b6040820152606083013560608201526080830135608082015260a083013560a082015260c083013560c082015260e083013560e0820152610100808401358381111561426957600080fd5b61427588828701613b2f565b828401525050610120808401358381111561428f57600080fd5b61429b88828701613b2f565b918301919091525095945050505050565b6000602082840312156142be57600080fd5b81356001600160401b03808211156142d557600080fd5b9083019061016082860312156142ea57600080fd5b6142f261497b565b6142fb836139cd565b8152614309602084016139cd565b602082015261431a604084016139cd565b6040820152606083013560608201526080830135608082015260a083013560a082015260c083013560c082015260e083013560e0820152610100808401358381111561436557600080fd5b61437188828701613b2f565b828401525050610120808401358381111561438b57600080fd5b61439788828701613b2f565b828401525050610140808401358381111561428f57600080fd5b6000602082840312156143c357600080fd5b81356001600160401b038111156143d957600080fd5b6137e684828501613c36565b6000602082840312156143f757600080fd5b5035919050565b60006020828403121561441057600080fd5b5051919050565b6000806040838503121561442a57600080fd5b50508035926020909101359150565b600081518084526020808501945080840160005b838110156144695781518752958201959082019060010161444d565b509495945050505050565b6000815180845261448c816020860160208601614a76565b601f01601f19169290920160200192915050565b6001600160e01b031984168152818360048301376000910160040190815292915050565b600082516144d6818460208701614a76565b9190910192915050565b600083516144f2818460208801614a76565b650a0c2dcd2c6560d31b9083019081528351614515816006840160208801614a76565b602960f81b60069290910191820152600701949350505050565b60008351614541818460208801614a76565b670aadcd6dcdeeedc560c31b9083019081528351614566816008840160208801614a76565b602960f81b60089290910191820152600901949350505050565b60008351614592818460208801614a76565b6508ae4e4dee4560d31b9083019081528351614515816006840160208801614a76565b6001600160a01b03888116825287811660208301528681166040830152851660608201526080810184905260a0810183905260e060c082018190526000906145ff90830184614474565b9998505050505050505050565b600061012060018060a01b03808d168452808c166020850152808b166040850152508860608401528760808401528660a08401528560c08401528060e084015261465881840186614474565b905082810361010084015261466d8185614439565b9c9b505050505050505050505050565b6001600160a01b03898116825288811660208301528781166040830152606082018790528516608082015260a0810184905260c0810183905261010060e082018190526000906146cf83820185614439565b9b9a5050505050505050505050565b6001600160a01b038781168252868116602083015285166040820152606081018490526080810183905260c060a0820181905260009061472090830184614439565b98975050505050505050565b60018060a01b03851681528360208201528260408201526080606082015260006147596080830184614439565b9695505050505050565b6020815260006131fe6020830184614474565b60208082526010908201526f14185d5cd8589b194e881c185d5cd95960821b604082015260600190565b6020808252602e908201527f496e697469616c697a61626c653a20636f6e747261637420697320616c72656160408201526d191e481a5b9a5d1a585b1a5e995960921b606082015260800190565b6020808252818101527f4f776e61626c653a2063616c6c6572206973206e6f7420746865206f776e6572604082015260600190565b6020808252602b908201527f496e697469616c697a61626c653a20636f6e7472616374206973206e6f74206960408201526a6e697469616c697a696e6760a81b606082015260800190565b6020808252601f908201527f5265656e7472616e637947756172643a207265656e7472616e742063616c6c00604082015260600190565b6000808335601e198436030181126148bc57600080fd5b8301803591506001600160401b038211156148d657600080fd5b602001915036819003821315613a1c57600080fd5b60405161012081016001600160401b038111828210171561490e5761490e614ae9565b60405290565b60405160e081016001600160401b038111828210171561490e5761490e614ae9565b60405160c081016001600160401b038111828210171561490e5761490e614ae9565b60405161014081016001600160401b038111828210171561490e5761490e614ae9565b60405161016081016001600160401b038111828210171561490e5761490e614ae9565b604051601f8201601f191681016001600160401b03811182821017156149c6576149c6614ae9565b604052919050565b60006001600160401b038211156149e7576149e7614ae9565b5060051b60200190565b60008219821115614a0457614a04614abd565b500190565b6000816000190483118215151615614a2357614a23614abd565b500290565b600082821015614a3a57614a3a614abd565b500390565b805160208201516001600160e01b03198082169291906004831015614a6e5780818460040360031b1b83161693505b505050919050565b60005b83811015614a91578181015183820152602001614a79565b83811115611f8e5750506000910152565b6000600019821415614ab657614ab6614abd565b5060010190565b634e487b7160e01b600052601160045260246000fd5b634e487b7160e01b600052603260045260246000fd5b634e487b7160e01b600052604160045260246000fd5b6001600160a01b0381168114610d8557600080fd5b8015158114610d8557600080fdfea26469706673582212200c4e86f4e2621ccc2f087ac31bef6b2b17383acd5b189bd4221b98352e1fcc8164736f6c63430008060033",
  "linkReferences": {},
  "deployedLinkReferences": {}
}